{
  "contractName": "Genesis",
  "abi": [
    {
      "constant": true,
      "inputs": [],
      "name": "bitPosition",
      "outputs": [
        {
          "name": "",
          "type": "uint256"
        }
      ],
      "payable": false,
      "stateMutability": "view",
      "type": "function"
    },
    {
      "constant": false,
      "inputs": [
        {
          "name": "_addressTrustedPerson",
          "type": "address"
        },
        {
          "name": "_nameTrustedPerson",
          "type": "string"
        }
      ],
      "name": "setTrustedPerson",
      "outputs": [],
      "payable": false,
      "stateMutability": "nonpayable",
      "type": "function"
    },
    {
      "constant": false,
      "inputs": [],
      "name": "unpause",
      "outputs": [],
      "payable": false,
      "stateMutability": "nonpayable",
      "type": "function"
    },
    {
      "constant": true,
      "inputs": [
        {
          "name": "",
          "type": "address"
        }
      ],
      "name": "trustedPersons",
      "outputs": [
        {
          "name": "",
          "type": "string"
        }
      ],
      "payable": false,
      "stateMutability": "view",
      "type": "function"
    },
    {
      "constant": true,
      "inputs": [
        {
          "name": "",
          "type": "uint256"
        }
      ],
      "name": "blockheightBits",
      "outputs": [
        {
          "name": "",
          "type": "uint8"
        }
      ],
      "payable": false,
      "stateMutability": "view",
      "type": "function"
    },
    {
      "constant": true,
      "inputs": [],
      "name": "paused",
      "outputs": [
        {
          "name": "",
          "type": "bool"
        }
      ],
      "payable": false,
      "stateMutability": "view",
      "type": "function"
    },
    {
      "constant": false,
      "inputs": [
        {
          "name": "_coopMembersListPosition",
          "type": "uint256"
        }
      ],
      "name": "removeCoopMember",
      "outputs": [],
      "payable": false,
      "stateMutability": "nonpayable",
      "type": "function"
    },
    {
      "constant": false,
      "inputs": [],
      "name": "pause",
      "outputs": [],
      "payable": false,
      "stateMutability": "nonpayable",
      "type": "function"
    },
    {
      "constant": false,
      "inputs": [
        {
          "name": "_trustedPersonsListPosition",
          "type": "uint256"
        }
      ],
      "name": "removeTrustedPeron",
      "outputs": [],
      "payable": false,
      "stateMutability": "nonpayable",
      "type": "function"
    },
    {
      "constant": false,
      "inputs": [
        {
          "name": "_addressCoopMember",
          "type": "address"
        }
      ],
      "name": "setCoopMember",
      "outputs": [],
      "payable": false,
      "stateMutability": "nonpayable",
      "type": "function"
    },
    {
      "constant": true,
      "inputs": [],
      "name": "owner",
      "outputs": [
        {
          "name": "",
          "type": "address"
        }
      ],
      "payable": false,
      "stateMutability": "view",
      "type": "function"
    },
    {
      "constant": true,
      "inputs": [
        {
          "name": "",
          "type": "uint256"
        }
      ],
      "name": "coopMembersList",
      "outputs": [
        {
          "name": "",
          "type": "address"
        }
      ],
      "payable": false,
      "stateMutability": "view",
      "type": "function"
    },
    {
      "constant": true,
      "inputs": [
        {
          "name": "",
          "type": "uint256"
        }
      ],
      "name": "trustedPersonsList",
      "outputs": [
        {
          "name": "",
          "type": "address"
        }
      ],
      "payable": false,
      "stateMutability": "view",
      "type": "function"
    },
    {
      "constant": true,
      "inputs": [
        {
          "name": "",
          "type": "uint256"
        },
        {
          "name": "",
          "type": "uint256"
        }
      ],
      "name": "trustedAttesters",
      "outputs": [
        {
          "name": "",
          "type": "address"
        }
      ],
      "payable": false,
      "stateMutability": "view",
      "type": "function"
    },
    {
      "constant": false,
      "inputs": [
        {
          "name": "newOwner",
          "type": "address"
        }
      ],
      "name": "transferOwnership",
      "outputs": [],
      "payable": false,
      "stateMutability": "nonpayable",
      "type": "function"
    },
    {
      "constant": true,
      "inputs": [
        {
          "name": "",
          "type": "uint256"
        },
        {
          "name": "",
          "type": "uint256"
        }
      ],
      "name": "memberAttesters",
      "outputs": [
        {
          "name": "",
          "type": "address"
        }
      ],
      "payable": false,
      "stateMutability": "view",
      "type": "function"
    },
    {
      "anonymous": false,
      "inputs": [
        {
          "indexed": true,
          "name": "attester",
          "type": "address"
        },
        {
          "indexed": false,
          "name": "bit",
          "type": "uint8"
        },
        {
          "indexed": false,
          "name": "bitPosition",
          "type": "uint256"
        }
      ],
      "name": "bitAdded",
      "type": "event"
    },
    {
      "anonymous": false,
      "inputs": [
        {
          "indexed": true,
          "name": "attester",
          "type": "address"
        },
        {
          "indexed": false,
          "name": "bit",
          "type": "uint8"
        }
      ],
      "name": "bitOverwritten",
      "type": "event"
    },
    {
      "anonymous": false,
      "inputs": [
        {
          "indexed": true,
          "name": "attester",
          "type": "address"
        },
        {
          "indexed": false,
          "name": "bitPosition",
          "type": "uint256"
        }
      ],
      "name": "trustedPersonBitAttested",
      "type": "event"
    },
    {
      "anonymous": false,
      "inputs": [
        {
          "indexed": true,
          "name": "attester",
          "type": "address"
        },
        {
          "indexed": false,
          "name": "bitPosition",
          "type": "uint256"
        }
      ],
      "name": "coopMemberBitAttested",
      "type": "event"
    },
    {
      "anonymous": false,
      "inputs": [
        {
          "indexed": true,
          "name": "trustedPersonAddress",
          "type": "address"
        },
        {
          "indexed": false,
          "name": "trustedPersonName",
          "type": "string"
        }
      ],
      "name": "trustedPersonAdded",
      "type": "event"
    },
    {
      "anonymous": false,
      "inputs": [
        {
          "indexed": true,
          "name": "coopMemberAddress",
          "type": "address"
        }
      ],
      "name": "coopMemberAdded",
      "type": "event"
    },
    {
      "anonymous": false,
      "inputs": [
        {
          "indexed": true,
          "name": "trustedPersonAddress",
          "type": "address"
        }
      ],
      "name": "trustedPersonRemoved",
      "type": "event"
    },
    {
      "anonymous": false,
      "inputs": [
        {
          "indexed": true,
          "name": "coopMemberAddress",
          "type": "address"
        }
      ],
      "name": "coopMemberRemoved",
      "type": "event"
    },
    {
      "anonymous": false,
      "inputs": [],
      "name": "Pause",
      "type": "event"
    },
    {
      "anonymous": false,
      "inputs": [],
      "name": "Unpause",
      "type": "event"
    },
    {
      "anonymous": false,
      "inputs": [
        {
          "indexed": true,
          "name": "previousOwner",
          "type": "address"
        },
        {
          "indexed": true,
          "name": "newOwner",
          "type": "address"
        }
      ],
      "name": "OwnershipTransferred",
      "type": "event"
    },
    {
      "constant": false,
      "inputs": [
        {
          "name": "_bit",
          "type": "uint8"
        }
      ],
      "name": "setBlockheightBit",
      "outputs": [],
      "payable": false,
      "stateMutability": "nonpayable",
      "type": "function"
    },
    {
      "constant": false,
      "inputs": [
        {
          "name": "_bitPosition",
          "type": "uint256"
        },
        {
          "name": "_bit",
          "type": "uint8"
        }
      ],
      "name": "attestBit",
      "outputs": [],
      "payable": false,
      "stateMutability": "nonpayable",
      "type": "function"
    },
    {
      "constant": false,
      "inputs": [
        {
          "name": "_bit",
          "type": "uint8"
        }
      ],
      "name": "overWriteBit",
      "outputs": [],
      "payable": false,
      "stateMutability": "nonpayable",
      "type": "function"
    }
  ],
  "bytecode": "0x606060405260008060146101000a81548160ff021916908315150217905550336000806101000a81548173ffffffffffffffffffffffffffffffffffffffff021916908373ffffffffffffffffffffffffffffffffffffffff160217905550611cdb8061006d6000396000f300606060405260043610610107576000357c0100000000000000000000000000000000000000000000000000000000900463ffffffff16806302805ad61461010c5780630d1682921461013557806325c8e2961461015b5780633f4ba83a146101d75780634c8c3dcc146101ec5780634faa90f21461021b57806350326e2d146102cd5780635c975abb1461030a5780637fb03161146103375780638456cb591461035a578063873035a81461036f57806388302950146103925780638da5cb5b146103cb578063a54e70eb14610420578063ba79a0c114610483578063eabc2d35146104e6578063ec7df3061461050c578063f2fde38b14610578578063f47027e6146105b1575b600080fd5b341561011757600080fd5b61011f61061d565b6040518082815260200191505060405180910390f35b341561014057600080fd5b610159600480803560ff16906020019091905050610623565b005b341561016657600080fd5b6101d5600480803573ffffffffffffffffffffffffffffffffffffffff1690602001909190803590602001908201803590602001908080601f016020809104026020016040519081016040528093929190818152602001838380828437820191505050505050919050506107fb565b005b34156101e257600080fd5b6101ea610b05565b005b34156101f757600080fd5b610219600480803590602001909190803560ff16906020019091905050610bc3565b005b341561022657600080fd5b610252600480803573ffffffffffffffffffffffffffffffffffffffff16906020019091905050610f9a565b6040518080602001828103825283818151815260200191508051906020019080838360005b83811015610292578082015181840152602081019050610277565b50505050905090810190601f1680156102bf5780820380516001836020036101000a031916815260200191505b509250505060405180910390f35b34156102d857600080fd5b6102ee600480803590602001909190505061104a565b604051808260ff1660ff16815260200191505060405180910390f35b341561031557600080fd5b61031d611073565b604051808215151515815260200191505060405180910390f35b341561034257600080fd5b6103586004808035906020019091905050611086565b005b341561036557600080fd5b61036d611269565b005b341561037a57600080fd5b6103906004808035906020019091905050611329565b005b341561039d57600080fd5b6103c9600480803573ffffffffffffffffffffffffffffffffffffffff16906020019091905050611518565b005b34156103d657600080fd5b6103de611798565b604051808273ffffffffffffffffffffffffffffffffffffffff1673ffffffffffffffffffffffffffffffffffffffff16815260200191505060405180910390f35b341561042b57600080fd5b61044160048080359060200190919050506117bd565b604051808273ffffffffffffffffffffffffffffffffffffffff1673ffffffffffffffffffffffffffffffffffffffff16815260200191505060405180910390f35b341561048e57600080fd5b6104a460048080359060200190919050506117fc565b604051808273ffffffffffffffffffffffffffffffffffffffff1673ffffffffffffffffffffffffffffffffffffffff16815260200191505060405180910390f35b34156104f157600080fd5b61050a600480803560ff1690602001909190505061183b565b005b341561051757600080fd5b61053660048080359060200190919080359060200190919050506119ed565b604051808273ffffffffffffffffffffffffffffffffffffffff1673ffffffffffffffffffffffffffffffffffffffff16815260200191505060405180910390f35b341561058357600080fd5b6105af600480803573ffffffffffffffffffffffffffffffffffffffff16906020019091905050611a3b565b005b34156105bc57600080fd5b6105db6004808035906020019091908035906020019091905050611b90565b604051808273ffffffffffffffffffffffffffffffffffffffff1673ffffffffffffffffffffffffffffffffffffffff16815260200191505060405180910390f35b60055481565b600060149054906101000a900460ff1615151561063f57600080fd5b6000809054906101000a900473ffffffffffffffffffffffffffffffffffffffff1673ffffffffffffffffffffffffffffffffffffffff163373ffffffffffffffffffffffffffffffffffffffff1614151561069a57600080fd5b60018160ff1614806106af575060008160ff16145b15156106ba57600080fd5b8060ff1660066001600554036018811015156106d257fe5b602091828204019190069054906101000a900460ff1660ff16141515156106f857600080fd5b6000600760006001600554038152602001908152602001600020600081548110151561072057fe5b906000526020600020900160009054906101000a900473ffffffffffffffffffffffffffffffffffffffff1673ffffffffffffffffffffffffffffffffffffffff161415151561076f57600080fd5b80600660016005540360188110151561078457fe5b602091828204019190066101000a81548160ff021916908360ff1602179055503373ffffffffffffffffffffffffffffffffffffffff167f2e9a80859673bfbf206aa9f64e4d66e3369fbcfdb3f9472905ee1485097d9c0f82604051808260ff1660ff16815260200191505060405180910390a250565b6000809054906101000a900473ffffffffffffffffffffffffffffffffffffffff1673ffffffffffffffffffffffffffffffffffffffff163373ffffffffffffffffffffffffffffffffffffffff1614151561085657600080fd5b600060149054906101000a900460ff1615151561087257600080fd5b600073ffffffffffffffffffffffffffffffffffffffff168273ffffffffffffffffffffffffffffffffffffffff16141515156108ae57600080fd5b604051806000019050604051809103902060001916816040518082805190602001908083835b6020831015156108f957805182526020820191506020810190506020830392506108d4565b6001836020036101000a0380198251168184511680821785525050505050509050019150506040518091039020600019161415151561093757600080fd5b60011515600460008473ffffffffffffffffffffffffffffffffffffffff1673ffffffffffffffffffffffffffffffffffffffff16815260200190815260200160002060009054906101000a900460ff1615151415151561099757600080fd5b600180548060010182816109ab9190611bde565b9160005260206000209001600084909190916101000a81548173ffffffffffffffffffffffffffffffffffffffff021916908373ffffffffffffffffffffffffffffffffffffffff1602179055505080600360008473ffffffffffffffffffffffffffffffffffffffff1673ffffffffffffffffffffffffffffffffffffffff1681526020019081526020016000209080519060200190610a4d929190611c0a565b508173ffffffffffffffffffffffffffffffffffffffff167f994fcd81e06a67d54cc70b83ec1ef52a4bfb94468e30e1bcca557453a9e3fd6e826040518080602001828103825283818151815260200191508051906020019080838360005b83811015610ac7578082015181840152602081019050610aac565b50505050905090810190601f168015610af45780820380516001836020036101000a031916815260200191505b509250505060405180910390a25050565b6000809054906101000a900473ffffffffffffffffffffffffffffffffffffffff1673ffffffffffffffffffffffffffffffffffffffff163373ffffffffffffffffffffffffffffffffffffffff16141515610b6057600080fd5b600060149054906101000a900460ff161515610b7b57600080fd5b60008060146101000a81548160ff0219169083151502179055507f7805862f689e2f13df9f062ff482ad3ad112aca9e0847911ed832e158c525b3360405160405180910390a1565b600060149054906101000a900460ff16151515610bdf57600080fd5b600460003373ffffffffffffffffffffffffffffffffffffffff1673ffffffffffffffffffffffffffffffffffffffff16815260200190815260200160002060009054906101000a900460ff1680610cf55750604051806000019050604051809103902060001916600360003373ffffffffffffffffffffffffffffffffffffffff1673ffffffffffffffffffffffffffffffffffffffff1681526020019081526020016000206040518082805460018160011615610100020316600290048015610ce15780601f10610cbf576101008083540402835291820191610ce1565b820191906000526020600020905b815481529060010190602001808311610ccd575b505091505060405180910390206000191614155b1515610d0057600080fd5b60055482101515610d1057600080fd5b8060ff16600683601881101515610d2357fe5b602091828204019190069054906101000a900460ff1660ff16141515610d4857600080fd5b600460003373ffffffffffffffffffffffffffffffffffffffff1673ffffffffffffffffffffffffffffffffffffffff16815260200190815260200160002060009054906101000a900460ff1615610ed3576000600760008481526020019081526020016000206000815481101515610dbd57fe5b906000526020600020900160009054906101000a900473ffffffffffffffffffffffffffffffffffffffff1673ffffffffffffffffffffffffffffffffffffffff1614151515610e0c57600080fd5b600860008381526020019081526020016000208054806001018281610e319190611bde565b9160005260206000209001600033909190916101000a81548173ffffffffffffffffffffffffffffffffffffffff021916908373ffffffffffffffffffffffffffffffffffffffff160217905550503373ffffffffffffffffffffffffffffffffffffffff167fa58160fd735e420c4ebd89eb0930c6e0d81889abbd8f26495b50014fc617d5bb836040518082815260200191505060405180910390a2610f96565b600760008381526020019081526020016000208054806001018281610ef89190611bde565b9160005260206000209001600033909190916101000a81548173ffffffffffffffffffffffffffffffffffffffff021916908373ffffffffffffffffffffffffffffffffffffffff160217905550503373ffffffffffffffffffffffffffffffffffffffff167f51b11b49dff9f0e5b2958816e7b861075dd35e6fa78a50999dff40afe7dfff78836040518082815260200191505060405180910390a25b5050565b60036020528060005260406000206000915090508054600181600116156101000203166002900480601f0160208091040260200160405190810160405280929190818152602001828054600181600116156101000203166002900480156110425780601f1061101757610100808354040283529160200191611042565b820191906000526020600020905b81548152906001019060200180831161102557829003601f168201915b505050505081565b60068160188110151561105957fe5b60209182820401919006915054906101000a900460ff1681565b600060149054906101000a900460ff1681565b6000809054906101000a900473ffffffffffffffffffffffffffffffffffffffff1673ffffffffffffffffffffffffffffffffffffffff163373ffffffffffffffffffffffffffffffffffffffff161415156110e157600080fd5b600060149054906101000a900460ff161515156110fd57600080fd5b60028181548110151561110c57fe5b906000526020600020900160009054906101000a900473ffffffffffffffffffffffffffffffffffffffff1673ffffffffffffffffffffffffffffffffffffffff167f764b36a5c18af7648d4e7a3dd313368b60e17861165af584c1355520c8cf762360405160405180910390a260006004600060028481548110151561118f57fe5b906000526020600020900160009054906101000a900473ffffffffffffffffffffffffffffffffffffffff1673ffffffffffffffffffffffffffffffffffffffff1673ffffffffffffffffffffffffffffffffffffffff16815260200190815260200160002060006101000a81548160ff021916908315150217905550600060028281548110151561121d57fe5b906000526020600020900160006101000a81548173ffffffffffffffffffffffffffffffffffffffff021916908373ffffffffffffffffffffffffffffffffffffffff16021790555050565b6000809054906101000a900473ffffffffffffffffffffffffffffffffffffffff1673ffffffffffffffffffffffffffffffffffffffff163373ffffffffffffffffffffffffffffffffffffffff161415156112c457600080fd5b600060149054906101000a900460ff161515156112e057600080fd5b6001600060146101000a81548160ff0219169083151502179055507f6985a02210a168e66602d3235cb6db0e70f92b3ba4d376a33c0f3d9434bff62560405160405180910390a1565b6000809054906101000a900473ffffffffffffffffffffffffffffffffffffffff1673ffffffffffffffffffffffffffffffffffffffff163373ffffffffffffffffffffffffffffffffffffffff1614151561138457600080fd5b600060149054906101000a900460ff161515156113a057600080fd5b6001818154811015156113af57fe5b906000526020600020900160009054906101000a900473ffffffffffffffffffffffffffffffffffffffff1673ffffffffffffffffffffffffffffffffffffffff167fcb8719a25272f2ee99327b2f21948f429ce7c2598b83df02bf3dcbd50973184860405160405180910390a260206040519081016040528060008152506003600060018481548110151561144157fe5b906000526020600020900160009054906101000a900473ffffffffffffffffffffffffffffffffffffffff1673ffffffffffffffffffffffffffffffffffffffff1673ffffffffffffffffffffffffffffffffffffffff16815260200190815260200160002090805190602001906114ba929190611c0a565b5060006001828154811015156114cc57fe5b906000526020600020900160006101000a81548173ffffffffffffffffffffffffffffffffffffffff021916908373ffffffffffffffffffffffffffffffffffffffff16021790555050565b6000809054906101000a900473ffffffffffffffffffffffffffffffffffffffff1673ffffffffffffffffffffffffffffffffffffffff163373ffffffffffffffffffffffffffffffffffffffff1614151561157357600080fd5b600060149054906101000a900460ff1615151561158f57600080fd5b600073ffffffffffffffffffffffffffffffffffffffff168173ffffffffffffffffffffffffffffffffffffffff16141515156115cb57600080fd5b604051806000019050604051809103902060001916600360008373ffffffffffffffffffffffffffffffffffffffff1673ffffffffffffffffffffffffffffffffffffffff168152602001908152602001600020604051808280546001816001161561010002031660029004801561167a5780601f1061165857610100808354040283529182019161167a565b820191906000526020600020905b815481529060010190602001808311611666575b505091505060405180910390206000191614151561169757600080fd5b600280548060010182816116ab9190611bde565b9160005260206000209001600083909190916101000a81548173ffffffffffffffffffffffffffffffffffffffff021916908373ffffffffffffffffffffffffffffffffffffffff160217905550506001600460008373ffffffffffffffffffffffffffffffffffffffff1673ffffffffffffffffffffffffffffffffffffffff16815260200190815260200160002060006101000a81548160ff0219169083151502179055508073ffffffffffffffffffffffffffffffffffffffff167f9a58e51f568916de7d2e95b6cecc840ff08be4fabe82882a8e307d7815ca2b0660405160405180910390a250565b6000809054906101000a900473ffffffffffffffffffffffffffffffffffffffff1681565b6002818154811015156117cc57fe5b90600052602060002090016000915054906101000a900473ffffffffffffffffffffffffffffffffffffffff1681565b60018181548110151561180b57fe5b90600052602060002090016000915054906101000a900473ffffffffffffffffffffffffffffffffffffffff1681565b600060149054906101000a900460ff1615151561185757600080fd5b6000809054906101000a900473ffffffffffffffffffffffffffffffffffffffff1673ffffffffffffffffffffffffffffffffffffffff163373ffffffffffffffffffffffffffffffffffffffff161415156118b257600080fd5b60018160ff1614806118c7575060008160ff16145b15156118d257600080fd5b8060066005546018811015156118e457fe5b602091828204019190066101000a81548160ff021916908360ff160217905550600760006005548152602001908152602001600020805480600101828161192b9190611bde565b9160005260206000209001600033909190916101000a81548173ffffffffffffffffffffffffffffffffffffffff021916908373ffffffffffffffffffffffffffffffffffffffff160217905550506005600081548092919060010191905055503373ffffffffffffffffffffffffffffffffffffffff167fa241cb71648f06a64ff6a536e91aee122e92477b9c771b1c10bed8b56a88c35482600554604051808360ff1660ff1681526020018281526020019250505060405180910390a250565b600760205281600052604060002081815481101515611a0857fe5b90600052602060002090016000915091509054906101000a900473ffffffffffffffffffffffffffffffffffffffff1681565b6000809054906101000a900473ffffffffffffffffffffffffffffffffffffffff1673ffffffffffffffffffffffffffffffffffffffff163373ffffffffffffffffffffffffffffffffffffffff16141515611a9657600080fd5b600073ffffffffffffffffffffffffffffffffffffffff168173ffffffffffffffffffffffffffffffffffffffff1614151515611ad257600080fd5b8073ffffffffffffffffffffffffffffffffffffffff166000809054906101000a900473ffffffffffffffffffffffffffffffffffffffff1673ffffffffffffffffffffffffffffffffffffffff167f8be0079c531659141344cd1fd0a4f28419497f9722a3daafe3b4186f6b6457e060405160405180910390a3806000806101000a81548173ffffffffffffffffffffffffffffffffffffffff021916908373ffffffffffffffffffffffffffffffffffffffff16021790555050565b600860205281600052604060002081815481101515611bab57fe5b90600052602060002090016000915091509054906101000a900473ffffffffffffffffffffffffffffffffffffffff1681565b815481835581811511611c0557818360005260206000209182019101611c049190611c8a565b5b505050565b828054600181600116156101000203166002900490600052602060002090601f016020900481019282601f10611c4b57805160ff1916838001178555611c79565b82800160010185558215611c79579182015b82811115611c78578251825591602001919060010190611c5d565b5b509050611c869190611c8a565b5090565b611cac91905b80821115611ca8576000816000905550600101611c90565b5090565b905600a165627a7a723058201c5f381df4aa975373f79ca2ecdf20c2b50509d48cdc4f749fe45a722580fc0b0029",
  "source": "pragma solidity ^0.4.21; \nimport \"./Rchain.sol\";\n\n/**\n* @title Genesis\n* @dev The Genesis contract is an Rchain contract which imports Rchain (that imports Ownable and Pausable).\n* The aim of this contract is to benefit from the transparacy and immutability of Ethereum with regards to the \n* publication of the bits which combined will form the blockheight at which the Genesis balances of Rchain will be defined.\n* The owner of the contract can publish the bits, after which trusted persons and coop members can attest on its correctness.\n*/\ncontract Genesis is Rchain{\n    event bitAdded(address indexed attester, uint8 bit, uint bitPosition);\n    event bitOverwritten(address indexed attester, uint8 bit);\n    event trustedPersonBitAttested(address indexed attester, uint bitPosition);\n    event coopMemberBitAttested(address indexed attester, uint bitPosition);\n    \n    // keeps track of the amount of bits published\n    uint public bitPosition;\n    \n    // Fixed size (24 positions) array to keep track of all published bits.\n    // 24 bit unsigned int can represent [0- 16,777,215]. Projected blockheight at 31 dec 2018 is 6,360250 \n    // == 5,485,368 (current blockheight)+ 2185900(seconds at 22/4/18 till 31/12/18) / 25(average blocktime in seconds)\n    uint8[24] public blockheightBits;\n    \n    // maps the bitposition to an array of trusted attesters (pyrofex/coop board members) who attested on the correctness of the bit at that position\n    mapping(uint => address[]) public trustedAttesters;\n    \n    // maps the bitposition to an array of member attesters who attested on the correctness of the bit at that position\n    mapping(uint => address[]) public memberAttesters;\n    \n    /**\n    * @dev this function sets the next bit in the blockHeightBits array. The first attester is the msg.sender (owner of the contract)\n    * CAUTION! Once published, a bit cannot be reverted anymore\n    * @param _bit is the next bit to be stored in the blockheightBits array\n    */\n    function setBlockheightBit(uint8 _bit) whenNotPaused onlyOwner public {\n        require((_bit ==  1) || (_bit == 0));\n        blockheightBits[bitPosition] = _bit;\n        trustedAttesters[bitPosition].push(msg.sender);\n        bitPosition ++;\n        emit bitAdded(msg.sender, _bit, bitPosition);\n    }\n    \n    /**\n    * @dev this function allows trusted persons or coop members to attest on the correctness of a published bit. \n    * Attestation is done to improve reliability of the information in the contract.\n    * A distinction between coop members and trusted persons is made since trusted persons are \n    * expected to have heard about the correctness of a bit from a primary source, whereas coop members most likely have heard \n    * about the correctness via a (possibly hijacked) communication channel.\n    * @param _bitPosition is the position of the to-be attested bit \n    * @param _bit is the expected bit at the blockheightBits[_bitPosition]\n    */\n    function attestBit(uint _bitPosition, uint8 _bit) whenNotPaused onlyTrustedOrCoop public {\n        require(_bitPosition < bitPosition); \n        require(blockheightBits[_bitPosition] == _bit);\n\n        if(coopMembers[msg.sender]) {\n            require(trustedAttesters[_bitPosition][0] != 0);\n            memberAttesters[_bitPosition].push(msg.sender);\n            emit coopMemberBitAttested(msg.sender, _bitPosition);\n        } else {\n            trustedAttesters[_bitPosition].push(msg.sender);\n            emit trustedPersonBitAttested(msg.sender, _bitPosition);\n        }\n    }\n    \n    /**\n    * @dev this function allows the last published bit to be overwritten (in case there is a mistake) if and only if there are no trusted attesters yet.\n    * @param _bit is the new value of the last published _bit.\n    */\n    function overWriteBit(uint8 _bit) whenNotPaused onlyOwner public {\n        require((_bit ==  1) || (_bit == 0));\n        require(blockheightBits[bitPosition-1] != _bit);\n        require(trustedAttesters[bitPosition -1][0] != 0);\n        blockheightBits[bitPosition-1] = _bit;\n        emit bitOverwritten(msg.sender, _bit);\n    }\n}",
  "sourcePath": "/home/rinke/DAPPS/Rchain/contracts/Genesis.sol",
  "compiler": {
    "name": "solc",
    "version": "0.4.21+commit.dfe3193c.Emscripten.clang"
  },
  "schemaVersion": "2.0.0",
  "updatedAt": "2018-04-22T21:00:23.672Z"
}