{
  "contractName": "Genesis",
  "abi": [
    {
      "constant": true,
      "inputs": [],
      "name": "bitPosition",
      "outputs": [
        {
          "name": "",
          "type": "uint256"
        }
      ],
      "payable": false,
      "stateMutability": "view",
      "type": "function"
    },
    {
      "constant": false,
      "inputs": [
        {
          "name": "_trustedPersonsListPosition",
          "type": "uint256"
        }
      ],
      "name": "removeTrustedPerson",
      "outputs": [],
      "payable": false,
      "stateMutability": "nonpayable",
      "type": "function"
    },
    {
      "constant": false,
      "inputs": [
        {
          "name": "_addressTrustedPerson",
          "type": "address"
        },
        {
          "name": "_nameTrustedPerson",
          "type": "string"
        }
      ],
      "name": "setTrustedPerson",
      "outputs": [],
      "payable": false,
      "stateMutability": "nonpayable",
      "type": "function"
    },
    {
      "constant": false,
      "inputs": [],
      "name": "unpause",
      "outputs": [],
      "payable": false,
      "stateMutability": "nonpayable",
      "type": "function"
    },
    {
      "constant": true,
      "inputs": [
        {
          "name": "",
          "type": "address"
        }
      ],
      "name": "trustedPersons",
      "outputs": [
        {
          "name": "",
          "type": "string"
        }
      ],
      "payable": false,
      "stateMutability": "view",
      "type": "function"
    },
    {
      "constant": true,
      "inputs": [
        {
          "name": "",
          "type": "uint256"
        }
      ],
      "name": "blockheightBits",
      "outputs": [
        {
          "name": "",
          "type": "uint8"
        }
      ],
      "payable": false,
      "stateMutability": "view",
      "type": "function"
    },
    {
      "constant": true,
      "inputs": [],
      "name": "paused",
      "outputs": [
        {
          "name": "",
          "type": "bool"
        }
      ],
      "payable": false,
      "stateMutability": "view",
      "type": "function"
    },
    {
      "constant": false,
      "inputs": [
        {
          "name": "_coopMembersListPosition",
          "type": "uint256"
        }
      ],
      "name": "removeCoopMember",
      "outputs": [],
      "payable": false,
      "stateMutability": "nonpayable",
      "type": "function"
    },
    {
      "constant": false,
      "inputs": [],
      "name": "pause",
      "outputs": [],
      "payable": false,
      "stateMutability": "nonpayable",
      "type": "function"
    },
    {
      "constant": true,
      "inputs": [
        {
          "name": "",
          "type": "uint256"
        },
        {
          "name": "",
          "type": "address"
        }
      ],
      "name": "memberAttesters",
      "outputs": [
        {
          "name": "",
          "type": "bool"
        }
      ],
      "payable": false,
      "stateMutability": "view",
      "type": "function"
    },
    {
      "constant": false,
      "inputs": [
        {
          "name": "_addressCoopMember",
          "type": "address"
        }
      ],
      "name": "setCoopMember",
      "outputs": [],
      "payable": false,
      "stateMutability": "nonpayable",
      "type": "function"
    },
    {
      "constant": true,
      "inputs": [],
      "name": "owner",
      "outputs": [
        {
          "name": "",
          "type": "address"
        }
      ],
      "payable": false,
      "stateMutability": "view",
      "type": "function"
    },
    {
      "constant": true,
      "inputs": [
        {
          "name": "",
          "type": "address"
        }
      ],
      "name": "coopMembers",
      "outputs": [
        {
          "name": "",
          "type": "bool"
        }
      ],
      "payable": false,
      "stateMutability": "view",
      "type": "function"
    },
    {
      "constant": true,
      "inputs": [
        {
          "name": "",
          "type": "uint256"
        }
      ],
      "name": "coopMembersList",
      "outputs": [
        {
          "name": "",
          "type": "address"
        }
      ],
      "payable": false,
      "stateMutability": "view",
      "type": "function"
    },
    {
      "constant": true,
      "inputs": [
        {
          "name": "",
          "type": "uint256"
        }
      ],
      "name": "trustedPersonsList",
      "outputs": [
        {
          "name": "",
          "type": "address"
        }
      ],
      "payable": false,
      "stateMutability": "view",
      "type": "function"
    },
    {
      "constant": true,
      "inputs": [
        {
          "name": "",
          "type": "uint256"
        }
      ],
      "name": "hasFirstAttester",
      "outputs": [
        {
          "name": "",
          "type": "bool"
        }
      ],
      "payable": false,
      "stateMutability": "view",
      "type": "function"
    },
    {
      "constant": false,
      "inputs": [
        {
          "name": "newOwner",
          "type": "address"
        }
      ],
      "name": "transferOwnership",
      "outputs": [],
      "payable": false,
      "stateMutability": "nonpayable",
      "type": "function"
    },
    {
      "constant": true,
      "inputs": [
        {
          "name": "",
          "type": "uint256"
        },
        {
          "name": "",
          "type": "address"
        }
      ],
      "name": "trustedAttesters",
      "outputs": [
        {
          "name": "",
          "type": "bool"
        }
      ],
      "payable": false,
      "stateMutability": "view",
      "type": "function"
    },
    {
      "anonymous": false,
      "inputs": [
        {
          "indexed": true,
          "name": "attester",
          "type": "address"
        },
        {
          "indexed": false,
          "name": "bit",
          "type": "uint8"
        },
        {
          "indexed": false,
          "name": "bitPosition",
          "type": "uint256"
        }
      ],
      "name": "bitAdded",
      "type": "event"
    },
    {
      "anonymous": false,
      "inputs": [
        {
          "indexed": true,
          "name": "attester",
          "type": "address"
        },
        {
          "indexed": false,
          "name": "bit",
          "type": "uint8"
        }
      ],
      "name": "bitOverwritten",
      "type": "event"
    },
    {
      "anonymous": false,
      "inputs": [
        {
          "indexed": true,
          "name": "attester",
          "type": "address"
        },
        {
          "indexed": false,
          "name": "bitPosition",
          "type": "uint256"
        }
      ],
      "name": "trustedPersonBitAttested",
      "type": "event"
    },
    {
      "anonymous": false,
      "inputs": [
        {
          "indexed": true,
          "name": "attester",
          "type": "address"
        },
        {
          "indexed": false,
          "name": "bitPosition",
          "type": "uint256"
        }
      ],
      "name": "coopMemberBitAttested",
      "type": "event"
    },
    {
      "anonymous": false,
      "inputs": [
        {
          "indexed": true,
          "name": "trustedPersonAddress",
          "type": "address"
        },
        {
          "indexed": false,
          "name": "trustedPersonName",
          "type": "string"
        }
      ],
      "name": "trustedPersonAdded",
      "type": "event"
    },
    {
      "anonymous": false,
      "inputs": [
        {
          "indexed": true,
          "name": "coopMemberAddress",
          "type": "address"
        }
      ],
      "name": "coopMemberAdded",
      "type": "event"
    },
    {
      "anonymous": false,
      "inputs": [
        {
          "indexed": true,
          "name": "trustedPersonAddress",
          "type": "address"
        }
      ],
      "name": "trustedPersonRemoved",
      "type": "event"
    },
    {
      "anonymous": false,
      "inputs": [
        {
          "indexed": true,
          "name": "coopMemberAddress",
          "type": "address"
        }
      ],
      "name": "coopMemberRemoved",
      "type": "event"
    },
    {
      "anonymous": false,
      "inputs": [],
      "name": "Pause",
      "type": "event"
    },
    {
      "anonymous": false,
      "inputs": [],
      "name": "Unpause",
      "type": "event"
    },
    {
      "anonymous": false,
      "inputs": [
        {
          "indexed": true,
          "name": "previousOwner",
          "type": "address"
        },
        {
          "indexed": true,
          "name": "newOwner",
          "type": "address"
        }
      ],
      "name": "OwnershipTransferred",
      "type": "event"
    },
    {
      "constant": false,
      "inputs": [
        {
          "name": "_bit",
          "type": "uint8"
        }
      ],
      "name": "setBlockheightBit",
      "outputs": [],
      "payable": false,
      "stateMutability": "nonpayable",
      "type": "function"
    },
    {
      "constant": false,
      "inputs": [
        {
          "name": "_bitPosition",
          "type": "uint256"
        },
        {
          "name": "_bit",
          "type": "uint8"
        }
      ],
      "name": "attestBit",
      "outputs": [],
      "payable": false,
      "stateMutability": "nonpayable",
      "type": "function"
    },
    {
      "constant": false,
      "inputs": [
        {
          "name": "_newBit",
          "type": "uint8"
        }
      ],
      "name": "overwriteBit",
      "outputs": [],
      "payable": false,
      "stateMutability": "nonpayable",
      "type": "function"
    }
  ],
  "bytecode": "0x606060405260008060146101000a81548160ff021916908315150217905550336000806101000a81548173ffffffffffffffffffffffffffffffffffffffff021916908373ffffffffffffffffffffffffffffffffffffffff160217905550611d448061006d6000396000f30060606040526004361061011d576000357c0100000000000000000000000000000000000000000000000000000000900463ffffffff16806302805ad6146101225780631517edd51461014b57806325c8e2961461016e5780633f4ba83a146101ea5780634576a690146101ff5780634c8c3dcc146102255780634faa90f21461025457806350326e2d146103065780635c975abb146103435780637fb03161146103705780638456cb59146103935780638474ecf9146103a857806388302950146104025780638da5cb5b1461043b5780639cb5e86d14610490578063a54e70eb146104e1578063ba79a0c114610544578063cbc639d9146105a7578063eabc2d35146105e2578063f2fde38b14610608578063fa014a0914610641575b600080fd5b341561012d57600080fd5b61013561069b565b6040518082815260200191505060405180910390f35b341561015657600080fd5b61016c60048080359060200190919050506106a1565b005b341561017957600080fd5b6101e8600480803573ffffffffffffffffffffffffffffffffffffffff1690602001909190803590602001908201803590602001908080601f01602080910402602001604051908101604052809392919081815260200183838082843782019150505050505091905050610890565b005b34156101f557600080fd5b6101fd610b9a565b005b341561020a57600080fd5b610223600480803560ff16906020019091905050610c58565b005b341561023057600080fd5b610252600480803590602001909190803560ff16906020019091905050610deb565b005b341561025f57600080fd5b61028b600480803573ffffffffffffffffffffffffffffffffffffffff16906020019091905050611266565b6040518080602001828103825283818151815260200191508051906020019080838360005b838110156102cb5780820151818401526020810190506102b0565b50505050905090810190601f1680156102f85780820380516001836020036101000a031916815260200191505b509250505060405180910390f35b341561031157600080fd5b6103276004808035906020019091905050611316565b604051808260ff1660ff16815260200191505060405180910390f35b341561034e57600080fd5b61035661133f565b604051808215151515815260200191505060405180910390f35b341561037b57600080fd5b6103916004808035906020019091905050611352565b005b341561039e57600080fd5b6103a6611535565b005b34156103b357600080fd5b6103e8600480803590602001909190803573ffffffffffffffffffffffffffffffffffffffff169060200190919050506115f5565b604051808215151515815260200191505060405180910390f35b341561040d57600080fd5b610439600480803573ffffffffffffffffffffffffffffffffffffffff16906020019091905050611624565b005b341561044657600080fd5b61044e6118a4565b604051808273ffffffffffffffffffffffffffffffffffffffff1673ffffffffffffffffffffffffffffffffffffffff16815260200191505060405180910390f35b341561049b57600080fd5b6104c7600480803573ffffffffffffffffffffffffffffffffffffffff169060200190919050506118c9565b604051808215151515815260200191505060405180910390f35b34156104ec57600080fd5b61050260048080359060200190919050506118e9565b604051808273ffffffffffffffffffffffffffffffffffffffff1673ffffffffffffffffffffffffffffffffffffffff16815260200191505060405180910390f35b341561054f57600080fd5b6105656004808035906020019091905050611928565b604051808273ffffffffffffffffffffffffffffffffffffffff1673ffffffffffffffffffffffffffffffffffffffff16815260200191505060405180910390f35b34156105b257600080fd5b6105c86004808035906020019091905050611967565b604051808215151515815260200191505060405180910390f35b34156105ed57600080fd5b610606600480803560ff16906020019091905050611987565b005b341561061357600080fd5b61063f600480803573ffffffffffffffffffffffffffffffffffffffff16906020019091905050611ac3565b005b341561064c57600080fd5b610681600480803590602001909190803573ffffffffffffffffffffffffffffffffffffffff16906020019091905050611c18565b604051808215151515815260200191505060405180910390f35b60055481565b6000809054906101000a900473ffffffffffffffffffffffffffffffffffffffff1673ffffffffffffffffffffffffffffffffffffffff163373ffffffffffffffffffffffffffffffffffffffff161415156106fc57600080fd5b600060149054906101000a900460ff1615151561071857600080fd5b60018181548110151561072757fe5b906000526020600020900160009054906101000a900473ffffffffffffffffffffffffffffffffffffffff1673ffffffffffffffffffffffffffffffffffffffff167fcb8719a25272f2ee99327b2f21948f429ce7c2598b83df02bf3dcbd50973184860405160405180910390a26020604051908101604052806000815250600360006001848154811015156107b957fe5b906000526020600020900160009054906101000a900473ffffffffffffffffffffffffffffffffffffffff1673ffffffffffffffffffffffffffffffffffffffff1673ffffffffffffffffffffffffffffffffffffffff1681526020019081526020016000209080519060200190610832929190611c47565b50600060018281548110151561084457fe5b906000526020600020900160006101000a81548173ffffffffffffffffffffffffffffffffffffffff021916908373ffffffffffffffffffffffffffffffffffffffff16021790555050565b6000809054906101000a900473ffffffffffffffffffffffffffffffffffffffff1673ffffffffffffffffffffffffffffffffffffffff163373ffffffffffffffffffffffffffffffffffffffff161415156108eb57600080fd5b600060149054906101000a900460ff1615151561090757600080fd5b600073ffffffffffffffffffffffffffffffffffffffff168273ffffffffffffffffffffffffffffffffffffffff161415151561094357600080fd5b604051806000019050604051809103902060001916816040518082805190602001908083835b60208310151561098e5780518252602082019150602081019050602083039250610969565b6001836020036101000a038019825116818451168082178552505050505050905001915050604051809103902060001916141515156109cc57600080fd5b60011515600460008473ffffffffffffffffffffffffffffffffffffffff1673ffffffffffffffffffffffffffffffffffffffff16815260200190815260200160002060009054906101000a900460ff16151514151515610a2c57600080fd5b60018054806001018281610a409190611cc7565b9160005260206000209001600084909190916101000a81548173ffffffffffffffffffffffffffffffffffffffff021916908373ffffffffffffffffffffffffffffffffffffffff1602179055505080600360008473ffffffffffffffffffffffffffffffffffffffff1673ffffffffffffffffffffffffffffffffffffffff1681526020019081526020016000209080519060200190610ae2929190611c47565b508173ffffffffffffffffffffffffffffffffffffffff167f994fcd81e06a67d54cc70b83ec1ef52a4bfb94468e30e1bcca557453a9e3fd6e826040518080602001828103825283818151815260200191508051906020019080838360005b83811015610b5c578082015181840152602081019050610b41565b50505050905090810190601f168015610b895780820380516001836020036101000a031916815260200191505b509250505060405180910390a25050565b6000809054906101000a900473ffffffffffffffffffffffffffffffffffffffff1673ffffffffffffffffffffffffffffffffffffffff163373ffffffffffffffffffffffffffffffffffffffff16141515610bf557600080fd5b600060149054906101000a900460ff161515610c1057600080fd5b60008060146101000a81548160ff0219169083151502179055507f7805862f689e2f13df9f062ff482ad3ad112aca9e0847911ed832e158c525b3360405160405180910390a1565b600060149054906101000a900460ff16151515610c7457600080fd5b6000809054906101000a900473ffffffffffffffffffffffffffffffffffffffff1673ffffffffffffffffffffffffffffffffffffffff163373ffffffffffffffffffffffffffffffffffffffff16141515610ccf57600080fd5b60018160ff161480610ce4575060008160ff16145b1515610cef57600080fd5b8060ff166006600160055403601881101515610d0757fe5b602091828204019190069054906101000a900460ff1660ff1614151515610d2d57600080fd5b60086000600160055403815260200190815260200160002060009054906101000a900460ff16151515610d5f57600080fd5b806006600160055403601881101515610d7457fe5b602091828204019190066101000a81548160ff021916908360ff1602179055503373ffffffffffffffffffffffffffffffffffffffff167f2e9a80859673bfbf206aa9f64e4d66e3369fbcfdb3f9472905ee1485097d9c0f82604051808260ff1660ff16815260200191505060405180910390a250565b600060149054906101000a900460ff16151515610e0757600080fd5b600460003373ffffffffffffffffffffffffffffffffffffffff1673ffffffffffffffffffffffffffffffffffffffff16815260200190815260200160002060009054906101000a900460ff1680610f1d5750604051806000019050604051809103902060001916600360003373ffffffffffffffffffffffffffffffffffffffff1673ffffffffffffffffffffffffffffffffffffffff1681526020019081526020016000206040518082805460018160011615610100020316600290048015610f095780601f10610ee7576101008083540402835291820191610f09565b820191906000526020600020905b815481529060010190602001808311610ef5575b505091505060405180910390206000191614155b1515610f2857600080fd5b60055482101515610f3857600080fd5b8060ff16600683601881101515610f4b57fe5b602091828204019190069054906101000a900460ff1660ff16141515610f7057600080fd5b600460003373ffffffffffffffffffffffffffffffffffffffff1673ffffffffffffffffffffffffffffffffffffffff16815260200190815260200160002060009054906101000a900460ff1615611114576008600083815260200190815260200160002060009054906101000a900460ff161515610fee57600080fd5b6009600083815260200190815260200160002060003373ffffffffffffffffffffffffffffffffffffffff1673ffffffffffffffffffffffffffffffffffffffff16815260200190815260200160002060009054906101000a900460ff1615151561105857600080fd5b60016009600084815260200190815260200160002060003373ffffffffffffffffffffffffffffffffffffffff1673ffffffffffffffffffffffffffffffffffffffff16815260200190815260200160002060006101000a81548160ff0219169083151502179055503373ffffffffffffffffffffffffffffffffffffffff167fa58160fd735e420c4ebd89eb0930c6e0d81889abbd8f26495b50014fc617d5bb836040518082815260200191505060405180910390a2611262565b6007600083815260200190815260200160002060003373ffffffffffffffffffffffffffffffffffffffff1673ffffffffffffffffffffffffffffffffffffffff16815260200190815260200160002060009054906101000a900460ff1615151561117e57600080fd5b60016007600084815260200190815260200160002060003373ffffffffffffffffffffffffffffffffffffffff1673ffffffffffffffffffffffffffffffffffffffff16815260200190815260200160002060006101000a81548160ff02191690831515021790555060016008600084815260200190815260200160002060006101000a81548160ff0219169083151502179055503373ffffffffffffffffffffffffffffffffffffffff167f51b11b49dff9f0e5b2958816e7b861075dd35e6fa78a50999dff40afe7dfff78836040518082815260200191505060405180910390a25b5050565b60036020528060005260406000206000915090508054600181600116156101000203166002900480601f01602080910402602001604051908101604052809291908181526020018280546001816001161561010002031660029004801561130e5780601f106112e35761010080835404028352916020019161130e565b820191906000526020600020905b8154815290600101906020018083116112f157829003601f168201915b505050505081565b60068160188110151561132557fe5b60209182820401919006915054906101000a900460ff1681565b600060149054906101000a900460ff1681565b6000809054906101000a900473ffffffffffffffffffffffffffffffffffffffff1673ffffffffffffffffffffffffffffffffffffffff163373ffffffffffffffffffffffffffffffffffffffff161415156113ad57600080fd5b600060149054906101000a900460ff161515156113c957600080fd5b6002818154811015156113d857fe5b906000526020600020900160009054906101000a900473ffffffffffffffffffffffffffffffffffffffff1673ffffffffffffffffffffffffffffffffffffffff167f764b36a5c18af7648d4e7a3dd313368b60e17861165af584c1355520c8cf762360405160405180910390a260006004600060028481548110151561145b57fe5b906000526020600020900160009054906101000a900473ffffffffffffffffffffffffffffffffffffffff1673ffffffffffffffffffffffffffffffffffffffff1673ffffffffffffffffffffffffffffffffffffffff16815260200190815260200160002060006101000a81548160ff02191690831515021790555060006002828154811015156114e957fe5b906000526020600020900160006101000a81548173ffffffffffffffffffffffffffffffffffffffff021916908373ffffffffffffffffffffffffffffffffffffffff16021790555050565b6000809054906101000a900473ffffffffffffffffffffffffffffffffffffffff1673ffffffffffffffffffffffffffffffffffffffff163373ffffffffffffffffffffffffffffffffffffffff1614151561159057600080fd5b600060149054906101000a900460ff161515156115ac57600080fd5b6001600060146101000a81548160ff0219169083151502179055507f6985a02210a168e66602d3235cb6db0e70f92b3ba4d376a33c0f3d9434bff62560405160405180910390a1565b60096020528160005260406000206020528060005260406000206000915091509054906101000a900460ff1681565b6000809054906101000a900473ffffffffffffffffffffffffffffffffffffffff1673ffffffffffffffffffffffffffffffffffffffff163373ffffffffffffffffffffffffffffffffffffffff1614151561167f57600080fd5b600060149054906101000a900460ff1615151561169b57600080fd5b600073ffffffffffffffffffffffffffffffffffffffff168173ffffffffffffffffffffffffffffffffffffffff16141515156116d757600080fd5b604051806000019050604051809103902060001916600360008373ffffffffffffffffffffffffffffffffffffffff1673ffffffffffffffffffffffffffffffffffffffff16815260200190815260200160002060405180828054600181600116156101000203166002900480156117865780601f10611764576101008083540402835291820191611786565b820191906000526020600020905b815481529060010190602001808311611772575b50509150506040518091039020600019161415156117a357600080fd5b600280548060010182816117b79190611cc7565b9160005260206000209001600083909190916101000a81548173ffffffffffffffffffffffffffffffffffffffff021916908373ffffffffffffffffffffffffffffffffffffffff160217905550506001600460008373ffffffffffffffffffffffffffffffffffffffff1673ffffffffffffffffffffffffffffffffffffffff16815260200190815260200160002060006101000a81548160ff0219169083151502179055508073ffffffffffffffffffffffffffffffffffffffff167f9a58e51f568916de7d2e95b6cecc840ff08be4fabe82882a8e307d7815ca2b0660405160405180910390a250565b6000809054906101000a900473ffffffffffffffffffffffffffffffffffffffff1681565b60046020528060005260406000206000915054906101000a900460ff1681565b6002818154811015156118f857fe5b90600052602060002090016000915054906101000a900473ffffffffffffffffffffffffffffffffffffffff1681565b60018181548110151561193757fe5b90600052602060002090016000915054906101000a900473ffffffffffffffffffffffffffffffffffffffff1681565b60086020528060005260406000206000915054906101000a900460ff1681565b600060149054906101000a900460ff161515156119a357600080fd5b6000809054906101000a900473ffffffffffffffffffffffffffffffffffffffff1673ffffffffffffffffffffffffffffffffffffffff163373ffffffffffffffffffffffffffffffffffffffff161415156119fe57600080fd5b60018160ff161480611a13575060008160ff16145b1515611a1e57600080fd5b806006600554601881101515611a3057fe5b602091828204019190066101000a81548160ff021916908360ff1602179055506005600081548092919060010191905055503373ffffffffffffffffffffffffffffffffffffffff167fa241cb71648f06a64ff6a536e91aee122e92477b9c771b1c10bed8b56a88c35482600554604051808360ff1660ff1681526020018281526020019250505060405180910390a250565b6000809054906101000a900473ffffffffffffffffffffffffffffffffffffffff1673ffffffffffffffffffffffffffffffffffffffff163373ffffffffffffffffffffffffffffffffffffffff16141515611b1e57600080fd5b600073ffffffffffffffffffffffffffffffffffffffff168173ffffffffffffffffffffffffffffffffffffffff1614151515611b5a57600080fd5b8073ffffffffffffffffffffffffffffffffffffffff166000809054906101000a900473ffffffffffffffffffffffffffffffffffffffff1673ffffffffffffffffffffffffffffffffffffffff167f8be0079c531659141344cd1fd0a4f28419497f9722a3daafe3b4186f6b6457e060405160405180910390a3806000806101000a81548173ffffffffffffffffffffffffffffffffffffffff021916908373ffffffffffffffffffffffffffffffffffffffff16021790555050565b60076020528160005260406000206020528060005260406000206000915091509054906101000a900460ff1681565b828054600181600116156101000203166002900490600052602060002090601f016020900481019282601f10611c8857805160ff1916838001178555611cb6565b82800160010185558215611cb6579182015b82811115611cb5578251825591602001919060010190611c9a565b5b509050611cc39190611cf3565b5090565b815481835581811511611cee57818360005260206000209182019101611ced9190611cf3565b5b505050565b611d1591905b80821115611d11576000816000905550600101611cf9565b5090565b905600a165627a7a72305820db25112068b6949735efc9245a3fe43db535a03072c01a16cff475c3cef3e0650029",
  "source": "pragma solidity ^0.4.21; \nimport \"./Rchain.sol\";\n\n/**\n* @title Genesis\n* @dev The Genesis contract is an Rchain contract which imports Rchain (that imports Ownable and Pausable).\n* The aim of this contract is to benefit from the transparacy and immutability of Ethereum with regards to the \n* publication of the bits which combined will form the blockheight at which the Genesis balances of Rchain will be defined.\n* The owner of the contract can publish the bits, after which trusted persons and coop members can attest on its correctness.\n*/\ncontract Genesis is Rchain{\n    event bitAdded(address indexed attester, uint8 bit, uint bitPosition);\n    event bitOverwritten(address indexed attester, uint8 bit);\n    event trustedPersonBitAttested(address indexed attester, uint bitPosition);\n    event coopMemberBitAttested(address indexed attester, uint bitPosition);\n    \n    // keeps track of the amount of bits published\n    uint public bitPosition;\n    \n    // Fixed size (24 positions) array to keep track of all published bits.\n    // 24 bit unsigned int can represent [0- 16,777,215]. Projected blockheight at 31 dec 2018 is 6,360250 \n    // == 5,485,368 (current blockheight)+ 2185900(seconds at 22/4/18 till 31/12/18) / 25(average blocktime in seconds)\n    uint8[24] public blockheightBits;\n    \n    // maps the bitposition to an array of trusted attesters (pyrofex/coop board members) who attested on the correctness of the bit at that position\n    mapping(uint => mapping(address => bool)) public trustedAttesters;\n    \n    mapping(uint => bool) public hasFirstAttester;\n    \n    // maps the bitposition to an array of member attesters who attested on the correctness of the bit at that position\n    mapping(uint => mapping(address => bool)) public memberAttesters;\n    \n    /**\n    * @dev this function sets the next bit in the blockHeightBits array. The first attester is the msg.sender (owner of the contract)\n    * CAUTION! Once published, a bit cannot be reverted anymore\n    * @param _bit is the next bit to be stored in the blockheightBits array\n    */\n    function setBlockheightBit(uint8 _bit) whenNotPaused onlyOwner public {\n        require((_bit ==  1) || (_bit == 0));\n        blockheightBits[bitPosition] = _bit;\n        bitPosition ++;\n        emit bitAdded(msg.sender, _bit, bitPosition);\n    }\n    \n    /**\n    * @dev this function allows trusted persons or coop members to attest on the correctness of a published bit. \n    * Attestation is done to improve reliability of the information in the contract.\n    * A distinction between coop members and trusted persons is made since trusted persons are \n    * expected to have heard about the correctness of a bit from a primary source, whereas coop members most likely have heard \n    * about the correctness via a (possibly hijacked) communication channel.\n    * @param _bitPosition is the position of the to-be attested bit \n    * @param _bit is the expected bit at the blockheightBits[_bitPosition]\n    */\n    function attestBit(uint _bitPosition, uint8 _bit) whenNotPaused onlyTrustedOrCoop public {\n        require(_bitPosition < bitPosition); \n        require(blockheightBits[_bitPosition] == _bit);\n\n        if(coopMembers[msg.sender]) {\n            require(hasFirstAttester[_bitPosition]);\n            require(!memberAttesters[_bitPosition][msg.sender]);\n            memberAttesters[_bitPosition][msg.sender] = true;\n            emit coopMemberBitAttested(msg.sender, _bitPosition);\n        } else {\n            require(!trustedAttesters[_bitPosition][msg.sender]);\n            trustedAttesters[_bitPosition][msg.sender] = true;\n            hasFirstAttester[_bitPosition] = true;\n            emit trustedPersonBitAttested(msg.sender, _bitPosition);\n        }\n    }\n    \n    /**\n    * @dev this function allows the last published bit to be overwritten (in case there is a mistake) if and only if there are no trusted attesters yet.\n    * @param _newBit is the new value of the last published _bit.\n    */\n    function overwriteBit(uint8 _newBit) whenNotPaused onlyOwner public {\n        require((_newBit ==  1) || (_newBit == 0));\n        require(blockheightBits[bitPosition-1] != _newBit);\n        require(!hasFirstAttester[bitPosition-1]);\n        blockheightBits[bitPosition-1] = _newBit;\n        emit bitOverwritten(msg.sender, _newBit);\n    }\n}",
  "sourcePath": "/home/rinke/DAPPS/Rchain/contracts/Genesis.sol",
  "compiler": {
    "name": "solc",
    "version": "0.4.21+commit.dfe3193c.Emscripten.clang"
  },
  "schemaVersion": "2.0.0",
  "updatedAt": "2018-04-24T07:56:54.905Z"
}