{
  "contractName": "Genesis",
  "abi": [
    {
      "constant": true,
      "inputs": [],
      "name": "bitPosition",
      "outputs": [
        {
          "name": "",
          "type": "uint256"
        }
      ],
      "payable": false,
      "stateMutability": "view",
      "type": "function"
    },
    {
      "constant": false,
      "inputs": [
        {
          "name": "_addressTrustedPerson",
          "type": "address"
        },
        {
          "name": "_nameTrustedPerson",
          "type": "string"
        }
      ],
      "name": "setTrustedPerson",
      "outputs": [],
      "payable": false,
      "stateMutability": "nonpayable",
      "type": "function"
    },
    {
      "constant": false,
      "inputs": [],
      "name": "unpause",
      "outputs": [],
      "payable": false,
      "stateMutability": "nonpayable",
      "type": "function"
    },
    {
      "constant": true,
      "inputs": [
        {
          "name": "",
          "type": "address"
        }
      ],
      "name": "trustedPersons",
      "outputs": [
        {
          "name": "",
          "type": "string"
        }
      ],
      "payable": false,
      "stateMutability": "view",
      "type": "function"
    },
    {
      "constant": true,
      "inputs": [
        {
          "name": "",
          "type": "uint256"
        }
      ],
      "name": "blockheightBits",
      "outputs": [
        {
          "name": "",
          "type": "uint8"
        }
      ],
      "payable": false,
      "stateMutability": "view",
      "type": "function"
    },
    {
      "constant": true,
      "inputs": [],
      "name": "paused",
      "outputs": [
        {
          "name": "",
          "type": "bool"
        }
      ],
      "payable": false,
      "stateMutability": "view",
      "type": "function"
    },
    {
      "constant": false,
      "inputs": [
        {
          "name": "_coopMembersListPosition",
          "type": "uint256"
        }
      ],
      "name": "removeCoopMember",
      "outputs": [],
      "payable": false,
      "stateMutability": "nonpayable",
      "type": "function"
    },
    {
      "constant": false,
      "inputs": [],
      "name": "pause",
      "outputs": [],
      "payable": false,
      "stateMutability": "nonpayable",
      "type": "function"
    },
    {
      "constant": false,
      "inputs": [
        {
          "name": "_trustedPersonsListPosition",
          "type": "uint256"
        }
      ],
      "name": "removeTrustedPeron",
      "outputs": [],
      "payable": false,
      "stateMutability": "nonpayable",
      "type": "function"
    },
    {
      "constant": false,
      "inputs": [
        {
          "name": "_addressCoopMember",
          "type": "address"
        }
      ],
      "name": "setCoopMember",
      "outputs": [],
      "payable": false,
      "stateMutability": "nonpayable",
      "type": "function"
    },
    {
      "constant": true,
      "inputs": [],
      "name": "owner",
      "outputs": [
        {
          "name": "",
          "type": "address"
        }
      ],
      "payable": false,
      "stateMutability": "view",
      "type": "function"
    },
    {
      "constant": true,
      "inputs": [
        {
          "name": "",
          "type": "address"
        }
      ],
      "name": "coopMembers",
      "outputs": [
        {
          "name": "",
          "type": "bool"
        }
      ],
      "payable": false,
      "stateMutability": "view",
      "type": "function"
    },
    {
      "constant": true,
      "inputs": [
        {
          "name": "",
          "type": "uint256"
        }
      ],
      "name": "coopMembersList",
      "outputs": [
        {
          "name": "",
          "type": "address"
        }
      ],
      "payable": false,
      "stateMutability": "view",
      "type": "function"
    },
    {
      "constant": true,
      "inputs": [
        {
          "name": "",
          "type": "uint256"
        }
      ],
      "name": "trustedPersonsList",
      "outputs": [
        {
          "name": "",
          "type": "address"
        }
      ],
      "payable": false,
      "stateMutability": "view",
      "type": "function"
    },
    {
      "constant": true,
      "inputs": [
        {
          "name": "",
          "type": "uint256"
        },
        {
          "name": "",
          "type": "uint256"
        }
      ],
      "name": "trustedAttesters",
      "outputs": [
        {
          "name": "",
          "type": "address"
        }
      ],
      "payable": false,
      "stateMutability": "view",
      "type": "function"
    },
    {
      "constant": false,
      "inputs": [
        {
          "name": "newOwner",
          "type": "address"
        }
      ],
      "name": "transferOwnership",
      "outputs": [],
      "payable": false,
      "stateMutability": "nonpayable",
      "type": "function"
    },
    {
      "constant": true,
      "inputs": [
        {
          "name": "",
          "type": "uint256"
        },
        {
          "name": "",
          "type": "uint256"
        }
      ],
      "name": "memberAttesters",
      "outputs": [
        {
          "name": "",
          "type": "address"
        }
      ],
      "payable": false,
      "stateMutability": "view",
      "type": "function"
    },
    {
      "anonymous": false,
      "inputs": [
        {
          "indexed": true,
          "name": "attester",
          "type": "address"
        },
        {
          "indexed": false,
          "name": "bit",
          "type": "uint8"
        },
        {
          "indexed": false,
          "name": "bitPosition",
          "type": "uint256"
        }
      ],
      "name": "bitAdded",
      "type": "event"
    },
    {
      "anonymous": false,
      "inputs": [
        {
          "indexed": true,
          "name": "attester",
          "type": "address"
        },
        {
          "indexed": false,
          "name": "bit",
          "type": "uint8"
        }
      ],
      "name": "bitOverwritten",
      "type": "event"
    },
    {
      "anonymous": false,
      "inputs": [
        {
          "indexed": true,
          "name": "attester",
          "type": "address"
        },
        {
          "indexed": false,
          "name": "bitPosition",
          "type": "uint256"
        }
      ],
      "name": "trustedPersonBitAttested",
      "type": "event"
    },
    {
      "anonymous": false,
      "inputs": [
        {
          "indexed": true,
          "name": "attester",
          "type": "address"
        },
        {
          "indexed": false,
          "name": "bitPosition",
          "type": "uint256"
        }
      ],
      "name": "coopMemberBitAttested",
      "type": "event"
    },
    {
      "anonymous": false,
      "inputs": [
        {
          "indexed": true,
          "name": "trustedPersonAddress",
          "type": "address"
        },
        {
          "indexed": false,
          "name": "trustedPersonName",
          "type": "string"
        }
      ],
      "name": "trustedPersonAdded",
      "type": "event"
    },
    {
      "anonymous": false,
      "inputs": [
        {
          "indexed": true,
          "name": "coopMemberAddress",
          "type": "address"
        }
      ],
      "name": "coopMemberAdded",
      "type": "event"
    },
    {
      "anonymous": false,
      "inputs": [
        {
          "indexed": true,
          "name": "trustedPersonAddress",
          "type": "address"
        }
      ],
      "name": "trustedPersonRemoved",
      "type": "event"
    },
    {
      "anonymous": false,
      "inputs": [
        {
          "indexed": true,
          "name": "coopMemberAddress",
          "type": "address"
        }
      ],
      "name": "coopMemberRemoved",
      "type": "event"
    },
    {
      "anonymous": false,
      "inputs": [],
      "name": "Pause",
      "type": "event"
    },
    {
      "anonymous": false,
      "inputs": [],
      "name": "Unpause",
      "type": "event"
    },
    {
      "anonymous": false,
      "inputs": [
        {
          "indexed": true,
          "name": "previousOwner",
          "type": "address"
        },
        {
          "indexed": true,
          "name": "newOwner",
          "type": "address"
        }
      ],
      "name": "OwnershipTransferred",
      "type": "event"
    },
    {
      "constant": false,
      "inputs": [
        {
          "name": "_bit",
          "type": "uint8"
        }
      ],
      "name": "setBlockheightBit",
      "outputs": [],
      "payable": false,
      "stateMutability": "nonpayable",
      "type": "function"
    },
    {
      "constant": false,
      "inputs": [
        {
          "name": "_bitPosition",
          "type": "uint256"
        },
        {
          "name": "_bit",
          "type": "uint8"
        }
      ],
      "name": "attestBit",
      "outputs": [],
      "payable": false,
      "stateMutability": "nonpayable",
      "type": "function"
    },
    {
      "constant": false,
      "inputs": [
        {
          "name": "_newBit",
          "type": "uint8"
        }
      ],
      "name": "overwriteBit",
      "outputs": [],
      "payable": false,
      "stateMutability": "nonpayable",
      "type": "function"
    }
  ],
  "bytecode": "0x606060405260008060146101000a81548160ff021916908315150217905550336000806101000a81548173ffffffffffffffffffffffffffffffffffffffff021916908373ffffffffffffffffffffffffffffffffffffffff160217905550611ce08061006d6000396000f300606060405260043610610112576000357c0100000000000000000000000000000000000000000000000000000000900463ffffffff16806302805ad61461011757806325c8e296146101405780633f4ba83a146101bc5780634576a690146101d15780634c8c3dcc146101f75780634faa90f21461022657806350326e2d146102d85780635c975abb146103155780637fb03161146103425780638456cb5914610365578063873035a81461037a578063883029501461039d5780638da5cb5b146103d65780639cb5e86d1461042b578063a54e70eb1461047c578063ba79a0c1146104df578063eabc2d3514610542578063ec7df30614610568578063f2fde38b146105d4578063f47027e61461060d575b600080fd5b341561012257600080fd5b61012a610679565b6040518082815260200191505060405180910390f35b341561014b57600080fd5b6101ba600480803573ffffffffffffffffffffffffffffffffffffffff1690602001909190803590602001908201803590602001908080601f0160208091040260200160405190810160405280939291908181526020018383808284378201915050505050509190505061067f565b005b34156101c757600080fd5b6101cf610989565b005b34156101dc57600080fd5b6101f5600480803560ff16906020019091905050610a47565b005b341561020257600080fd5b610224600480803590602001909190803560ff16906020019091905050610c1e565b005b341561023157600080fd5b61025d600480803573ffffffffffffffffffffffffffffffffffffffff16906020019091905050610ff5565b6040518080602001828103825283818151815260200191508051906020019080838360005b8381101561029d578082015181840152602081019050610282565b50505050905090810190601f1680156102ca5780820380516001836020036101000a031916815260200191505b509250505060405180910390f35b34156102e357600080fd5b6102f960048080359060200190919050506110a5565b604051808260ff1660ff16815260200191505060405180910390f35b341561032057600080fd5b6103286110ce565b604051808215151515815260200191505060405180910390f35b341561034d57600080fd5b61036360048080359060200190919050506110e1565b005b341561037057600080fd5b6103786112c4565b005b341561038557600080fd5b61039b6004808035906020019091905050611384565b005b34156103a857600080fd5b6103d4600480803573ffffffffffffffffffffffffffffffffffffffff16906020019091905050611573565b005b34156103e157600080fd5b6103e96117f3565b604051808273ffffffffffffffffffffffffffffffffffffffff1673ffffffffffffffffffffffffffffffffffffffff16815260200191505060405180910390f35b341561043657600080fd5b610462600480803573ffffffffffffffffffffffffffffffffffffffff16906020019091905050611818565b604051808215151515815260200191505060405180910390f35b341561048757600080fd5b61049d6004808035906020019091905050611838565b604051808273ffffffffffffffffffffffffffffffffffffffff1673ffffffffffffffffffffffffffffffffffffffff16815260200191505060405180910390f35b34156104ea57600080fd5b6105006004808035906020019091905050611877565b604051808273ffffffffffffffffffffffffffffffffffffffff1673ffffffffffffffffffffffffffffffffffffffff16815260200191505060405180910390f35b341561054d57600080fd5b610566600480803560ff169060200190919050506118b6565b005b341561057357600080fd5b61059260048080359060200190919080359060200190919050506119f2565b604051808273ffffffffffffffffffffffffffffffffffffffff1673ffffffffffffffffffffffffffffffffffffffff16815260200191505060405180910390f35b34156105df57600080fd5b61060b600480803573ffffffffffffffffffffffffffffffffffffffff16906020019091905050611a40565b005b341561061857600080fd5b6106376004808035906020019091908035906020019091905050611b95565b604051808273ffffffffffffffffffffffffffffffffffffffff1673ffffffffffffffffffffffffffffffffffffffff16815260200191505060405180910390f35b60055481565b6000809054906101000a900473ffffffffffffffffffffffffffffffffffffffff1673ffffffffffffffffffffffffffffffffffffffff163373ffffffffffffffffffffffffffffffffffffffff161415156106da57600080fd5b600060149054906101000a900460ff161515156106f657600080fd5b600073ffffffffffffffffffffffffffffffffffffffff168273ffffffffffffffffffffffffffffffffffffffff161415151561073257600080fd5b604051806000019050604051809103902060001916816040518082805190602001908083835b60208310151561077d5780518252602082019150602081019050602083039250610758565b6001836020036101000a038019825116818451168082178552505050505050905001915050604051809103902060001916141515156107bb57600080fd5b60011515600460008473ffffffffffffffffffffffffffffffffffffffff1673ffffffffffffffffffffffffffffffffffffffff16815260200190815260200160002060009054906101000a900460ff1615151415151561081b57600080fd5b6001805480600101828161082f9190611be3565b9160005260206000209001600084909190916101000a81548173ffffffffffffffffffffffffffffffffffffffff021916908373ffffffffffffffffffffffffffffffffffffffff1602179055505080600360008473ffffffffffffffffffffffffffffffffffffffff1673ffffffffffffffffffffffffffffffffffffffff16815260200190815260200160002090805190602001906108d1929190611c0f565b508173ffffffffffffffffffffffffffffffffffffffff167f994fcd81e06a67d54cc70b83ec1ef52a4bfb94468e30e1bcca557453a9e3fd6e826040518080602001828103825283818151815260200191508051906020019080838360005b8381101561094b578082015181840152602081019050610930565b50505050905090810190601f1680156109785780820380516001836020036101000a031916815260200191505b509250505060405180910390a25050565b6000809054906101000a900473ffffffffffffffffffffffffffffffffffffffff1673ffffffffffffffffffffffffffffffffffffffff163373ffffffffffffffffffffffffffffffffffffffff161415156109e457600080fd5b600060149054906101000a900460ff1615156109ff57600080fd5b60008060146101000a81548160ff0219169083151502179055507f7805862f689e2f13df9f062ff482ad3ad112aca9e0847911ed832e158c525b3360405160405180910390a1565b600060149054906101000a900460ff16151515610a6357600080fd5b6000809054906101000a900473ffffffffffffffffffffffffffffffffffffffff1673ffffffffffffffffffffffffffffffffffffffff163373ffffffffffffffffffffffffffffffffffffffff16141515610abe57600080fd5b60018160ff161480610ad3575060008160ff16145b1515610ade57600080fd5b8060ff166006600160055403601881101515610af657fe5b602091828204019190069054906101000a900460ff1660ff1614151515610b1c57600080fd5b60006007600060016005540381526020019081526020016000206000815481101515610b4457fe5b906000526020600020900160009054906101000a900473ffffffffffffffffffffffffffffffffffffffff1673ffffffffffffffffffffffffffffffffffffffff16141515610b9257600080fd5b806006600160055403601881101515610ba757fe5b602091828204019190066101000a81548160ff021916908360ff1602179055503373ffffffffffffffffffffffffffffffffffffffff167f2e9a80859673bfbf206aa9f64e4d66e3369fbcfdb3f9472905ee1485097d9c0f82604051808260ff1660ff16815260200191505060405180910390a250565b600060149054906101000a900460ff16151515610c3a57600080fd5b600460003373ffffffffffffffffffffffffffffffffffffffff1673ffffffffffffffffffffffffffffffffffffffff16815260200190815260200160002060009054906101000a900460ff1680610d505750604051806000019050604051809103902060001916600360003373ffffffffffffffffffffffffffffffffffffffff1673ffffffffffffffffffffffffffffffffffffffff1681526020019081526020016000206040518082805460018160011615610100020316600290048015610d3c5780601f10610d1a576101008083540402835291820191610d3c565b820191906000526020600020905b815481529060010190602001808311610d28575b505091505060405180910390206000191614155b1515610d5b57600080fd5b60055482101515610d6b57600080fd5b8060ff16600683601881101515610d7e57fe5b602091828204019190069054906101000a900460ff1660ff16141515610da357600080fd5b600460003373ffffffffffffffffffffffffffffffffffffffff1673ffffffffffffffffffffffffffffffffffffffff16815260200190815260200160002060009054906101000a900460ff1615610f2e576000600760008481526020019081526020016000206000815481101515610e1857fe5b906000526020600020900160009054906101000a900473ffffffffffffffffffffffffffffffffffffffff1673ffffffffffffffffffffffffffffffffffffffff1614151515610e6757600080fd5b600860008381526020019081526020016000208054806001018281610e8c9190611be3565b9160005260206000209001600033909190916101000a81548173ffffffffffffffffffffffffffffffffffffffff021916908373ffffffffffffffffffffffffffffffffffffffff160217905550503373ffffffffffffffffffffffffffffffffffffffff167fa58160fd735e420c4ebd89eb0930c6e0d81889abbd8f26495b50014fc617d5bb836040518082815260200191505060405180910390a2610ff1565b600760008381526020019081526020016000208054806001018281610f539190611be3565b9160005260206000209001600033909190916101000a81548173ffffffffffffffffffffffffffffffffffffffff021916908373ffffffffffffffffffffffffffffffffffffffff160217905550503373ffffffffffffffffffffffffffffffffffffffff167f51b11b49dff9f0e5b2958816e7b861075dd35e6fa78a50999dff40afe7dfff78836040518082815260200191505060405180910390a25b5050565b60036020528060005260406000206000915090508054600181600116156101000203166002900480601f01602080910402602001604051908101604052809291908181526020018280546001816001161561010002031660029004801561109d5780601f106110725761010080835404028352916020019161109d565b820191906000526020600020905b81548152906001019060200180831161108057829003601f168201915b505050505081565b6006816018811015156110b457fe5b60209182820401919006915054906101000a900460ff1681565b600060149054906101000a900460ff1681565b6000809054906101000a900473ffffffffffffffffffffffffffffffffffffffff1673ffffffffffffffffffffffffffffffffffffffff163373ffffffffffffffffffffffffffffffffffffffff1614151561113c57600080fd5b600060149054906101000a900460ff1615151561115857600080fd5b60028181548110151561116757fe5b906000526020600020900160009054906101000a900473ffffffffffffffffffffffffffffffffffffffff1673ffffffffffffffffffffffffffffffffffffffff167f764b36a5c18af7648d4e7a3dd313368b60e17861165af584c1355520c8cf762360405160405180910390a26000600460006002848154811015156111ea57fe5b906000526020600020900160009054906101000a900473ffffffffffffffffffffffffffffffffffffffff1673ffffffffffffffffffffffffffffffffffffffff1673ffffffffffffffffffffffffffffffffffffffff16815260200190815260200160002060006101000a81548160ff021916908315150217905550600060028281548110151561127857fe5b906000526020600020900160006101000a81548173ffffffffffffffffffffffffffffffffffffffff021916908373ffffffffffffffffffffffffffffffffffffffff16021790555050565b6000809054906101000a900473ffffffffffffffffffffffffffffffffffffffff1673ffffffffffffffffffffffffffffffffffffffff163373ffffffffffffffffffffffffffffffffffffffff1614151561131f57600080fd5b600060149054906101000a900460ff1615151561133b57600080fd5b6001600060146101000a81548160ff0219169083151502179055507f6985a02210a168e66602d3235cb6db0e70f92b3ba4d376a33c0f3d9434bff62560405160405180910390a1565b6000809054906101000a900473ffffffffffffffffffffffffffffffffffffffff1673ffffffffffffffffffffffffffffffffffffffff163373ffffffffffffffffffffffffffffffffffffffff161415156113df57600080fd5b600060149054906101000a900460ff161515156113fb57600080fd5b60018181548110151561140a57fe5b906000526020600020900160009054906101000a900473ffffffffffffffffffffffffffffffffffffffff1673ffffffffffffffffffffffffffffffffffffffff167fcb8719a25272f2ee99327b2f21948f429ce7c2598b83df02bf3dcbd50973184860405160405180910390a260206040519081016040528060008152506003600060018481548110151561149c57fe5b906000526020600020900160009054906101000a900473ffffffffffffffffffffffffffffffffffffffff1673ffffffffffffffffffffffffffffffffffffffff1673ffffffffffffffffffffffffffffffffffffffff1681526020019081526020016000209080519060200190611515929190611c0f565b50600060018281548110151561152757fe5b906000526020600020900160006101000a81548173ffffffffffffffffffffffffffffffffffffffff021916908373ffffffffffffffffffffffffffffffffffffffff16021790555050565b6000809054906101000a900473ffffffffffffffffffffffffffffffffffffffff1673ffffffffffffffffffffffffffffffffffffffff163373ffffffffffffffffffffffffffffffffffffffff161415156115ce57600080fd5b600060149054906101000a900460ff161515156115ea57600080fd5b600073ffffffffffffffffffffffffffffffffffffffff168173ffffffffffffffffffffffffffffffffffffffff161415151561162657600080fd5b604051806000019050604051809103902060001916600360008373ffffffffffffffffffffffffffffffffffffffff1673ffffffffffffffffffffffffffffffffffffffff16815260200190815260200160002060405180828054600181600116156101000203166002900480156116d55780601f106116b35761010080835404028352918201916116d5565b820191906000526020600020905b8154815290600101906020018083116116c1575b50509150506040518091039020600019161415156116f257600080fd5b600280548060010182816117069190611be3565b9160005260206000209001600083909190916101000a81548173ffffffffffffffffffffffffffffffffffffffff021916908373ffffffffffffffffffffffffffffffffffffffff160217905550506001600460008373ffffffffffffffffffffffffffffffffffffffff1673ffffffffffffffffffffffffffffffffffffffff16815260200190815260200160002060006101000a81548160ff0219169083151502179055508073ffffffffffffffffffffffffffffffffffffffff167f9a58e51f568916de7d2e95b6cecc840ff08be4fabe82882a8e307d7815ca2b0660405160405180910390a250565b6000809054906101000a900473ffffffffffffffffffffffffffffffffffffffff1681565b60046020528060005260406000206000915054906101000a900460ff1681565b60028181548110151561184757fe5b90600052602060002090016000915054906101000a900473ffffffffffffffffffffffffffffffffffffffff1681565b60018181548110151561188657fe5b90600052602060002090016000915054906101000a900473ffffffffffffffffffffffffffffffffffffffff1681565b600060149054906101000a900460ff161515156118d257600080fd5b6000809054906101000a900473ffffffffffffffffffffffffffffffffffffffff1673ffffffffffffffffffffffffffffffffffffffff163373ffffffffffffffffffffffffffffffffffffffff1614151561192d57600080fd5b60018160ff161480611942575060008160ff16145b151561194d57600080fd5b80600660055460188110151561195f57fe5b602091828204019190066101000a81548160ff021916908360ff1602179055506005600081548092919060010191905055503373ffffffffffffffffffffffffffffffffffffffff167fa241cb71648f06a64ff6a536e91aee122e92477b9c771b1c10bed8b56a88c35482600554604051808360ff1660ff1681526020018281526020019250505060405180910390a250565b600760205281600052604060002081815481101515611a0d57fe5b90600052602060002090016000915091509054906101000a900473ffffffffffffffffffffffffffffffffffffffff1681565b6000809054906101000a900473ffffffffffffffffffffffffffffffffffffffff1673ffffffffffffffffffffffffffffffffffffffff163373ffffffffffffffffffffffffffffffffffffffff16141515611a9b57600080fd5b600073ffffffffffffffffffffffffffffffffffffffff168173ffffffffffffffffffffffffffffffffffffffff1614151515611ad757600080fd5b8073ffffffffffffffffffffffffffffffffffffffff166000809054906101000a900473ffffffffffffffffffffffffffffffffffffffff1673ffffffffffffffffffffffffffffffffffffffff167f8be0079c531659141344cd1fd0a4f28419497f9722a3daafe3b4186f6b6457e060405160405180910390a3806000806101000a81548173ffffffffffffffffffffffffffffffffffffffff021916908373ffffffffffffffffffffffffffffffffffffffff16021790555050565b600860205281600052604060002081815481101515611bb057fe5b90600052602060002090016000915091509054906101000a900473ffffffffffffffffffffffffffffffffffffffff1681565b815481835581811511611c0a57818360005260206000209182019101611c099190611c8f565b5b505050565b828054600181600116156101000203166002900490600052602060002090601f016020900481019282601f10611c5057805160ff1916838001178555611c7e565b82800160010185558215611c7e579182015b82811115611c7d578251825591602001919060010190611c62565b5b509050611c8b9190611c8f565b5090565b611cb191905b80821115611cad576000816000905550600101611c95565b5090565b905600a165627a7a72305820343d49246a18ad236304f69e9c20ff11b6e683d2beebb7ac7e04fb63ad2aefa10029",
  "source": "pragma solidity ^0.4.21; \nimport \"./Rchain.sol\";\n\n/**\n* @title Genesis\n* @dev The Genesis contract is an Rchain contract which imports Rchain (that imports Ownable and Pausable).\n* The aim of this contract is to benefit from the transparacy and immutability of Ethereum with regards to the \n* publication of the bits which combined will form the blockheight at which the Genesis balances of Rchain will be defined.\n* The owner of the contract can publish the bits, after which trusted persons and coop members can attest on its correctness.\n*/\ncontract Genesis is Rchain{\n    event bitAdded(address indexed attester, uint8 bit, uint bitPosition);\n    event bitOverwritten(address indexed attester, uint8 bit);\n    event trustedPersonBitAttested(address indexed attester, uint bitPosition);\n    event coopMemberBitAttested(address indexed attester, uint bitPosition);\n    \n    // keeps track of the amount of bits published\n    uint public bitPosition;\n    \n    // Fixed size (24 positions) array to keep track of all published bits.\n    // 24 bit unsigned int can represent [0- 16,777,215]. Projected blockheight at 31 dec 2018 is 6,360250 \n    // == 5,485,368 (current blockheight)+ 2185900(seconds at 22/4/18 till 31/12/18) / 25(average blocktime in seconds)\n    uint8[24] public blockheightBits;\n    \n    // maps the bitposition to an array of trusted attesters (pyrofex/coop board members) who attested on the correctness of the bit at that position\n    mapping(uint => address[]) public trustedAttesters;\n    \n    // maps the bitposition to an array of member attesters who attested on the correctness of the bit at that position\n    mapping(uint => address[]) public memberAttesters;\n    \n    /**\n    * @dev this function sets the next bit in the blockHeightBits array. The first attester is the msg.sender (owner of the contract)\n    * CAUTION! Once published, a bit cannot be reverted anymore\n    * @param _bit is the next bit to be stored in the blockheightBits array\n    */\n    function setBlockheightBit(uint8 _bit) whenNotPaused onlyOwner public {\n        require((_bit ==  1) || (_bit == 0));\n        blockheightBits[bitPosition] = _bit;\n        bitPosition ++;\n        emit bitAdded(msg.sender, _bit, bitPosition);\n    }\n    \n    /**\n    * @dev this function allows trusted persons or coop members to attest on the correctness of a published bit. \n    * Attestation is done to improve reliability of the information in the contract.\n    * A distinction between coop members and trusted persons is made since trusted persons are \n    * expected to have heard about the correctness of a bit from a primary source, whereas coop members most likely have heard \n    * about the correctness via a (possibly hijacked) communication channel.\n    * @param _bitPosition is the position of the to-be attested bit \n    * @param _bit is the expected bit at the blockheightBits[_bitPosition]\n    */\n    function attestBit(uint _bitPosition, uint8 _bit) whenNotPaused onlyTrustedOrCoop public {\n        require(_bitPosition < bitPosition); \n        require(blockheightBits[_bitPosition] == _bit);\n\n        if(coopMembers[msg.sender]) {\n            require(trustedAttesters[_bitPosition][0] != 0);\n            memberAttesters[_bitPosition].push(msg.sender);\n            emit coopMemberBitAttested(msg.sender, _bitPosition);\n        } else {\n            trustedAttesters[_bitPosition].push(msg.sender);\n            emit trustedPersonBitAttested(msg.sender, _bitPosition);\n        }\n    }\n    //TODO! make sure that a person cannot attest twice on the correctness of a bit;\n    \n    /**\n    * @dev this function allows the last published bit to be overwritten (in case there is a mistake) if and only if there are no trusted attesters yet.\n    * @param _newBit is the new value of the last published _bit.\n    */\n    function overwriteBit(uint8 _newBit) whenNotPaused onlyOwner public {\n        require((_newBit ==  1) || (_newBit == 0));\n        require(blockheightBits[bitPosition-1] != _newBit);\n        require(trustedAttesters[bitPosition -1][0] == 0);\n        blockheightBits[bitPosition-1] = _newBit;\n        emit bitOverwritten(msg.sender, _newBit);\n    }\n}",
  "sourcePath": "/home/rinke/DAPPS/Rchain/contracts/Genesis.sol",
  "compiler": {
    "name": "solc",
    "version": "0.4.21+commit.dfe3193c.Emscripten.clang"
  },
  "schemaVersion": "2.0.0",
  "updatedAt": "2018-04-23T15:50:20.297Z"
}