{
  "contractName": "Rchain",
  "abi": [
    {
      "constant": false,
      "inputs": [],
      "name": "unpause",
      "outputs": [],
      "payable": false,
      "stateMutability": "nonpayable",
      "type": "function"
    },
    {
      "constant": true,
      "inputs": [
        {
          "name": "",
          "type": "address"
        }
      ],
      "name": "trustedPersons",
      "outputs": [
        {
          "name": "",
          "type": "string"
        }
      ],
      "payable": false,
      "stateMutability": "view",
      "type": "function"
    },
    {
      "constant": true,
      "inputs": [],
      "name": "paused",
      "outputs": [
        {
          "name": "",
          "type": "bool"
        }
      ],
      "payable": false,
      "stateMutability": "view",
      "type": "function"
    },
    {
      "constant": false,
      "inputs": [],
      "name": "pause",
      "outputs": [],
      "payable": false,
      "stateMutability": "nonpayable",
      "type": "function"
    },
    {
      "constant": true,
      "inputs": [],
      "name": "owner",
      "outputs": [
        {
          "name": "",
          "type": "address"
        }
      ],
      "payable": false,
      "stateMutability": "view",
      "type": "function"
    },
    {
      "constant": true,
      "inputs": [
        {
          "name": "",
          "type": "uint256"
        }
      ],
      "name": "coopMembersList",
      "outputs": [
        {
          "name": "",
          "type": "address"
        }
      ],
      "payable": false,
      "stateMutability": "view",
      "type": "function"
    },
    {
      "constant": true,
      "inputs": [
        {
          "name": "",
          "type": "uint256"
        }
      ],
      "name": "trustedPersonsList",
      "outputs": [
        {
          "name": "",
          "type": "address"
        }
      ],
      "payable": false,
      "stateMutability": "view",
      "type": "function"
    },
    {
      "constant": false,
      "inputs": [
        {
          "name": "newOwner",
          "type": "address"
        }
      ],
      "name": "transferOwnership",
      "outputs": [],
      "payable": false,
      "stateMutability": "nonpayable",
      "type": "function"
    },
    {
      "anonymous": false,
      "inputs": [
        {
          "indexed": true,
          "name": "trustedPersonAddress",
          "type": "address"
        },
        {
          "indexed": false,
          "name": "trustedPersonName",
          "type": "string"
        }
      ],
      "name": "trustedPersonAdded",
      "type": "event"
    },
    {
      "anonymous": false,
      "inputs": [
        {
          "indexed": true,
          "name": "coopMemberAddress",
          "type": "address"
        }
      ],
      "name": "coopMemberAdded",
      "type": "event"
    },
    {
      "anonymous": false,
      "inputs": [
        {
          "indexed": true,
          "name": "trustedPersonAddress",
          "type": "address"
        }
      ],
      "name": "trustedPersonRemoved",
      "type": "event"
    },
    {
      "anonymous": false,
      "inputs": [
        {
          "indexed": true,
          "name": "coopMemberAddress",
          "type": "address"
        }
      ],
      "name": "coopMemberRemoved",
      "type": "event"
    },
    {
      "anonymous": false,
      "inputs": [],
      "name": "Pause",
      "type": "event"
    },
    {
      "anonymous": false,
      "inputs": [],
      "name": "Unpause",
      "type": "event"
    },
    {
      "anonymous": false,
      "inputs": [
        {
          "indexed": true,
          "name": "previousOwner",
          "type": "address"
        },
        {
          "indexed": true,
          "name": "newOwner",
          "type": "address"
        }
      ],
      "name": "OwnershipTransferred",
      "type": "event"
    },
    {
      "constant": false,
      "inputs": [
        {
          "name": "_addressTrustedPerson",
          "type": "address"
        },
        {
          "name": "_nameTrustedPerson",
          "type": "string"
        }
      ],
      "name": "setTrustedPerson",
      "outputs": [],
      "payable": false,
      "stateMutability": "nonpayable",
      "type": "function"
    },
    {
      "constant": false,
      "inputs": [
        {
          "name": "_addressCoopMember",
          "type": "address"
        }
      ],
      "name": "setCoopMember",
      "outputs": [],
      "payable": false,
      "stateMutability": "nonpayable",
      "type": "function"
    },
    {
      "constant": false,
      "inputs": [
        {
          "name": "_trustedPersonsListPosition",
          "type": "uint256"
        }
      ],
      "name": "removeTrustedPeron",
      "outputs": [],
      "payable": false,
      "stateMutability": "nonpayable",
      "type": "function"
    },
    {
      "constant": false,
      "inputs": [
        {
          "name": "_coopMembersListPosition",
          "type": "uint256"
        }
      ],
      "name": "removeCoopMember",
      "outputs": [],
      "payable": false,
      "stateMutability": "nonpayable",
      "type": "function"
    }
  ],
  "bytecode": "0x606060405260008060146101000a81548160ff021916908315150217905550336000806101000a81548173ffffffffffffffffffffffffffffffffffffffff021916908373ffffffffffffffffffffffffffffffffffffffff1602179055506112a98061006d6000396000f3006060604052600436106100ba576000357c0100000000000000000000000000000000000000000000000000000000900463ffffffff16806325c8e296146100bf5780633f4ba83a1461013b5780634faa90f2146101505780635c975abb146102025780637fb031611461022f5780638456cb5914610252578063873035a814610267578063883029501461028a5780638da5cb5b146102c3578063a54e70eb14610318578063ba79a0c11461037b578063f2fde38b146103de575b600080fd5b34156100ca57600080fd5b610139600480803573ffffffffffffffffffffffffffffffffffffffff1690602001909190803590602001908201803590602001908080601f01602080910402602001604051908101604052809392919081815260200183838082843782019150505050505091905050610417565b005b341561014657600080fd5b61014e610721565b005b341561015b57600080fd5b610187600480803573ffffffffffffffffffffffffffffffffffffffff169060200190919050506107df565b6040518080602001828103825283818151815260200191508051906020019080838360005b838110156101c75780820151818401526020810190506101ac565b50505050905090810190601f1680156101f45780820380516001836020036101000a031916815260200191505b509250505060405180910390f35b341561020d57600080fd5b61021561088f565b604051808215151515815260200191505060405180910390f35b341561023a57600080fd5b61025060048080359060200190919050506108a2565b005b341561025d57600080fd5b610265610a85565b005b341561027257600080fd5b6102886004808035906020019091905050610b45565b005b341561029557600080fd5b6102c1600480803573ffffffffffffffffffffffffffffffffffffffff16906020019091905050610d34565b005b34156102ce57600080fd5b6102d6610fb4565b604051808273ffffffffffffffffffffffffffffffffffffffff1673ffffffffffffffffffffffffffffffffffffffff16815260200191505060405180910390f35b341561032357600080fd5b6103396004808035906020019091905050610fd9565b604051808273ffffffffffffffffffffffffffffffffffffffff1673ffffffffffffffffffffffffffffffffffffffff16815260200191505060405180910390f35b341561038657600080fd5b61039c6004808035906020019091905050611018565b604051808273ffffffffffffffffffffffffffffffffffffffff1673ffffffffffffffffffffffffffffffffffffffff16815260200191505060405180910390f35b34156103e957600080fd5b610415600480803573ffffffffffffffffffffffffffffffffffffffff16906020019091905050611057565b005b6000809054906101000a900473ffffffffffffffffffffffffffffffffffffffff1673ffffffffffffffffffffffffffffffffffffffff163373ffffffffffffffffffffffffffffffffffffffff1614151561047257600080fd5b600060149054906101000a900460ff1615151561048e57600080fd5b600073ffffffffffffffffffffffffffffffffffffffff168273ffffffffffffffffffffffffffffffffffffffff16141515156104ca57600080fd5b604051806000019050604051809103902060001916816040518082805190602001908083835b60208310151561051557805182526020820191506020810190506020830392506104f0565b6001836020036101000a0380198251168184511680821785525050505050509050019150506040518091039020600019161415151561055357600080fd5b60011515600460008473ffffffffffffffffffffffffffffffffffffffff1673ffffffffffffffffffffffffffffffffffffffff16815260200190815260200160002060009054906101000a900460ff161515141515156105b357600080fd5b600180548060010182816105c791906111ac565b9160005260206000209001600084909190916101000a81548173ffffffffffffffffffffffffffffffffffffffff021916908373ffffffffffffffffffffffffffffffffffffffff1602179055505080600360008473ffffffffffffffffffffffffffffffffffffffff1673ffffffffffffffffffffffffffffffffffffffff16815260200190815260200160002090805190602001906106699291906111d8565b508173ffffffffffffffffffffffffffffffffffffffff167f994fcd81e06a67d54cc70b83ec1ef52a4bfb94468e30e1bcca557453a9e3fd6e826040518080602001828103825283818151815260200191508051906020019080838360005b838110156106e35780820151818401526020810190506106c8565b50505050905090810190601f1680156107105780820380516001836020036101000a031916815260200191505b509250505060405180910390a25050565b6000809054906101000a900473ffffffffffffffffffffffffffffffffffffffff1673ffffffffffffffffffffffffffffffffffffffff163373ffffffffffffffffffffffffffffffffffffffff1614151561077c57600080fd5b600060149054906101000a900460ff16151561079757600080fd5b60008060146101000a81548160ff0219169083151502179055507f7805862f689e2f13df9f062ff482ad3ad112aca9e0847911ed832e158c525b3360405160405180910390a1565b60036020528060005260406000206000915090508054600181600116156101000203166002900480601f0160208091040260200160405190810160405280929190818152602001828054600181600116156101000203166002900480156108875780601f1061085c57610100808354040283529160200191610887565b820191906000526020600020905b81548152906001019060200180831161086a57829003601f168201915b505050505081565b600060149054906101000a900460ff1681565b6000809054906101000a900473ffffffffffffffffffffffffffffffffffffffff1673ffffffffffffffffffffffffffffffffffffffff163373ffffffffffffffffffffffffffffffffffffffff161415156108fd57600080fd5b600060149054906101000a900460ff1615151561091957600080fd5b60028181548110151561092857fe5b906000526020600020900160009054906101000a900473ffffffffffffffffffffffffffffffffffffffff1673ffffffffffffffffffffffffffffffffffffffff167f764b36a5c18af7648d4e7a3dd313368b60e17861165af584c1355520c8cf762360405160405180910390a26000600460006002848154811015156109ab57fe5b906000526020600020900160009054906101000a900473ffffffffffffffffffffffffffffffffffffffff1673ffffffffffffffffffffffffffffffffffffffff1673ffffffffffffffffffffffffffffffffffffffff16815260200190815260200160002060006101000a81548160ff0219169083151502179055506000600282815481101515610a3957fe5b906000526020600020900160006101000a81548173ffffffffffffffffffffffffffffffffffffffff021916908373ffffffffffffffffffffffffffffffffffffffff16021790555050565b6000809054906101000a900473ffffffffffffffffffffffffffffffffffffffff1673ffffffffffffffffffffffffffffffffffffffff163373ffffffffffffffffffffffffffffffffffffffff16141515610ae057600080fd5b600060149054906101000a900460ff16151515610afc57600080fd5b6001600060146101000a81548160ff0219169083151502179055507f6985a02210a168e66602d3235cb6db0e70f92b3ba4d376a33c0f3d9434bff62560405160405180910390a1565b6000809054906101000a900473ffffffffffffffffffffffffffffffffffffffff1673ffffffffffffffffffffffffffffffffffffffff163373ffffffffffffffffffffffffffffffffffffffff16141515610ba057600080fd5b600060149054906101000a900460ff16151515610bbc57600080fd5b600181815481101515610bcb57fe5b906000526020600020900160009054906101000a900473ffffffffffffffffffffffffffffffffffffffff1673ffffffffffffffffffffffffffffffffffffffff167fcb8719a25272f2ee99327b2f21948f429ce7c2598b83df02bf3dcbd50973184860405160405180910390a2602060405190810160405280600081525060036000600184815481101515610c5d57fe5b906000526020600020900160009054906101000a900473ffffffffffffffffffffffffffffffffffffffff1673ffffffffffffffffffffffffffffffffffffffff1673ffffffffffffffffffffffffffffffffffffffff1681526020019081526020016000209080519060200190610cd69291906111d8565b506000600182815481101515610ce857fe5b906000526020600020900160006101000a81548173ffffffffffffffffffffffffffffffffffffffff021916908373ffffffffffffffffffffffffffffffffffffffff16021790555050565b6000809054906101000a900473ffffffffffffffffffffffffffffffffffffffff1673ffffffffffffffffffffffffffffffffffffffff163373ffffffffffffffffffffffffffffffffffffffff16141515610d8f57600080fd5b600060149054906101000a900460ff16151515610dab57600080fd5b600073ffffffffffffffffffffffffffffffffffffffff168173ffffffffffffffffffffffffffffffffffffffff1614151515610de757600080fd5b604051806000019050604051809103902060001916600360008373ffffffffffffffffffffffffffffffffffffffff1673ffffffffffffffffffffffffffffffffffffffff1681526020019081526020016000206040518082805460018160011615610100020316600290048015610e965780601f10610e74576101008083540402835291820191610e96565b820191906000526020600020905b815481529060010190602001808311610e82575b5050915050604051809103902060001916141515610eb357600080fd5b60028054806001018281610ec791906111ac565b9160005260206000209001600083909190916101000a81548173ffffffffffffffffffffffffffffffffffffffff021916908373ffffffffffffffffffffffffffffffffffffffff160217905550506001600460008373ffffffffffffffffffffffffffffffffffffffff1673ffffffffffffffffffffffffffffffffffffffff16815260200190815260200160002060006101000a81548160ff0219169083151502179055508073ffffffffffffffffffffffffffffffffffffffff167f9a58e51f568916de7d2e95b6cecc840ff08be4fabe82882a8e307d7815ca2b0660405160405180910390a250565b6000809054906101000a900473ffffffffffffffffffffffffffffffffffffffff1681565b600281815481101515610fe857fe5b90600052602060002090016000915054906101000a900473ffffffffffffffffffffffffffffffffffffffff1681565b60018181548110151561102757fe5b90600052602060002090016000915054906101000a900473ffffffffffffffffffffffffffffffffffffffff1681565b6000809054906101000a900473ffffffffffffffffffffffffffffffffffffffff1673ffffffffffffffffffffffffffffffffffffffff163373ffffffffffffffffffffffffffffffffffffffff161415156110b257600080fd5b600073ffffffffffffffffffffffffffffffffffffffff168173ffffffffffffffffffffffffffffffffffffffff16141515156110ee57600080fd5b8073ffffffffffffffffffffffffffffffffffffffff166000809054906101000a900473ffffffffffffffffffffffffffffffffffffffff1673ffffffffffffffffffffffffffffffffffffffff167f8be0079c531659141344cd1fd0a4f28419497f9722a3daafe3b4186f6b6457e060405160405180910390a3806000806101000a81548173ffffffffffffffffffffffffffffffffffffffff021916908373ffffffffffffffffffffffffffffffffffffffff16021790555050565b8154818355818115116111d3578183600052602060002091820191016111d29190611258565b5b505050565b828054600181600116156101000203166002900490600052602060002090601f016020900481019282601f1061121957805160ff1916838001178555611247565b82800160010185558215611247579182015b8281111561124657825182559160200191906001019061122b565b5b5090506112549190611258565b5090565b61127a91905b8082111561127657600081600090555060010161125e565b5090565b905600a165627a7a72305820dfc57955ec9e6fb6e5c4b4a0a77a2846d96eb9ed81d2ff484a4c579a82acdfd90029",
  "source": "pragma solidity ^0.4.21; \nimport \"./Pausable.sol\";\n\n/**\n * @title Rchain\n * @dev The Rchain contract imports Pausable (which imports Ownable). The Rhcain contract mimics the structure of the Rchain project \n * which has Coop members and trusted persons (board members/ pyrofex employees).\n */\ncontract Rchain is Pausable {\n    \n    event trustedPersonAdded(address indexed trustedPersonAddress, string trustedPersonName);\n    event coopMemberAdded(address indexed coopMemberAddress);\n    event trustedPersonRemoved(address indexed trustedPersonAddress);\n    event coopMemberRemoved(address indexed coopMemberAddress);\n    \n    // pyrofex employees / coop board members addresses\n    address[] public trustedPersonsList;\n    \n    // coop members addresses\n    address[] public coopMembersList;\n    \n    // mapping to simplify lookup of whether an address belong to a trusted person. The string represents the name of the person\n    mapping(address => string) public trustedPersons;\n    \n    // mapping to simplify lookup of whether an address belongs to a coop member\n    mapping(address => bool) coopMembers;\n    \n    /**\n    * @dev throws when the caller is not a trusted person, not used in Genesis contract\n    */\n    modifier onlyTrustedPerson() {\n        require(keccak256(trustedPersons[msg.sender]) != keccak256(\"\"));\n        _;\n    }\n    \n    /**\n    * @dev throws when the caller is not a coop member, not used in Genesis contract\n    */\n    modifier onlyCoopMember {\n        require(coopMembers[msg.sender]);\n        _;\n    }\n\n    /**\n    * @dev throws when the calles is neither a coop member nor trusted person\n    */\n    modifier onlyTrustedOrCoop() {\n        require((coopMembers[msg.sender]) || (keccak256(trustedPersons[msg.sender])) != keccak256(\"\"));\n        _;\n    }\n    \n     /**\n    * @dev sets an Ethereum address as a trusted person and assigns a (real world) name to this address\n    * @param _addressTrustedPerson is the Ethereum address that is controlled by the trusted person\n    * @param _nameTrustedPerson is the (real world) name that belongs to the trusted person.\n    */\n    function setTrustedPerson(address _addressTrustedPerson, string _nameTrustedPerson) onlyOwner whenNotPaused public {\n        // requirements to check the validity of an address, \n        // name and whether the address does not belong already to a coop member\n        require(_addressTrustedPerson != address(0));\n        require(keccak256(_nameTrustedPerson) != keccak256(\"\"));\n        require(coopMembers[_addressTrustedPerson] != true);\n        trustedPersonsList.push(_addressTrustedPerson);\n        trustedPersons[_addressTrustedPerson] = _nameTrustedPerson;\n        emit trustedPersonAdded(_addressTrustedPerson, _nameTrustedPerson);\n    }\n    \n    /**\n    * @dev sets an Ethereum address as a coop member\n    * @param _addressCoopMember is the Ethereum addres that is controlled by the coop member\n    */\n    function setCoopMember(address _addressCoopMember) onlyOwner whenNotPaused public {\n        // requirements to check the validity of an address and \n        // whether the address does not belong already to a coop member\n        require(_addressCoopMember != address(0));\n        require(keccak256(trustedPersons[_addressCoopMember]) == keccak256(\"\"));\n        coopMembersList.push(_addressCoopMember);\n        coopMembers[_addressCoopMember] = true;\n        emit coopMemberAdded(_addressCoopMember);\n    } \n     \n    /**\n    * @dev removes an Ethereum address as a trusted person\n    * @param _trustedPersonsListPosition is the position in the TrustedPersonsList array (ln 17) which stores the address of the trusted person\n    */\n    function removeTrustedPeron(uint _trustedPersonsListPosition) onlyOwner whenNotPaused public {\n        emit trustedPersonRemoved(trustedPersonsList[_trustedPersonsListPosition]);\n        trustedPersons[trustedPersonsList[_trustedPersonsListPosition]] = \"\";\n        trustedPersonsList[_trustedPersonsListPosition] = 0;\n    }\n    \n    /**\n    * @dev removes an Ethereum address as a coop member\n    * @param _coopMembersListPosition is the position in the CoopMembersList array (ln 20) which stores the addresse of the coop member\n    */\n    function removeCoopMember(uint _coopMembersListPosition) onlyOwner whenNotPaused public {\n        emit coopMemberRemoved(coopMembersList[_coopMembersListPosition]); \n        coopMembers[coopMembersList[_coopMembersListPosition]] = false;\n        coopMembersList[_coopMembersListPosition] = 0;\n    }\n    \n}\n",
  "sourcePath": "/home/rinke/DAPPS/Rchain/contracts/Rchain.sol",
  "compiler": {
    "name": "solc",
    "version": "0.4.21+commit.dfe3193c.Emscripten.clang"
  },
  "schemaVersion": "2.0.0",
  "updatedAt": "2018-04-22T21:00:23.547Z"
}