{
  "contractName": "Rchain",
  "abi": [
    {
      "constant": false,
      "inputs": [],
      "name": "unpause",
      "outputs": [],
      "payable": false,
      "stateMutability": "nonpayable",
      "type": "function"
    },
    {
      "constant": true,
      "inputs": [
        {
          "name": "",
          "type": "address"
        }
      ],
      "name": "trustedPersons",
      "outputs": [
        {
          "name": "",
          "type": "string"
        }
      ],
      "payable": false,
      "stateMutability": "view",
      "type": "function"
    },
    {
      "constant": true,
      "inputs": [],
      "name": "paused",
      "outputs": [
        {
          "name": "",
          "type": "bool"
        }
      ],
      "payable": false,
      "stateMutability": "view",
      "type": "function"
    },
    {
      "constant": false,
      "inputs": [],
      "name": "pause",
      "outputs": [],
      "payable": false,
      "stateMutability": "nonpayable",
      "type": "function"
    },
    {
      "constant": true,
      "inputs": [],
      "name": "owner",
      "outputs": [
        {
          "name": "",
          "type": "address"
        }
      ],
      "payable": false,
      "stateMutability": "view",
      "type": "function"
    },
    {
      "constant": true,
      "inputs": [
        {
          "name": "",
          "type": "address"
        }
      ],
      "name": "coopMembers",
      "outputs": [
        {
          "name": "",
          "type": "bool"
        }
      ],
      "payable": false,
      "stateMutability": "view",
      "type": "function"
    },
    {
      "constant": true,
      "inputs": [
        {
          "name": "",
          "type": "uint256"
        }
      ],
      "name": "coopMembersList",
      "outputs": [
        {
          "name": "",
          "type": "address"
        }
      ],
      "payable": false,
      "stateMutability": "view",
      "type": "function"
    },
    {
      "constant": true,
      "inputs": [
        {
          "name": "",
          "type": "uint256"
        }
      ],
      "name": "trustedPersonsList",
      "outputs": [
        {
          "name": "",
          "type": "address"
        }
      ],
      "payable": false,
      "stateMutability": "view",
      "type": "function"
    },
    {
      "constant": false,
      "inputs": [
        {
          "name": "newOwner",
          "type": "address"
        }
      ],
      "name": "transferOwnership",
      "outputs": [],
      "payable": false,
      "stateMutability": "nonpayable",
      "type": "function"
    },
    {
      "anonymous": false,
      "inputs": [
        {
          "indexed": true,
          "name": "trustedPersonAddress",
          "type": "address"
        },
        {
          "indexed": false,
          "name": "trustedPersonName",
          "type": "string"
        }
      ],
      "name": "trustedPersonAdded",
      "type": "event"
    },
    {
      "anonymous": false,
      "inputs": [
        {
          "indexed": true,
          "name": "coopMemberAddress",
          "type": "address"
        }
      ],
      "name": "coopMemberAdded",
      "type": "event"
    },
    {
      "anonymous": false,
      "inputs": [
        {
          "indexed": true,
          "name": "trustedPersonAddress",
          "type": "address"
        }
      ],
      "name": "trustedPersonRemoved",
      "type": "event"
    },
    {
      "anonymous": false,
      "inputs": [
        {
          "indexed": true,
          "name": "coopMemberAddress",
          "type": "address"
        }
      ],
      "name": "coopMemberRemoved",
      "type": "event"
    },
    {
      "anonymous": false,
      "inputs": [],
      "name": "Pause",
      "type": "event"
    },
    {
      "anonymous": false,
      "inputs": [],
      "name": "Unpause",
      "type": "event"
    },
    {
      "anonymous": false,
      "inputs": [
        {
          "indexed": true,
          "name": "previousOwner",
          "type": "address"
        },
        {
          "indexed": true,
          "name": "newOwner",
          "type": "address"
        }
      ],
      "name": "OwnershipTransferred",
      "type": "event"
    },
    {
      "constant": false,
      "inputs": [
        {
          "name": "_addressTrustedPerson",
          "type": "address"
        },
        {
          "name": "_nameTrustedPerson",
          "type": "string"
        }
      ],
      "name": "setTrustedPerson",
      "outputs": [],
      "payable": false,
      "stateMutability": "nonpayable",
      "type": "function"
    },
    {
      "constant": false,
      "inputs": [
        {
          "name": "_addressCoopMember",
          "type": "address"
        }
      ],
      "name": "setCoopMember",
      "outputs": [],
      "payable": false,
      "stateMutability": "nonpayable",
      "type": "function"
    },
    {
      "constant": false,
      "inputs": [
        {
          "name": "_trustedPersonsListPosition",
          "type": "uint256"
        }
      ],
      "name": "removeTrustedPeron",
      "outputs": [],
      "payable": false,
      "stateMutability": "nonpayable",
      "type": "function"
    },
    {
      "constant": false,
      "inputs": [
        {
          "name": "_coopMembersListPosition",
          "type": "uint256"
        }
      ],
      "name": "removeCoopMember",
      "outputs": [],
      "payable": false,
      "stateMutability": "nonpayable",
      "type": "function"
    }
  ],
  "bytecode": "0x606060405260008060146101000a81548160ff021916908315150217905550336000806101000a81548173ffffffffffffffffffffffffffffffffffffffff021916908373ffffffffffffffffffffffffffffffffffffffff1602179055506113258061006d6000396000f3006060604052600436106100c5576000357c0100000000000000000000000000000000000000000000000000000000900463ffffffff16806325c8e296146100ca5780633f4ba83a146101465780634faa90f21461015b5780635c975abb1461020d5780637fb031611461023a5780638456cb591461025d578063873035a81461027257806388302950146102955780638da5cb5b146102ce5780639cb5e86d14610323578063a54e70eb14610374578063ba79a0c1146103d7578063f2fde38b1461043a575b600080fd5b34156100d557600080fd5b610144600480803573ffffffffffffffffffffffffffffffffffffffff1690602001909190803590602001908201803590602001908080601f01602080910402602001604051908101604052809392919081815260200183838082843782019150505050505091905050610473565b005b341561015157600080fd5b61015961077d565b005b341561016657600080fd5b610192600480803573ffffffffffffffffffffffffffffffffffffffff1690602001909190505061083b565b6040518080602001828103825283818151815260200191508051906020019080838360005b838110156101d25780820151818401526020810190506101b7565b50505050905090810190601f1680156101ff5780820380516001836020036101000a031916815260200191505b509250505060405180910390f35b341561021857600080fd5b6102206108eb565b604051808215151515815260200191505060405180910390f35b341561024557600080fd5b61025b60048080359060200190919050506108fe565b005b341561026857600080fd5b610270610ae1565b005b341561027d57600080fd5b6102936004808035906020019091905050610ba1565b005b34156102a057600080fd5b6102cc600480803573ffffffffffffffffffffffffffffffffffffffff16906020019091905050610d90565b005b34156102d957600080fd5b6102e1611010565b604051808273ffffffffffffffffffffffffffffffffffffffff1673ffffffffffffffffffffffffffffffffffffffff16815260200191505060405180910390f35b341561032e57600080fd5b61035a600480803573ffffffffffffffffffffffffffffffffffffffff16906020019091905050611035565b604051808215151515815260200191505060405180910390f35b341561037f57600080fd5b6103956004808035906020019091905050611055565b604051808273ffffffffffffffffffffffffffffffffffffffff1673ffffffffffffffffffffffffffffffffffffffff16815260200191505060405180910390f35b34156103e257600080fd5b6103f86004808035906020019091905050611094565b604051808273ffffffffffffffffffffffffffffffffffffffff1673ffffffffffffffffffffffffffffffffffffffff16815260200191505060405180910390f35b341561044557600080fd5b610471600480803573ffffffffffffffffffffffffffffffffffffffff169060200190919050506110d3565b005b6000809054906101000a900473ffffffffffffffffffffffffffffffffffffffff1673ffffffffffffffffffffffffffffffffffffffff163373ffffffffffffffffffffffffffffffffffffffff161415156104ce57600080fd5b600060149054906101000a900460ff161515156104ea57600080fd5b600073ffffffffffffffffffffffffffffffffffffffff168273ffffffffffffffffffffffffffffffffffffffff161415151561052657600080fd5b604051806000019050604051809103902060001916816040518082805190602001908083835b602083101515610571578051825260208201915060208101905060208303925061054c565b6001836020036101000a038019825116818451168082178552505050505050905001915050604051809103902060001916141515156105af57600080fd5b60011515600460008473ffffffffffffffffffffffffffffffffffffffff1673ffffffffffffffffffffffffffffffffffffffff16815260200190815260200160002060009054906101000a900460ff1615151415151561060f57600080fd5b600180548060010182816106239190611228565b9160005260206000209001600084909190916101000a81548173ffffffffffffffffffffffffffffffffffffffff021916908373ffffffffffffffffffffffffffffffffffffffff1602179055505080600360008473ffffffffffffffffffffffffffffffffffffffff1673ffffffffffffffffffffffffffffffffffffffff16815260200190815260200160002090805190602001906106c5929190611254565b508173ffffffffffffffffffffffffffffffffffffffff167f994fcd81e06a67d54cc70b83ec1ef52a4bfb94468e30e1bcca557453a9e3fd6e826040518080602001828103825283818151815260200191508051906020019080838360005b8381101561073f578082015181840152602081019050610724565b50505050905090810190601f16801561076c5780820380516001836020036101000a031916815260200191505b509250505060405180910390a25050565b6000809054906101000a900473ffffffffffffffffffffffffffffffffffffffff1673ffffffffffffffffffffffffffffffffffffffff163373ffffffffffffffffffffffffffffffffffffffff161415156107d857600080fd5b600060149054906101000a900460ff1615156107f357600080fd5b60008060146101000a81548160ff0219169083151502179055507f7805862f689e2f13df9f062ff482ad3ad112aca9e0847911ed832e158c525b3360405160405180910390a1565b60036020528060005260406000206000915090508054600181600116156101000203166002900480601f0160208091040260200160405190810160405280929190818152602001828054600181600116156101000203166002900480156108e35780601f106108b8576101008083540402835291602001916108e3565b820191906000526020600020905b8154815290600101906020018083116108c657829003601f168201915b505050505081565b600060149054906101000a900460ff1681565b6000809054906101000a900473ffffffffffffffffffffffffffffffffffffffff1673ffffffffffffffffffffffffffffffffffffffff163373ffffffffffffffffffffffffffffffffffffffff1614151561095957600080fd5b600060149054906101000a900460ff1615151561097557600080fd5b60028181548110151561098457fe5b906000526020600020900160009054906101000a900473ffffffffffffffffffffffffffffffffffffffff1673ffffffffffffffffffffffffffffffffffffffff167f764b36a5c18af7648d4e7a3dd313368b60e17861165af584c1355520c8cf762360405160405180910390a2600060046000600284815481101515610a0757fe5b906000526020600020900160009054906101000a900473ffffffffffffffffffffffffffffffffffffffff1673ffffffffffffffffffffffffffffffffffffffff1673ffffffffffffffffffffffffffffffffffffffff16815260200190815260200160002060006101000a81548160ff0219169083151502179055506000600282815481101515610a9557fe5b906000526020600020900160006101000a81548173ffffffffffffffffffffffffffffffffffffffff021916908373ffffffffffffffffffffffffffffffffffffffff16021790555050565b6000809054906101000a900473ffffffffffffffffffffffffffffffffffffffff1673ffffffffffffffffffffffffffffffffffffffff163373ffffffffffffffffffffffffffffffffffffffff16141515610b3c57600080fd5b600060149054906101000a900460ff16151515610b5857600080fd5b6001600060146101000a81548160ff0219169083151502179055507f6985a02210a168e66602d3235cb6db0e70f92b3ba4d376a33c0f3d9434bff62560405160405180910390a1565b6000809054906101000a900473ffffffffffffffffffffffffffffffffffffffff1673ffffffffffffffffffffffffffffffffffffffff163373ffffffffffffffffffffffffffffffffffffffff16141515610bfc57600080fd5b600060149054906101000a900460ff16151515610c1857600080fd5b600181815481101515610c2757fe5b906000526020600020900160009054906101000a900473ffffffffffffffffffffffffffffffffffffffff1673ffffffffffffffffffffffffffffffffffffffff167fcb8719a25272f2ee99327b2f21948f429ce7c2598b83df02bf3dcbd50973184860405160405180910390a2602060405190810160405280600081525060036000600184815481101515610cb957fe5b906000526020600020900160009054906101000a900473ffffffffffffffffffffffffffffffffffffffff1673ffffffffffffffffffffffffffffffffffffffff1673ffffffffffffffffffffffffffffffffffffffff1681526020019081526020016000209080519060200190610d32929190611254565b506000600182815481101515610d4457fe5b906000526020600020900160006101000a81548173ffffffffffffffffffffffffffffffffffffffff021916908373ffffffffffffffffffffffffffffffffffffffff16021790555050565b6000809054906101000a900473ffffffffffffffffffffffffffffffffffffffff1673ffffffffffffffffffffffffffffffffffffffff163373ffffffffffffffffffffffffffffffffffffffff16141515610deb57600080fd5b600060149054906101000a900460ff16151515610e0757600080fd5b600073ffffffffffffffffffffffffffffffffffffffff168173ffffffffffffffffffffffffffffffffffffffff1614151515610e4357600080fd5b604051806000019050604051809103902060001916600360008373ffffffffffffffffffffffffffffffffffffffff1673ffffffffffffffffffffffffffffffffffffffff1681526020019081526020016000206040518082805460018160011615610100020316600290048015610ef25780601f10610ed0576101008083540402835291820191610ef2565b820191906000526020600020905b815481529060010190602001808311610ede575b5050915050604051809103902060001916141515610f0f57600080fd5b60028054806001018281610f239190611228565b9160005260206000209001600083909190916101000a81548173ffffffffffffffffffffffffffffffffffffffff021916908373ffffffffffffffffffffffffffffffffffffffff160217905550506001600460008373ffffffffffffffffffffffffffffffffffffffff1673ffffffffffffffffffffffffffffffffffffffff16815260200190815260200160002060006101000a81548160ff0219169083151502179055508073ffffffffffffffffffffffffffffffffffffffff167f9a58e51f568916de7d2e95b6cecc840ff08be4fabe82882a8e307d7815ca2b0660405160405180910390a250565b6000809054906101000a900473ffffffffffffffffffffffffffffffffffffffff1681565b60046020528060005260406000206000915054906101000a900460ff1681565b60028181548110151561106457fe5b90600052602060002090016000915054906101000a900473ffffffffffffffffffffffffffffffffffffffff1681565b6001818154811015156110a357fe5b90600052602060002090016000915054906101000a900473ffffffffffffffffffffffffffffffffffffffff1681565b6000809054906101000a900473ffffffffffffffffffffffffffffffffffffffff1673ffffffffffffffffffffffffffffffffffffffff163373ffffffffffffffffffffffffffffffffffffffff1614151561112e57600080fd5b600073ffffffffffffffffffffffffffffffffffffffff168173ffffffffffffffffffffffffffffffffffffffff161415151561116a57600080fd5b8073ffffffffffffffffffffffffffffffffffffffff166000809054906101000a900473ffffffffffffffffffffffffffffffffffffffff1673ffffffffffffffffffffffffffffffffffffffff167f8be0079c531659141344cd1fd0a4f28419497f9722a3daafe3b4186f6b6457e060405160405180910390a3806000806101000a81548173ffffffffffffffffffffffffffffffffffffffff021916908373ffffffffffffffffffffffffffffffffffffffff16021790555050565b81548183558181151161124f5781836000526020600020918201910161124e91906112d4565b5b505050565b828054600181600116156101000203166002900490600052602060002090601f016020900481019282601f1061129557805160ff19168380011785556112c3565b828001600101855582156112c3579182015b828111156112c25782518255916020019190600101906112a7565b5b5090506112d091906112d4565b5090565b6112f691905b808211156112f25760008160009055506001016112da565b5090565b905600a165627a7a723058209de7ef675e882ff326cfe0f34dd076feb59287f3040c03888b7620d211ff08a70029",
  "source": "pragma solidity ^0.4.21; \nimport \"./Pausable.sol\";\n\n/**\n * @title Rchain\n * @dev The Rchain contract imports Pausable (which imports Ownable). The Rhcain contract mimics the structure of the Rchain project \n * which has Coop members and trusted persons (board members/ pyrofex employees).\n */\ncontract Rchain is Pausable {\n    \n    event trustedPersonAdded(address indexed trustedPersonAddress, string trustedPersonName);\n    event coopMemberAdded(address indexed coopMemberAddress);\n    event trustedPersonRemoved(address indexed trustedPersonAddress);\n    event coopMemberRemoved(address indexed coopMemberAddress);\n    \n    // pyrofex employees / coop board members addresses\n    address[] public trustedPersonsList;\n    \n    // coop members addresses\n    address[] public coopMembersList;\n    \n    // mapping to simplify lookup of whether an address belong to a trusted person. The string represents the name of the person\n    mapping(address => string) public trustedPersons;\n    \n    // mapping to simplify lookup of whether an address belongs to a coop member\n    mapping(address => bool) public coopMembers;\n    \n    /**\n    * @dev throws when the caller is not a trusted person, not used in Genesis contract\n    */\n    modifier onlyTrustedPerson() {\n        require(keccak256(trustedPersons[msg.sender]) != keccak256(\"\"));\n        _;\n    }\n    \n    /**\n    * @dev throws when the caller is not a coop member, not used in Genesis contract\n    */\n    modifier onlyCoopMember {\n        require(coopMembers[msg.sender]);\n        _;\n    }\n\n    /**\n    * @dev throws when the calles is neither a coop member nor trusted person\n    */\n    modifier onlyTrustedOrCoop() {\n        require((coopMembers[msg.sender]) || (keccak256(trustedPersons[msg.sender])) != keccak256(\"\"));\n        _;\n    }\n    \n     /**\n    * @dev sets an Ethereum address as a trusted person and assigns a (real world) name to this address\n    * @param _addressTrustedPerson is the Ethereum address that is controlled by the trusted person\n    * @param _nameTrustedPerson is the (real world) name that belongs to the trusted person.\n    */\n    function setTrustedPerson(address _addressTrustedPerson, string _nameTrustedPerson) onlyOwner whenNotPaused public {\n        // requirements to check the validity of an address, \n        // name and whether the address does not belong already to a coop member\n        require(_addressTrustedPerson != address(0));\n        require(keccak256(_nameTrustedPerson) != keccak256(\"\"));\n        require(coopMembers[_addressTrustedPerson] != true);\n        // TODO! make sure that a person cannot have a double entry\n        trustedPersonsList.push(_addressTrustedPerson);\n        trustedPersons[_addressTrustedPerson] = _nameTrustedPerson;\n        emit trustedPersonAdded(_addressTrustedPerson, _nameTrustedPerson);\n    }\n    \n    /**\n    * @dev sets an Ethereum address as a coop member\n    * @param _addressCoopMember is the Ethereum addres that is controlled by the coop member\n    */\n    function setCoopMember(address _addressCoopMember) onlyOwner whenNotPaused public {\n        // requirements to check the validity of an address and \n        // whether the address does not belong already to a coop member\n        require(_addressCoopMember != address(0));\n        require(keccak256(trustedPersons[_addressCoopMember]) == keccak256(\"\"));\n        coopMembersList.push(_addressCoopMember);\n        coopMembers[_addressCoopMember] = true;\n        emit coopMemberAdded(_addressCoopMember);\n    } \n     \n    /**\n    * @dev removes an Ethereum address as a trusted person\n    * @param _trustedPersonsListPosition is the position in the TrustedPersonsList array (ln 17) which stores the address of the trusted person\n    */\n    function removeTrustedPeron(uint _trustedPersonsListPosition) onlyOwner whenNotPaused public {\n        emit trustedPersonRemoved(trustedPersonsList[_trustedPersonsListPosition]);\n        trustedPersons[trustedPersonsList[_trustedPersonsListPosition]] = \"\";\n        trustedPersonsList[_trustedPersonsListPosition] = 0;\n    }\n    \n    /**\n    * @dev removes an Ethereum address as a coop member\n    * @param _coopMembersListPosition is the position in the CoopMembersList array (ln 20) which stores the addresse of the coop member\n    */\n    function removeCoopMember(uint _coopMembersListPosition) onlyOwner whenNotPaused public {\n        emit coopMemberRemoved(coopMembersList[_coopMembersListPosition]); \n        coopMembers[coopMembersList[_coopMembersListPosition]] = false;\n        coopMembersList[_coopMembersListPosition] = 0;\n    }\n    \n}\n",
  "sourcePath": "/home/rinke/DAPPS/Rchain/contracts/Rchain.sol",
  "compiler": {
    "name": "solc",
    "version": "0.4.21+commit.dfe3193c.Emscripten.clang"
  },
  "schemaVersion": "2.0.0",
  "updatedAt": "2018-04-23T15:50:20.201Z"
}