{
  "contractName": "EternalCanvas",
  "abi": [
    {
      "constant": true,
      "inputs": [
        {
          "name": "",
          "type": "uint256"
        }
      ],
      "name": "rentAgreements",
      "outputs": [
        {
          "name": "rentor",
          "type": "address"
        },
        {
          "name": "price",
          "type": "uint256"
        },
        {
          "name": "blocksRented",
          "type": "uint256"
        },
        {
          "name": "untilBlock",
          "type": "uint256"
        }
      ],
      "payable": false,
      "stateMutability": "view",
      "type": "function"
    },
    {
      "constant": false,
      "inputs": [],
      "name": "renounceOwnership",
      "outputs": [],
      "payable": false,
      "stateMutability": "nonpayable",
      "type": "function"
    },
    {
      "constant": true,
      "inputs": [],
      "name": "owner",
      "outputs": [
        {
          "name": "",
          "type": "address"
        }
      ],
      "payable": false,
      "stateMutability": "view",
      "type": "function"
    },
    {
      "constant": true,
      "inputs": [
        {
          "name": "",
          "type": "uint256"
        }
      ],
      "name": "pixels",
      "outputs": [
        {
          "name": "",
          "type": "bytes1"
        }
      ],
      "payable": false,
      "stateMutability": "view",
      "type": "function"
    },
    {
      "constant": true,
      "inputs": [],
      "name": "ownerBalance",
      "outputs": [
        {
          "name": "",
          "type": "uint256"
        }
      ],
      "payable": false,
      "stateMutability": "view",
      "type": "function"
    },
    {
      "constant": false,
      "inputs": [
        {
          "name": "newOwner",
          "type": "address"
        }
      ],
      "name": "transferOwnership",
      "outputs": [],
      "payable": false,
      "stateMutability": "nonpayable",
      "type": "function"
    },
    {
      "anonymous": false,
      "inputs": [
        {
          "indexed": true,
          "name": "position",
          "type": "uint256"
        },
        {
          "indexed": false,
          "name": "rentor",
          "type": "address"
        },
        {
          "indexed": false,
          "name": "price",
          "type": "uint256"
        }
      ],
      "name": "logRentalStarted",
      "type": "event"
    },
    {
      "anonymous": false,
      "inputs": [
        {
          "indexed": true,
          "name": "position",
          "type": "uint256"
        },
        {
          "indexed": false,
          "name": "rentor",
          "type": "address"
        }
      ],
      "name": "logRentalProlonged",
      "type": "event"
    },
    {
      "anonymous": false,
      "inputs": [
        {
          "indexed": true,
          "name": "position",
          "type": "uint256"
        },
        {
          "indexed": false,
          "name": "rentor",
          "type": "address"
        },
        {
          "indexed": false,
          "name": "color",
          "type": "bytes1"
        }
      ],
      "name": "logDrawn",
      "type": "event"
    },
    {
      "anonymous": false,
      "inputs": [
        {
          "indexed": true,
          "name": "beneficiary",
          "type": "address"
        },
        {
          "indexed": false,
          "name": "value",
          "type": "uint256"
        }
      ],
      "name": "logPaybackRedeemed",
      "type": "event"
    },
    {
      "anonymous": false,
      "inputs": [
        {
          "indexed": true,
          "name": "owner",
          "type": "address"
        },
        {
          "indexed": false,
          "name": "value",
          "type": "uint256"
        }
      ],
      "name": "logOwnerBalanceRedeemed",
      "type": "event"
    },
    {
      "anonymous": false,
      "inputs": [
        {
          "indexed": true,
          "name": "previousOwner",
          "type": "address"
        }
      ],
      "name": "OwnershipRenounced",
      "type": "event"
    },
    {
      "anonymous": false,
      "inputs": [
        {
          "indexed": true,
          "name": "previousOwner",
          "type": "address"
        },
        {
          "indexed": true,
          "name": "newOwner",
          "type": "address"
        }
      ],
      "name": "OwnershipTransferred",
      "type": "event"
    },
    {
      "constant": false,
      "inputs": [
        {
          "name": "position",
          "type": "uint256"
        },
        {
          "name": "_price",
          "type": "uint256"
        }
      ],
      "name": "startRental",
      "outputs": [],
      "payable": true,
      "stateMutability": "payable",
      "type": "function"
    },
    {
      "constant": false,
      "inputs": [
        {
          "name": "position",
          "type": "uint256"
        }
      ],
      "name": "prolongRental",
      "outputs": [],
      "payable": true,
      "stateMutability": "payable",
      "type": "function"
    },
    {
      "constant": false,
      "inputs": [
        {
          "name": "position",
          "type": "uint256"
        },
        {
          "name": "color",
          "type": "bytes1"
        }
      ],
      "name": "draw",
      "outputs": [],
      "payable": false,
      "stateMutability": "nonpayable",
      "type": "function"
    },
    {
      "constant": false,
      "inputs": [],
      "name": "redeemPayback",
      "outputs": [],
      "payable": false,
      "stateMutability": "nonpayable",
      "type": "function"
    },
    {
      "constant": false,
      "inputs": [],
      "name": "redeemOwnerBalance",
      "outputs": [],
      "payable": false,
      "stateMutability": "nonpayable",
      "type": "function"
    }
  ],
  "bytecode": "0x608060405260008054600160a060020a03191633179055610a91806100256000396000f3006080604052600436106100ae5763ffffffff7c010000000000000000000000000000000000000000000000000000000060003504166318f5b28381146100b35780632dfc9564146100f25780633ac2046c1461013a578063715018a61461014f5780638da5cb5b146101645780638da7f23214610195578063a5f3c7ac146101e2578063bedcf003146101ed578063c31a25f614610214578063d78392ab14610229578063f2fde38b14610237575b600080fd5b3480156100bf57600080fd5b506100f06004357fff0000000000000000000000000000000000000000000000000000000000000060243516610258565b005b3480156100fe57600080fd5b5061010a60043561040b565b60408051600160a060020a0390951685526020850193909352838301919091526060830152519081900360800190f35b34801561014657600080fd5b506100f0610440565b34801561015b57600080fd5b506100f06104d4565b34801561017057600080fd5b50610179610540565b60408051600160a060020a039092168252519081900360200190f35b3480156101a157600080fd5b506101ad60043561054f565b604080517fff000000000000000000000000000000000000000000000000000000000000009092168252519081900360200190f35b6100f0600435610596565b3480156101f957600080fd5b506102026106ed565b60408051918252519081900360200190f35b34801561022057600080fd5b506100f06106f4565b6100f0600435602435610788565b34801561024357600080fd5b506100f0600160a060020a03600435166109d1565b336001836064811061026657fe5b6004020154600160a060020a03161461027e57600080fd5b7fff00000000000000000000000000000000000000000000000000000000000000811615806102ee57507f01000000000000000000000000000000000000000000000000000000000000007fff000000000000000000000000000000000000000000000000000000000000008216145b8061033a57507f02000000000000000000000000000000000000000000000000000000000000007fff000000000000000000000000000000000000000000000000000000000000008216145b151561034557600080fd5b606482111561035357600080fd5b80610191836064811061036257fe5b602080820490920180547f0100000000000000000000000000000000000000000000000000000000000000909404601f9092166101000a91820260ff9092021990931617909155604080513381527fff00000000000000000000000000000000000000000000000000000000000000841692810192909252805184927f96be5e167640a7e4bcb747ec2016782528fb81aec87f0dbf38e9b82d28498ec992908290030190a25050565b6001816064811061041857fe5b60040201805460018201546002830154600390930154600160a060020a039092169350919084565b3360009081526101966020526040812054151561045c57600080fd5b50336000818152610196602052604080822054905190929183156108fc02918491818181858888f1935050505015801561049a573d6000803e3d6000fd5b5060408051828152905133917f2336621a29e5ed0bdae2f7d28e8ba1bd8e5443dca3c5489d70a2dcf88d0c9ad0919081900360200190a250565b600054600160a060020a031633146104eb57600080fd5b60008054604051600160a060020a03909116917ff8df31144d9c2f0f6b59d69b8b98abd5459d07f2742c4df920b25aae33c6482091a26000805473ffffffffffffffffffffffffffffffffffffffff19169055565b600054600160a060020a031681565b610191816064811061055d57fe5b60209182820401919006915054906101000a90047f01000000000000000000000000000000000000000000000000000000000000000281565b33600182606481106105a457fe5b6004020154600160a060020a0316146105bc57600080fd5b43600182606481106105ca57fe5b6004020160030154101515156105df57600080fd5b600181606481106105ec57fe5b6004020160010154348115156105fe57fe5b061561060957600080fd5b6001816064811061061657fe5b60040201600101544360018360648110151561062e57fe5b60040201600301540360018360648110151561064657fe5b600402016002015403026101956000828254019250508190555060018160648110151561066f57fe5b60040201600101543481151561068157fe5b04436001836064811061069057fe5b600402016003015403016001826064811015156106a957fe5b600402016003015560408051338152905182917f8186c6bd5148897afbd9ca2cfcdad9b52da3a5b7b858c6ccba4344e6d61f1884916020918190039190910190a250565b6101955481565b60008054600160a060020a0316331461070c57600080fd5b50610195805460009182905581546040519192600160a060020a03909116916108fc919081818181818888f1935050505015801561074e573d6000803e3d6000fd5b5060408051828152905133917f59badb5e6b548079bd10bf94b7923348082b5daad1e5ff2da8a7256e99d70b38919081900360200190a250565b34151561079457600080fd5b803481151561079f57fe5b06156107aa57600080fd5b600182606481106107b757fe5b60040201600301544311156108bf57600182606481106107d357fe5b60040201600101546001836064811015156107ea57fe5b600402016002015402610195600082825401925050819055503360018360648110151561081357fe5b60040201805473ffffffffffffffffffffffffffffffffffffffff1916600160a060020a0392909216919091179055806001836064811061085057fe5b6004020160010181905550803481151561086657fe5b04430160018360648110151561087857fe5b60040201600301556040805133815260208101839052815184927f739d67822708dc0b1f48a7caf0665fbf0f1477cfabe43eac66ffb01e094196e2928290030190a26109cd565b600182606481106108cc57fe5b6004020160010154600202811015156100ae57600182606481106108ec57fe5b60040201600101544360018460648110151561090457fe5b60040201600301540302341015151561091c57600080fd5b6001826064811061092957fe5b60040201600101544360018460648110151561094157fe5b600402016003015433600090815261019660205260409020805492909103929092020190556001826064811061097357fe5b60040201600101544360018460648110151561098b57fe5b6004020160030154036001846064811015156109a357fe5b60040201600201540302610195600082825401925050819055503360018360648110151561081357fe5b5050565b600054600160a060020a031633146109e857600080fd5b600160a060020a03811615156109fd57600080fd5b60008054604051600160a060020a03808516939216917f8be0079c531659141344cd1fd0a4f28419497f9722a3daafe3b4186f6b6457e091a36000805473ffffffffffffffffffffffffffffffffffffffff1916600160a060020a03929092169190911790555600a165627a7a723058200d6d8c58ba2016c37493081b45bba76b6787c29af335c64c682253a41769a8970029",
  "source": "pragma solidity ^0.4.21; \nimport \"./Ownable.sol\";\n\n//TODO: overflow checks\ncontract EternalCanvas is Ownable {\n    \n    struct rentAgreementStruct {\n    \taddress rentor;\n    \tuint price;\n    \tuint blocksRented;\n    \tuint untilBlock;\n    }\n    \n\trentAgreementStruct[100] public rentAgreements;\n\tbytes1[100] public pixels;\n    uint public ownerBalance;\n    mapping(address => uint) payback;\n    \n    event logRentalStarted(uint indexed position, address rentor, uint price);\n    event logRentalProlonged(uint indexed position, address rentor);\n    event logDrawn(uint indexed position, address rentor, bytes1 color);\n    event logPaybackRedeemed(address indexed beneficiary, uint value);\n    event logOwnerBalanceRedeemed(address indexed owner, uint value);\n\n    function startRental(uint position, uint _price) public payable {\n        require(msg.value != 0);\n        require(msg.value % _price == 0);\n        // if there is no previous renter...\n        if (block.number > rentAgreements[position].untilBlock) {\n            // give expired rent to owner\n            //TODO: overflow check\n            ownerBalance += (rentAgreements[position].blocksRented * rentAgreements[position].price);\n            // write new rentAgreement\n            rentAgreements[position].rentor = msg.sender;\n\t\t    rentAgreements[position].price = _price;\n\t\t    rentAgreements[position].untilBlock = (block.number + (msg.value / _price));\n\t\t    emit logRentalStarted(position, msg.sender, _price);\n        }\n        // if there is a previous renter, the new rentor must commit to a higher price\n        //TODO: assure you can do 1.2 * (...)\n    \telse if ((_price >= 2 * rentAgreements[position].price)) {\n    \t    //only rent out if the value of the new rentor is more than the value left by the previous rentor...\n    \t    require(msg.value >= (rentAgreements[position].untilBlock - block.number) * rentAgreements[position].price);\n    \t    //and payback the previous rentor\n    \t\t//TODO: overflow check\n\t\t\tpayback[msg.sender] += ((rentAgreements[position].untilBlock - block.number) * rentAgreements[position].price);\n\t\t\t// give expired rent to owner\n\t\t\townerBalance += ((rentAgreements[position].blocksRented - (rentAgreements[position].untilBlock - block.number)) * rentAgreements[position].price); \n\t    \t// write new rentAgreement\n            rentAgreements[position].rentor = msg.sender;\n\t\t    rentAgreements[position].price = _price;\n\t\t    rentAgreements[position].untilBlock = (block.number + (msg.value / _price));\n\t\t    emit logRentalStarted(position, msg.sender, _price);\n\t\t} else {\n\t\t    revert();\n\t\t}\n    }\n    \n    function prolongRental(uint position) public payable {\n        require(rentAgreements[position].rentor == msg.sender);\n        require(rentAgreements[position].untilBlock >= block.number);\n        require(msg.value % rentAgreements[position].price == 0);\n        ownerBalance += ((rentAgreements[position].blocksRented - (rentAgreements[position].untilBlock - block.number)) * rentAgreements[position].price); \n        rentAgreements[position].untilBlock = rentAgreements[position].untilBlock - block.number + (msg.value / rentAgreements[position].price);\n        emit logRentalProlonged(position, msg.sender);\n    }\n\n    function draw(uint position, bytes1 color) public {\n        require(rentAgreements[position].rentor == msg.sender);\n        require(color == 0 || color == 1 || color == 2);\n        require(position <= 100);\n        pixels[position] = color;\n        emit logDrawn(position, msg.sender, color);\n    }\n    \n    function redeemPayback() public {\n        require(payback[msg.sender] != 0);\n        uint value = payback[msg.sender];\n        payback[msg.sender] == 0;\n        msg.sender.transfer(value);\n        emit logPaybackRedeemed(msg.sender, value);\n    }\n    \n    function redeemOwnerBalance() onlyOwner public {\n        uint value = ownerBalance;\n        ownerBalance = 0;\n        owner.transfer(ownerBalance);\n        emit logOwnerBalanceRedeemed(msg.sender, value);\n    }\n}\n",
  "sourcePath": "/home/rinke/DAPPS/EternalCanvas/contracts/EternalCanvas.sol",
  "compiler": {
    "name": "solc",
    "version": "0.4.24+commit.e67f0147.Emscripten.clang"
  },
  "schemaVersion": "2.0.0",
  "updatedAt": "2018-06-02T08:45:03.747Z"
}