{
  "contractName": "RockPaperScissors",
  "abi": [
    {
      "constant": true,
      "inputs": [
        {
          "name": "",
          "type": "address"
        }
      ],
      "name": "balances",
      "outputs": [
        {
          "name": "",
          "type": "uint256"
        }
      ],
      "payable": false,
      "stateMutability": "view",
      "type": "function"
    },
    {
      "constant": true,
      "inputs": [
        {
          "name": "",
          "type": "address"
        }
      ],
      "name": "games",
      "outputs": [
        {
          "name": "stage",
          "type": "uint256"
        },
        {
          "name": "bet",
          "type": "uint256"
        },
        {
          "name": "hiddenMove",
          "type": "bytes32"
        },
        {
          "name": "initialTime",
          "type": "uint256"
        },
        {
          "name": "secondMove",
          "type": "uint8"
        },
        {
          "name": "secondPlayer",
          "type": "address"
        },
        {
          "name": "secondTime",
          "type": "uint256"
        }
      ],
      "payable": false,
      "stateMutability": "view",
      "type": "function"
    },
    {
      "inputs": [
        {
          "name": "_duration",
          "type": "uint256"
        }
      ],
      "payable": false,
      "stateMutability": "nonpayable",
      "type": "constructor"
    },
    {
      "anonymous": false,
      "inputs": [
        {
          "indexed": false,
          "name": "_hiddenMove",
          "type": "bytes32"
        },
        {
          "indexed": true,
          "name": "_firstPlayer",
          "type": "address"
        },
        {
          "indexed": true,
          "name": "_secondPlayer",
          "type": "address"
        },
        {
          "indexed": false,
          "name": "_value",
          "type": "uint256"
        }
      ],
      "name": "logNewPlay",
      "type": "event"
    },
    {
      "anonymous": false,
      "inputs": [
        {
          "indexed": true,
          "name": "_firstPlayer",
          "type": "address"
        },
        {
          "indexed": false,
          "name": "_move",
          "type": "uint8"
        }
      ],
      "name": "logAcceptPlay",
      "type": "event"
    },
    {
      "anonymous": false,
      "inputs": [
        {
          "indexed": false,
          "name": "_secret",
          "type": "string"
        },
        {
          "indexed": false,
          "name": "_firstMove",
          "type": "uint8"
        },
        {
          "indexed": true,
          "name": "_firstPlayer",
          "type": "address"
        }
      ],
      "name": "logFinishPlay",
      "type": "event"
    },
    {
      "anonymous": false,
      "inputs": [
        {
          "indexed": false,
          "name": "_sender",
          "type": "address"
        }
      ],
      "name": "logWithdrawGame",
      "type": "event"
    },
    {
      "anonymous": false,
      "inputs": [
        {
          "indexed": false,
          "name": "_amount",
          "type": "uint256"
        },
        {
          "indexed": true,
          "name": "_winner",
          "type": "address"
        }
      ],
      "name": "logClaimPrize",
      "type": "event"
    },
    {
      "constant": false,
      "inputs": [
        {
          "name": "_hiddenMove",
          "type": "bytes32"
        },
        {
          "name": "_secondPlayer",
          "type": "address"
        }
      ],
      "name": "newPlay",
      "outputs": [],
      "payable": true,
      "stateMutability": "payable",
      "type": "function"
    },
    {
      "constant": false,
      "inputs": [
        {
          "name": "firstPlayer",
          "type": "address"
        },
        {
          "name": "_move",
          "type": "uint8"
        }
      ],
      "name": "acceptPlay",
      "outputs": [],
      "payable": true,
      "stateMutability": "payable",
      "type": "function"
    },
    {
      "constant": false,
      "inputs": [
        {
          "name": "_secret",
          "type": "string"
        },
        {
          "name": "_firstMove",
          "type": "uint8"
        }
      ],
      "name": "finishPlay",
      "outputs": [],
      "payable": false,
      "stateMutability": "nonpayable",
      "type": "function"
    },
    {
      "constant": false,
      "inputs": [
        {
          "name": "_firstPlayer",
          "type": "address"
        }
      ],
      "name": "withdrawGame",
      "outputs": [],
      "payable": false,
      "stateMutability": "nonpayable",
      "type": "function"
    },
    {
      "constant": false,
      "inputs": [],
      "name": "claimPrize",
      "outputs": [],
      "payable": false,
      "stateMutability": "nonpayable",
      "type": "function"
    }
  ],
  "bytecode": "0x6060604052341561000f57600080fd5b6040516020806117a2833981016040528080519060200190919050508060008190555050611760806100426000396000f300606060405260043610610083576000357c0100000000000000000000000000000000000000000000000000000000900463ffffffff1680631456dd611461008857806327e235e3146100c1578063301315c61461010e57806345933ead1461014857806370740ac9146101b157806379131a19146101c6578063c474d24114610277575b600080fd5b341561009357600080fd5b6100bf600480803573ffffffffffffffffffffffffffffffffffffffff169060200190919050506102b2565b005b34156100cc57600080fd5b6100f8600480803573ffffffffffffffffffffffffffffffffffffffff169060200190919050506106a4565b6040518082815260200191505060405180910390f35b610146600480803573ffffffffffffffffffffffffffffffffffffffff1690602001909190803560ff169060200190919050506106bc565b005b341561015357600080fd5b6101af600480803590602001908201803590602001908080601f0160208091040260200160405190810160405280939291908181526020018383808284378201915050505050509190803560ff16906020019091905050610b56565b005b34156101bc57600080fd5b6101c461124e565b005b34156101d157600080fd5b6101fd600480803573ffffffffffffffffffffffffffffffffffffffff169060200190919050506113b6565b6040518088815260200187815260200186600019166000191681526020018581526020018460ff1660ff1681526020018373ffffffffffffffffffffffffffffffffffffffff1673ffffffffffffffffffffffffffffffffffffffff16815260200182815260200197505050505050505060405180910390f35b6102b060048080356000191690602001909190803573ffffffffffffffffffffffffffffffffffffffff16906020019091905050611425565b005b6000600160008373ffffffffffffffffffffffffffffffffffffffff1673ffffffffffffffffffffffffffffffffffffffff168152602001908152602001600020600001541415151561030457600080fd5b60018060008373ffffffffffffffffffffffffffffffffffffffff1673ffffffffffffffffffffffffffffffffffffffff1681526020019081526020016000206000015414156104735743600054600160008473ffffffffffffffffffffffffffffffffffffffff1673ffffffffffffffffffffffffffffffffffffffff16815260200190815260200160002060030154011015156103a257600080fd5b6000600160008373ffffffffffffffffffffffffffffffffffffffff1673ffffffffffffffffffffffffffffffffffffffff1681526020019081525050600160008273ffffffffffffffffffffffffffffffffffffffff1673ffffffffffffffffffffffffffffffffffffffff16815260200190815260200160002060010154600260008373ffffffffffffffffffffffffffffffffffffffff1673ffffffffffffffffffffffffffffffffffffffff1681526020019081526020016000206000828254019250508190555061063e565b43600054600160008473ffffffffffffffffffffffffffffffffffffffff1673ffffffffffffffffffffffffffffffffffffffff16815260200190815260200160002060050154011015156104c757600080fd5b3373ffffffffffffffffffffffffffffffffffffffff16600160008373ffffffffffffffffffffffffffffffffffffffff1673ffffffffffffffffffffffffffffffffffffffff16815260200190815260200160002060040160019054906101000a900473ffffffffffffffffffffffffffffffffffffffff1673ffffffffffffffffffffffffffffffffffffffff1614151561056357600080fd5b6000600160008373ffffffffffffffffffffffffffffffffffffffff1673ffffffffffffffffffffffffffffffffffffffff168152602001908152602001600020600001819055506002600160008373ffffffffffffffffffffffffffffffffffffffff1673ffffffffffffffffffffffffffffffffffffffff1681526020019081526020016000206001015402600260003373ffffffffffffffffffffffffffffffffffffffff1673ffffffffffffffffffffffffffffffffffffffff168152602001908152602001600020600082825401925050819055505b7fc2ed58a2746be042ee0803bcb7911bcff4a019497dcf7ed74870a6409a2c728033604051808273ffffffffffffffffffffffffffffffffffffffff1673ffffffffffffffffffffffffffffffffffffffff16815260200191505060405180910390a150565b60026020528060005260406000206000915090505481565b60018060008473ffffffffffffffffffffffffffffffffffffffff1673ffffffffffffffffffffffffffffffffffffffff1681526020019081526020016000206000015414151561070c57600080fd5b6000604051808273ffffffffffffffffffffffffffffffffffffffff1673ffffffffffffffffffffffffffffffffffffffff166c01000000000000000000000000028152601401915050604051809103902060001916600160008473ffffffffffffffffffffffffffffffffffffffff1673ffffffffffffffffffffffffffffffffffffffff16815260200190815260200160002060040160019054906101000a900473ffffffffffffffffffffffffffffffffffffffff16604051808273ffffffffffffffffffffffffffffffffffffffff1673ffffffffffffffffffffffffffffffffffffffff166c0100000000000000000000000002815260140191505060405180910390206000191614156108a55733600160008473ffffffffffffffffffffffffffffffffffffffff1673ffffffffffffffffffffffffffffffffffffffff16815260200190815260200160002060040160016101000a81548173ffffffffffffffffffffffffffffffffffffffff021916908373ffffffffffffffffffffffffffffffffffffffff160217905550610942565b3373ffffffffffffffffffffffffffffffffffffffff16600160008473ffffffffffffffffffffffffffffffffffffffff1673ffffffffffffffffffffffffffffffffffffffff16815260200190815260200160002060040160019054906101000a900473ffffffffffffffffffffffffffffffffffffffff1673ffffffffffffffffffffffffffffffffffffffff1614151561094157600080fd5b5b34600160008473ffffffffffffffffffffffffffffffffffffffff1673ffffffffffffffffffffffffffffffffffffffff1681526020019081526020016000206001015414151561099257600080fd5b43600054600160008573ffffffffffffffffffffffffffffffffffffffff1673ffffffffffffffffffffffffffffffffffffffff16815260200190815260200160002060030154011115156109e657600080fd5b60018160ff1614806109fb575060028160ff16145b80610a09575060038160ff16145b1515610a1457600080fd5b6002600160008473ffffffffffffffffffffffffffffffffffffffff1673ffffffffffffffffffffffffffffffffffffffff1681526020019081526020016000206000018190555080600160008473ffffffffffffffffffffffffffffffffffffffff1673ffffffffffffffffffffffffffffffffffffffff16815260200190815260200160002060040160006101000a81548160ff021916908360ff16021790555043600160008473ffffffffffffffffffffffffffffffffffffffff1673ffffffffffffffffffffffffffffffffffffffff168152602001908152602001600020600501819055508173ffffffffffffffffffffffffffffffffffffffff167f88d5c7b170bdd2f5649e2301ce6e1b51484d245e756193b6d76e3b971f6eea9f82604051808260ff1660ff16815260200191505060405180910390a25050565b6002600160003373ffffffffffffffffffffffffffffffffffffffff1673ffffffffffffffffffffffffffffffffffffffff16815260200190815260200160002060000154141515610ba757600080fd5b600160003373ffffffffffffffffffffffffffffffffffffffff1673ffffffffffffffffffffffffffffffffffffffff16815260200190815260200160002060020154600019168183604051808360ff1660ff167f010000000000000000000000000000000000000000000000000000000000000002815260010182805190602001908083835b602083101515610c535780518252602082019150602081019050602083039250610c2e565b6001836020036101000a03801982511681845116808217855250505050505090500192505050604051809103902060001916141515610c9157600080fd5b6000600160003373ffffffffffffffffffffffffffffffffffffffff1673ffffffffffffffffffffffffffffffffffffffff16815260200190815260200160002060000181905550600160003373ffffffffffffffffffffffffffffffffffffffff1673ffffffffffffffffffffffffffffffffffffffff16815260200190815260200160002060040160009054906101000a900460ff1660ff168160ff161415610ebb57600160003373ffffffffffffffffffffffffffffffffffffffff1673ffffffffffffffffffffffffffffffffffffffff16815260200190815260200160002060010154600260003373ffffffffffffffffffffffffffffffffffffffff1673ffffffffffffffffffffffffffffffffffffffff16815260200190815260200160002060008282540192505081905550600160003373ffffffffffffffffffffffffffffffffffffffff1673ffffffffffffffffffffffffffffffffffffffff1681526020019081526020016000206001015460026000600160003373ffffffffffffffffffffffffffffffffffffffff1673ffffffffffffffffffffffffffffffffffffffff16815260200190815260200160002060040160019054906101000a900473ffffffffffffffffffffffffffffffffffffffff1673ffffffffffffffffffffffffffffffffffffffff1673ffffffffffffffffffffffffffffffffffffffff16815260200190815260200160002060008282540192505081905550611189565b60018160ff16148015610f2057506003600160003373ffffffffffffffffffffffffffffffffffffffff1673ffffffffffffffffffffffffffffffffffffffff16815260200190815260200160002060040160009054906101000a900460ff1660ff16145b80610f8b575060028160ff16148015610f8a575060018060003373ffffffffffffffffffffffffffffffffffffffff1673ffffffffffffffffffffffffffffffffffffffff16815260200190815260200160002060040160009054906101000a900460ff1660ff16145b5b80610ff7575060038160ff16148015610ff657506002600160003373ffffffffffffffffffffffffffffffffffffffff1673ffffffffffffffffffffffffffffffffffffffff16815260200190815260200160002060040160009054906101000a900460ff1660ff16145b5b15611093576002600160003373ffffffffffffffffffffffffffffffffffffffff1673ffffffffffffffffffffffffffffffffffffffff1681526020019081526020016000206001015402600260003373ffffffffffffffffffffffffffffffffffffffff1673ffffffffffffffffffffffffffffffffffffffff16815260200190815260200160002060008282540192505081905550611188565b6002600160003373ffffffffffffffffffffffffffffffffffffffff1673ffffffffffffffffffffffffffffffffffffffff168152602001908152602001600020600101540260026000600160003373ffffffffffffffffffffffffffffffffffffffff1673ffffffffffffffffffffffffffffffffffffffff16815260200190815260200160002060040160019054906101000a900473ffffffffffffffffffffffffffffffffffffffff1673ffffffffffffffffffffffffffffffffffffffff1673ffffffffffffffffffffffffffffffffffffffff168152602001908152602001600020600082825401925050819055505b5b3373ffffffffffffffffffffffffffffffffffffffff167faec3a3ba7f13c93fa714a2782138f1a176b667607bca6c57d9b2a7b3324eec35838360405180806020018360ff1660ff168152602001828103825284818151815260200191508051906020019080838360005b8381101561120f5780820151818401526020810190506111f4565b50505050905090810190601f16801561123c5780820380516001836020036101000a031916815260200191505b50935050505060405180910390a25050565b600080600260003373ffffffffffffffffffffffffffffffffffffffff1673ffffffffffffffffffffffffffffffffffffffff168152602001908152602001600020541415151561129e57600080fd5b600260003373ffffffffffffffffffffffffffffffffffffffff1673ffffffffffffffffffffffffffffffffffffffff1681526020019081526020016000205490506000600260003373ffffffffffffffffffffffffffffffffffffffff1673ffffffffffffffffffffffffffffffffffffffff168152602001908152602001600020819055503373ffffffffffffffffffffffffffffffffffffffff167f589d0362cd90ce09cab9c29ba9f8beda58a9f06e9bd24bbe872852e5f1a94807826040518082815260200191505060405180910390a23373ffffffffffffffffffffffffffffffffffffffff166108fc829081150290604051600060405180830381858888f1935050505015156113b357600080fd5b50565b60016020528060005260406000206000915090508060000154908060010154908060020154908060030154908060040160009054906101000a900460ff16908060040160019054906101000a900473ffffffffffffffffffffffffffffffffffffffff16908060050154905087565b6000600160003373ffffffffffffffffffffffffffffffffffffffff1673ffffffffffffffffffffffffffffffffffffffff1681526020019081526020016000206000015414151561147657600080fd5b60018060003373ffffffffffffffffffffffffffffffffffffffff1673ffffffffffffffffffffffffffffffffffffffff1681526020019081526020016000206000018190555034600160003373ffffffffffffffffffffffffffffffffffffffff1673ffffffffffffffffffffffffffffffffffffffff1681526020019081526020016000206001018190555081600160003373ffffffffffffffffffffffffffffffffffffffff1673ffffffffffffffffffffffffffffffffffffffff168152602001908152602001600020600201816000191690555043600160003373ffffffffffffffffffffffffffffffffffffffff1673ffffffffffffffffffffffffffffffffffffffff1681526020019081526020016000206003018190555080600160003373ffffffffffffffffffffffffffffffffffffffff1673ffffffffffffffffffffffffffffffffffffffff16815260200190815260200160002060040160016101000a81548173ffffffffffffffffffffffffffffffffffffffff021916908373ffffffffffffffffffffffffffffffffffffffff160217905550600160003373ffffffffffffffffffffffffffffffffffffffff1673ffffffffffffffffffffffffffffffffffffffff16815260200190815260200160002060040160019054906101000a900473ffffffffffffffffffffffffffffffffffffffff1673ffffffffffffffffffffffffffffffffffffffff163373ffffffffffffffffffffffffffffffffffffffff167f7a03091b5f64627f689c81cb583b2cfa2c2f8fa331bc1301e4ee5d257a508c88600160003373ffffffffffffffffffffffffffffffffffffffff1673ffffffffffffffffffffffffffffffffffffffff16815260200190815260200160002060020154346040518083600019166000191681526020018281526020019250505060405180910390a350505600a165627a7a723058208754d469b5efa89c552eaf6eb9b01b926b812527432ffbf26a466b37525d98be0029",
  "source": "//TODO make withdrawGame neater\n// TODO run solidity checker (somewhere a link was give)\n\npragma solidity ^0.4.19;\n\ncontract RockPaperScissors {\n    \n    // duration is given in blocks and is initialized at contract deployment.\n    uint duration;\n    \n    // these variables are needed to keep track of during the game. \n    // Rock == 1, Scissors == 2, Stone == 3.\n    struct Game {\n        uint stage;\n        uint bet;\n        bytes32 hiddenMove;\n        uint initialTime;\n        uint8 secondMove;\n        address secondPlayer;\n        uint secondTime;\n    }\n    \n    // we map an address (the person who makes the first move) to the game variables.\n    mapping(address => Game) public games;\n    \n    // this map is to keep track of the payouts (which can be claimed by the players at will)\n    mapping(address => uint) public balances;\n    \n    // TODO! Events\n    // constructor -> we set duration\n    function RockPaperScissors(uint _duration) {\n        duration = _duration;\n    }\n    \n    event logNewPlay(bytes32 _hiddenMove, address indexed _firstPlayer, address indexed _secondPlayer, uint _value);\n    event logAcceptPlay(address indexed _firstPlayer, uint8 _move);\n    event logFinishPlay(string _secret, uint8 _firstMove, address indexed _firstPlayer);\n    event logWithdrawGame(address _sender);\n    event logClaimPrize(uint _amount, address indexed _winner);\n    // Everybody can call the function newPlay, given that he is not currently playing another game (stage = 0). The bet amount is set to msg.value.\n    // At this point, the player cannot submit his move unhidden, since otherwise it would be very easy for player two to win. HiddenMove is essentially a hash of \n    // a password and a move. firstPlayer can reveal at a later stage the authenticity of his move by providing the password, together with his move.\n    function newPlay(bytes32 _hiddenMove, address _secondPlayer) public payable {\n        require(games[msg.sender].stage == 0);\n        games[msg.sender].stage = 1;\n        games[msg.sender].bet = msg.value;\n        games[msg.sender].hiddenMove = _hiddenMove;\n        games[msg.sender].initialTime = block.number;\n        // secondPlayer. If left blank, anybody can accept the play.\n        games[msg.sender].secondPlayer = _secondPlayer;\n\n        logNewPlay(games[msg.sender].hiddenMove, msg.sender, games[msg.sender].secondPlayer, msg.value);\n    }\n    \n    // This function can be called by the secondPlayer or anybody (depending on how firstPlayer started the game). \n    function acceptPlay(address firstPlayer, uint8 _move) public payable {\n        require(games[firstPlayer].stage == 1);\n        \n        // if secondPlayer is left blank, anybody can accept the play and msg.sender will become the secondPlayer,\n        if(keccak256(games[firstPlayer].secondPlayer) == keccak256(0x0000000000000000000000000000000000000000)) {\n            games[firstPlayer].secondPlayer = msg.sender;\n        } else {\n            // otherwise, msg.sender has to be the secondPlayer\n            require(games[firstPlayer].secondPlayer == msg.sender);\n        }\n        // the bet has to be matched with an equal amount\n        require(games[firstPlayer].bet == msg.value);\n        // the initialTime cannot be too far in the past\n        require((games[firstPlayer].initialTime + duration) > block.number);\n        // we have to check wether playerTwo submits a valid move.\n        require(_move == 1 || _move == 2 || _move == 3);\n        games[firstPlayer].stage = 2;\n        games[firstPlayer].secondMove = _move;\n        games[firstPlayer].secondTime = block.number;\n\n        logAcceptPlay(firstPlayer, _move);\n    }\n    \n    // This function requires the firstPlayer to submit his secret and move. If he does not provide these, the contract assumes he lost\n    // and after a duration, secondPlayer will be able to claim the prize. If firstPlayer submitted an invalid move, the contract automatically\n    // assigns the prize to secondPlayer. \n    function finishPlay(string _secret, uint8 _firstMove) public {\n         require(games[msg.sender].stage == 2);\n        \n        // if incorrect values were passed, the function reverts. \n        require(keccak256(_firstMove, _secret) == games[msg.sender].hiddenMove);\n        games[msg.sender].stage = 0;\n        \n        // tie\n        if(_firstMove == games[msg.sender].secondMove) {\n            balances[msg.sender] += games[msg.sender].bet;\n            balances[games[msg.sender].secondPlayer] += games[msg.sender].bet;\n        } \n        // firstPlayer wins\n        else if\n        (\n            (_firstMove == 1 && games[msg.sender].secondMove == 3) ||\n            (_firstMove == 2 && games[msg.sender].secondMove == 1) ||\n            (_firstMove == 3 && games[msg.sender].secondMove == 2)\n        ) {\n            balances[msg.sender] += (games[msg.sender].bet * 2);\n        }\n        // secondPlayer wins\n        else {\n            balances[games[msg.sender].secondPlayer] += (games[msg.sender].bet * 2);\n        }\n\n        logFinishPlay(_secret, _firstMove, msg.sender);\n        \n    }\n    \n    // this function can be called if the game is in stage one or two if the duration has passed. If the function is called in stage one, the contract pays out\n    // the bet to firstPlayer. If the function is called in stage two, the contract pays out the bet to secondPlayer.\n    function withdrawGame(address _firstPlayer) public {\n        require(games[_firstPlayer].stage != 0);\n\n        if(games[_firstPlayer].stage ==1) {\n            require((games[_firstPlayer].initialTime + duration) < block.number);\n            games[_firstPlayer].stage == 0;\n            balances[_firstPlayer] += games[_firstPlayer].bet;\n        } else {\n            require((games[_firstPlayer].secondTime + duration) < block.number);\n            require(games[_firstPlayer].secondPlayer == msg.sender);\n            games[_firstPlayer].stage = 0;\n            balances[msg.sender] += (games[_firstPlayer].bet * 2);\n        }\n        logWithdrawGame(msg.sender);\n    }\n\n     // anybody who has a prize to claim can call this function and his prize will be paid out\n    function claimPrize() public {\n        require(balances[msg.sender] != 0);\n        uint amount = balances[msg.sender];\n        balances[msg.sender] = 0;\n        logClaimPrize(amount, msg.sender);\n        msg.sender.transfer(amount);\n    }\n    \n}\n\n",
  "sourcePath": "/home/rinke/DAPPS/B9/rockPaperScissors/contracts/RockPaperScissors.sol",
  "compiler": {
    "name": "solc",
    "version": "0.4.19+commit.c4cbbb05.Emscripten.clang"
  },
  "schemaVersion": "2.0.0",
  "updatedAt": "2018-03-27T11:14:01.592Z"
}