{
  "contractName": "Mortal",
  "abi": [
    {
      "constant": false,
      "inputs": [],
      "name": "kill",
      "outputs": [
        {
          "name": "",
          "type": "bool"
        }
      ],
      "payable": false,
      "stateMutability": "nonpayable",
      "type": "function"
    },
    {
      "constant": true,
      "inputs": [],
      "name": "alice",
      "outputs": [
        {
          "name": "",
          "type": "address"
        }
      ],
      "payable": false,
      "stateMutability": "view",
      "type": "function"
    },
    {
      "anonymous": false,
      "inputs": [
        {
          "indexed": false,
          "name": "_kill",
          "type": "bool"
        },
        {
          "indexed": true,
          "name": "_sender",
          "type": "address"
        }
      ],
      "name": "logKill",
      "type": "event"
    }
  ],
  "bytecode": "0x60606040526001600060146101000a81548160ff021916908315150217905550336000806101000a81548173ffffffffffffffffffffffffffffffffffffffff021916908373ffffffffffffffffffffffffffffffffffffffff1602179055506101b08061006e6000396000f30060606040526004361061004c576000357c0100000000000000000000000000000000000000000000000000000000900463ffffffff16806341c0e1b514610051578063fb47e3a21461007e575b600080fd5b341561005c57600080fd5b6100646100d3565b604051808215151515815260200191505060405180910390f35b341561008957600080fd5b61009161015f565b604051808273ffffffffffffffffffffffffffffffffffffffff1673ffffffffffffffffffffffffffffffffffffffff16815260200191505060405180910390f35b60008060009054906101000a900473ffffffffffffffffffffffffffffffffffffffff1673ffffffffffffffffffffffffffffffffffffffff163373ffffffffffffffffffffffffffffffffffffffff1614151561013057600080fd5b60008060146101000a81548160ff021916908315150217905550600060149054906101000a900460ff16905090565b6000809054906101000a900473ffffffffffffffffffffffffffffffffffffffff16815600a165627a7a72305820bda520a5cda565c87a55033bcfe649ac1946f84150a7b01bd1c3fd55b986cc7f0029",
  "source": "pragma solidity ^0.4.19;\n\ncontract Owned {\n\n    address public alice;\n\n    event logKill(bool _kill, address indexed _sender);\n\n    /*this function is executed at initialization and sets the owner of the contract */\n    function Owned() { \n    alice = msg.sender; }\n\n    modifier onlyAlice() {\n        require(msg.sender == alice);\n        _;\n    }\n}\n\ncontract Mortal is Owned {\n        bool alive = true;\n    /* Function to recover the funds on the contract */\n    function kill() public onlyAlice() returns(bool) {\n        alive = false;\n        return (alive);\n    }\n\n    modifier isAlive() {\n        require(alive);\n        _;\n    }\n\n}",
  "sourcePath": "/home/rinke/DAPPS/B9/splitter/contracts/Initialize.sol",
  "compiler": {
    "name": "solc",
    "version": "0.4.19+commit.c4cbbb05.Emscripten.clang"
  },
  "schemaVersion": "2.0.0",
  "updatedAt": "2018-03-16T21:00:15.176Z"
}