{
  "contractName": "Owned",
  "abi": [
    {
      "constant": true,
      "inputs": [],
      "name": "alice",
      "outputs": [
        {
          "name": "",
          "type": "address"
        }
      ],
      "payable": false,
      "stateMutability": "view",
      "type": "function"
    },
    {
      "inputs": [],
      "payable": false,
      "stateMutability": "nonpayable",
      "type": "constructor"
    },
    {
      "anonymous": false,
      "inputs": [
        {
          "indexed": false,
          "name": "_kill",
          "type": "bool"
        },
        {
          "indexed": true,
          "name": "_sender",
          "type": "address"
        }
      ],
      "name": "logKill",
      "type": "event"
    }
  ],
  "bytecode": "0x6060604052341561000f57600080fd5b336000806101000a81548173ffffffffffffffffffffffffffffffffffffffff021916908373ffffffffffffffffffffffffffffffffffffffff16021790555060e78061005d6000396000f300606060405260043610603f576000357c0100000000000000000000000000000000000000000000000000000000900463ffffffff168063fb47e3a2146044575b600080fd5b3415604e57600080fd5b60546096565b604051808273ffffffffffffffffffffffffffffffffffffffff1673ffffffffffffffffffffffffffffffffffffffff16815260200191505060405180910390f35b6000809054906101000a900473ffffffffffffffffffffffffffffffffffffffff16815600a165627a7a7230582053d4dc2ad3b959a9c7b1b663d4b93aae1e98090f872c836150d77830aad576070029",
  "source": "pragma solidity ^0.4.19;\n\ncontract Owned {\n\n    address public alice;\n\n    event logKill(bool _kill, address indexed _sender);\n\n    /*this function is executed at initialization and sets the owner of the contract */\n    function Owned() { \n    alice = msg.sender; }\n\n    modifier onlyAlice() {\n        require(msg.sender == alice);\n        _;\n    }\n}\n\ncontract Mortal is Owned {\n        bool alive = true;\n    /* Function to recover the funds on the contract */\n    function kill() public onlyAlice() returns(bool) {\n        alive = false;\n        return (alive);\n    }\n\n    modifier isAlive() {\n        require(alive);\n        _;\n    }\n\n}",
  "sourcePath": "/home/rinke/DAPPS/B9/splitter/contracts/Initialize.sol",
  "compiler": {
    "name": "solc",
    "version": "0.4.19+commit.c4cbbb05.Emscripten.clang"
  },
  "schemaVersion": "2.0.0",
  "updatedAt": "2018-03-16T21:00:15.176Z"
}