{
  "contractName": "Splitter",
  "abi": [
    {
      "inputs": [
        {
          "name": "_bob",
          "type": "address"
        },
        {
          "name": "_carol",
          "type": "address"
        }
      ],
      "payable": true,
      "stateMutability": "payable",
      "type": "constructor"
    },
    {
      "payable": true,
      "stateMutability": "payable",
      "type": "fallback"
    },
    {
      "constant": true,
      "inputs": [],
      "name": "getBalance",
      "outputs": [
        {
          "name": "",
          "type": "uint256"
        }
      ],
      "payable": false,
      "stateMutability": "view",
      "type": "function"
    },
    {
      "constant": false,
      "inputs": [],
      "name": "splitAlice",
      "outputs": [
        {
          "name": "",
          "type": "bool"
        }
      ],
      "payable": true,
      "stateMutability": "payable",
      "type": "function"
    },
    {
      "constant": true,
      "inputs": [],
      "name": "getIndividualBalance",
      "outputs": [
        {
          "name": "",
          "type": "uint256"
        },
        {
          "name": "",
          "type": "uint256"
        },
        {
          "name": "",
          "type": "uint256"
        }
      ],
      "payable": false,
      "stateMutability": "view",
      "type": "function"
    }
  ],
  "bytecode": "0x606060405260405160408061041d83398101604052808051906020019091908051906020019091905050336000806101000a81548173ffffffffffffffffffffffffffffffffffffffff021916908373ffffffffffffffffffffffffffffffffffffffff16021790555081600160006101000a81548173ffffffffffffffffffffffffffffffffffffffff021916908373ffffffffffffffffffffffffffffffffffffffff16021790555080600260006101000a81548173ffffffffffffffffffffffffffffffffffffffff021916908373ffffffffffffffffffffffffffffffffffffffff1602179055505050610321806100fc6000396000f300606060405260043610610056576000357c0100000000000000000000000000000000000000000000000000000000900463ffffffff168062c1676c14610058578063066b45a41461007a57806312065fe0146100b1575b005b6100606100da565b604051808215151515815260200191505060405180910390f35b341561008557600080fd5b61008d610219565b60405180848152602001838152602001828152602001935050505060405180910390f35b34156100bc57600080fd5b6100c46102d6565b6040518082815260200191505060405180910390f35b60008060008060009054906101000a900473ffffffffffffffffffffffffffffffffffffffff1673ffffffffffffffffffffffffffffffffffffffff163373ffffffffffffffffffffffffffffffffffffffff1614151561013a57600080fd5b34915060028281151561014957fe5b049050600160009054906101000a900473ffffffffffffffffffffffffffffffffffffffff1673ffffffffffffffffffffffffffffffffffffffff166108fc829081150290604051600060405180830381858888f1935050505015156101ae57600080fd5b600260009054906101000a900473ffffffffffffffffffffffffffffffffffffffff1673ffffffffffffffffffffffffffffffffffffffff166108fc829081150290604051600060405180830381858888f19350505050151561021057600080fd5b60019250505090565b60008060008060009054906101000a900473ffffffffffffffffffffffffffffffffffffffff1673ffffffffffffffffffffffffffffffffffffffff1631600160009054906101000a900473ffffffffffffffffffffffffffffffffffffffff1673ffffffffffffffffffffffffffffffffffffffff1631600260009054906101000a900473ffffffffffffffffffffffffffffffffffffffff1673ffffffffffffffffffffffffffffffffffffffff1631925092509250909192565b60003073ffffffffffffffffffffffffffffffffffffffff16319050905600a165627a7a72305820a38c8c49748478a033281278b261f28cf2db76d1a9cb153383fc05db78385e4d0029",
  "source": "pragma solidity ^0.4.17;\n\ncontract Splitter {\n\taddress alice;\n\taddress bob;\n\taddress carol;\n\n\tfunction Splitter(address _bob, address _carol) public payable {\n\t\talice = msg.sender;\n\t\tbob = _bob;\n\t\tcarol = _carol;\n\t}\n\n\tfunction getBalance() public view returns (uint) {\n\t\treturn this.balance;\n\t}\n\n\tfunction splitAlice() public payable returns (bool) {\n\t\trequire(msg.sender == alice);\n\t\tuint value = msg.value;\n\t\tuint half = value /2;\n\t\tbob.transfer(half);\n\t\tcarol.transfer(half);\n\t\treturn true;\n\t}\n\n\tfunction getIndividualBalance() public view returns (\n\t\tuint,\n\t\tuint,\n\t\tuint) {\n\n\t\treturn(alice.balance, bob.balance, carol.balance);\n\t\t    \n\t\t}\n\n\n\tfunction() public payable {\n\n\t}\n}",
  "sourcePath": "/home/rinke/DAPPS/splitter/contracts/splitter.sol",
  "compiler": {
    "name": "solc",
    "version": "0.4.19+commit.c4cbbb05.Emscripten.clang"
  },
  "schemaVersion": "2.0.0",
  "updatedAt": "2018-03-04T22:13:28.115Z"
}