{
  "contractName": "Remittance",
  "abi": [
    {
      "constant": true,
      "inputs": [],
      "name": "alive",
      "outputs": [
        {
          "name": "",
          "type": "bool"
        }
      ],
      "payable": false,
      "stateMutability": "view",
      "type": "function"
    },
    {
      "constant": true,
      "inputs": [
        {
          "name": "",
          "type": "address"
        }
      ],
      "name": "nonces",
      "outputs": [
        {
          "name": "",
          "type": "uint256"
        }
      ],
      "payable": false,
      "stateMutability": "view",
      "type": "function"
    },
    {
      "constant": true,
      "inputs": [],
      "name": "owner",
      "outputs": [
        {
          "name": "",
          "type": "address"
        }
      ],
      "payable": false,
      "stateMutability": "view",
      "type": "function"
    },
    {
      "constant": true,
      "inputs": [
        {
          "name": "",
          "type": "bytes32"
        }
      ],
      "name": "contracts",
      "outputs": [
        {
          "name": "value",
          "type": "uint256"
        },
        {
          "name": "deadline",
          "type": "uint256"
        }
      ],
      "payable": false,
      "stateMutability": "view",
      "type": "function"
    },
    {
      "inputs": [],
      "payable": false,
      "stateMutability": "nonpayable",
      "type": "constructor"
    },
    {
      "anonymous": false,
      "inputs": [
        {
          "indexed": true,
          "name": "_sender",
          "type": "address"
        },
        {
          "indexed": false,
          "name": "_value",
          "type": "uint256"
        },
        {
          "indexed": false,
          "name": "_nonce",
          "type": "uint256"
        },
        {
          "indexed": true,
          "name": "_exchange",
          "type": "address"
        },
        {
          "indexed": false,
          "name": "_secretsHash",
          "type": "bytes32"
        },
        {
          "indexed": false,
          "name": "_duration",
          "type": "uint16"
        },
        {
          "indexed": false,
          "name": "identifier",
          "type": "bytes32"
        }
      ],
      "name": "LogRemittanceCreated",
      "type": "event"
    },
    {
      "anonymous": false,
      "inputs": [
        {
          "indexed": true,
          "name": "_exchange",
          "type": "address"
        },
        {
          "indexed": false,
          "name": "_value",
          "type": "uint256"
        },
        {
          "indexed": false,
          "name": "_nonce",
          "type": "uint256"
        },
        {
          "indexed": true,
          "name": "_sender",
          "type": "address"
        }
      ],
      "name": "LogRemittanceSolved",
      "type": "event"
    },
    {
      "anonymous": false,
      "inputs": [
        {
          "indexed": true,
          "name": "_sender",
          "type": "address"
        },
        {
          "indexed": false,
          "name": "_value",
          "type": "uint256"
        },
        {
          "indexed": false,
          "name": "_nonce",
          "type": "uint256"
        }
      ],
      "name": "LogRemittanceRetrieved",
      "type": "event"
    },
    {
      "anonymous": false,
      "inputs": [
        {
          "indexed": false,
          "name": "_killed",
          "type": "bool"
        }
      ],
      "name": "LogKilled",
      "type": "event"
    },
    {
      "constant": false,
      "inputs": [
        {
          "name": "_exchange",
          "type": "address"
        },
        {
          "name": "_secretsHash",
          "type": "bytes32"
        },
        {
          "name": "_duration",
          "type": "uint16"
        }
      ],
      "name": "createRemittance",
      "outputs": [],
      "payable": true,
      "stateMutability": "payable",
      "type": "function"
    },
    {
      "constant": false,
      "inputs": [
        {
          "name": "nonce",
          "type": "uint256"
        },
        {
          "name": "secret1",
          "type": "string"
        },
        {
          "name": "secret2",
          "type": "string"
        },
        {
          "name": "sender",
          "type": "address"
        }
      ],
      "name": "solveRemittance",
      "outputs": [],
      "payable": false,
      "stateMutability": "nonpayable",
      "type": "function"
    },
    {
      "constant": false,
      "inputs": [
        {
          "name": "nonce",
          "type": "uint256"
        },
        {
          "name": "secret1",
          "type": "string"
        },
        {
          "name": "secret2",
          "type": "string"
        },
        {
          "name": "_exchange",
          "type": "address"
        }
      ],
      "name": "retrieveRemittance",
      "outputs": [],
      "payable": false,
      "stateMutability": "nonpayable",
      "type": "function"
    },
    {
      "constant": false,
      "inputs": [],
      "name": "kill",
      "outputs": [],
      "payable": false,
      "stateMutability": "nonpayable",
      "type": "function"
    },
    {
      "constant": true,
      "inputs": [
        {
          "name": "_secretOne",
          "type": "string"
        },
        {
          "name": "_secretTwo",
          "type": "string"
        }
      ],
      "name": "hash",
      "outputs": [
        {
          "name": "",
          "type": "bytes32"
        }
      ],
      "payable": false,
      "stateMutability": "view",
      "type": "function"
    }
  ],
  "bytecode": "0x60606040526001600060146101000a81548160ff021916908315150217905550341561002a57600080fd5b336000806101000a81548173ffffffffffffffffffffffffffffffffffffffff021916908373ffffffffffffffffffffffffffffffffffffffff160217905550610de1806100796000396000f300606060405260043610610099576000357c0100000000000000000000000000000000000000000000000000000000900463ffffffff16806312e1ea7c1461009e578063316b5efe146100e65780633f683bfb146101a257806341c0e1b51461026a578063753899e91461027f5780637ecebe00146102ac5780638da5cb5b146102f9578063cd28e4d81461034e578063ec56a37314610416575b600080fd5b6100e4600480803573ffffffffffffffffffffffffffffffffffffffff169060200190919080356000191690602001909190803561ffff16906020019091905050610458565b005b34156100f157600080fd5b610184600480803590602001908201803590602001908080601f0160208091040260200160405190810160405280939291908181526020018383808284378201915050505050509190803590602001908201803590602001908080601f016020809104026020016040519081016040528093929190818152602001838380828437820191505050505050919050506106f5565b60405180826000191660001916815260200191505060405180910390f35b34156101ad57600080fd5b610268600480803590602001909190803590602001908201803590602001908080601f0160208091040260200160405190810160405280939291908181526020018383808284378201915050505050509190803590602001908201803590602001908080601f0160208091040260200160405190810160405280939291908181526020018383808284378201915050505050509190803573ffffffffffffffffffffffffffffffffffffffff169060200190919050506107bc565b005b341561027557600080fd5b61027d610a28565b005b341561028a57600080fd5b610292610aea565b604051808215151515815260200191505060405180910390f35b34156102b757600080fd5b6102e3600480803573ffffffffffffffffffffffffffffffffffffffff16906020019091905050610afd565b6040518082815260200191505060405180910390f35b341561030457600080fd5b61030c610b15565b604051808273ffffffffffffffffffffffffffffffffffffffff1673ffffffffffffffffffffffffffffffffffffffff16815260200191505060405180910390f35b341561035957600080fd5b610414600480803590602001909190803590602001908201803590602001908080601f0160208091040260200160405190810160405280939291908181526020018383808284378201915050505050509190803590602001908201803590602001908080601f0160208091040260200160405190810160405280939291908181526020018383808284378201915050505050509190803573ffffffffffffffffffffffffffffffffffffffff16906020019091905050610b3a565b005b341561042157600080fd5b61043b600480803560001916906020019091905050610d91565b604051808381526020018281526020019250505060405180910390f35b60008060149054906101000a900460ff16151561047457600080fd5b61ffff8261ffff161115151561048957600080fd5b600260003373ffffffffffffffffffffffffffffffffffffffff1673ffffffffffffffffffffffffffffffffffffffff16815260200190815260200160002054338585604051808581526020018473ffffffffffffffffffffffffffffffffffffffff1673ffffffffffffffffffffffffffffffffffffffff166c010000000000000000000000000281526014018373ffffffffffffffffffffffffffffffffffffffff1673ffffffffffffffffffffffffffffffffffffffff166c010000000000000000000000000281526014018260001916600019168152602001945050505050604051809103902090506001600260003373ffffffffffffffffffffffffffffffffffffffff1673ffffffffffffffffffffffffffffffffffffffff1681526020019081526020016000206000828254019250508190555034600160008360001916600019168152602001908152602001600020600001819055508161ffff164301600160008360001916600019168152602001908152602001600020600101819055508373ffffffffffffffffffffffffffffffffffffffff163373ffffffffffffffffffffffffffffffffffffffff167f89d3bb805a19ae326bd0af82ec075887b0b2b542f26b4f82e4f0dcef08e0ffe6346001600260003373ffffffffffffffffffffffffffffffffffffffff1673ffffffffffffffffffffffffffffffffffffffff16815260200190815260200160002054038787876040518086815260200185815260200184600019166000191681526020018361ffff1661ffff16815260200182600019166000191681526020019550505050505060405180910390a350505050565b60008083836040518083805190602001908083835b60208310151561072f578051825260208201915060208101905060208303925061070a565b6001836020036101000a03801982511681845116808217855250505050505090500182805190602001908083835b602083101515610782578051825260208201915060208101905060208303925061075d565b6001836020036101000a03801982511681845116808217855250505050505090500192505050604051809103902090508091505092915050565b60008085338487876040518083805190602001908083835b6020831015156107f957805182526020820191506020810190506020830392506107d4565b6001836020036101000a03801982511681845116808217855250505050505090500182805190602001908083835b60208310151561084c5780518252602082019150602081019050602083039250610827565b6001836020036101000a038019825116818451168082178552505050505050905001925050506040518091039020604051808581526020018473ffffffffffffffffffffffffffffffffffffffff1673ffffffffffffffffffffffffffffffffffffffff166c010000000000000000000000000281526014018373ffffffffffffffffffffffffffffffffffffffff1673ffffffffffffffffffffffffffffffffffffffff166c01000000000000000000000000028152601401826000191660001916815260200194505050505060405180910390209150600160008360001916600019168152602001908152602001600020600101544311151561095057600080fd5b600160008360001916600019168152602001908152602001600020600001549050600060016000846000191660001916815260200190815250503373ffffffffffffffffffffffffffffffffffffffff167fb02e24366d31af63a3ce2f2ad7256c228fe743bc214ffaed059f9585ea03ad1b8288604051808381526020018281526020019250505060405180910390a23373ffffffffffffffffffffffffffffffffffffffff166108fc829081150290604051600060405180830381858888f193505050501515610a2057600080fd5b505050505050565b6000809054906101000a900473ffffffffffffffffffffffffffffffffffffffff1673ffffffffffffffffffffffffffffffffffffffff163373ffffffffffffffffffffffffffffffffffffffff16141515610a8357600080fd5b60008060146101000a81548160ff0219169083151502179055507f9881eccb162bcf675ae0f62a7a5a81ccd30f6a721f3cf3f4f22b8207d323965a600060149054906101000a900460ff1615604051808215151515815260200191505060405180910390a1565b600060149054906101000a900460ff1681565b60026020528060005260406000206000915090505481565b6000809054906101000a900473ffffffffffffffffffffffffffffffffffffffff1681565b60008085833387876040518083805190602001908083835b602083101515610b775780518252602082019150602081019050602083039250610b52565b6001836020036101000a03801982511681845116808217855250505050505090500182805190602001908083835b602083101515610bca5780518252602082019150602081019050602083039250610ba5565b6001836020036101000a038019825116818451168082178552505050505050905001925050506040518091039020604051808581526020018473ffffffffffffffffffffffffffffffffffffffff1673ffffffffffffffffffffffffffffffffffffffff166c010000000000000000000000000281526014018373ffffffffffffffffffffffffffffffffffffffff1673ffffffffffffffffffffffffffffffffffffffff166c01000000000000000000000000028152601401826000191660001916815260200194505050505060405180910390209150600160008360001916600019168152602001908152602001600020600001549050600060016000846000191660001916815260200190815250508273ffffffffffffffffffffffffffffffffffffffff163373ffffffffffffffffffffffffffffffffffffffff167f34ee8769829eadba9fb097de6867ad288ba98c3e4c64ab3fa0fc4a80fefb7cac8389604051808381526020018281526020019250505060405180910390a33373ffffffffffffffffffffffffffffffffffffffff166108fc829081150290604051600060405180830381858888f193505050501515610d8957600080fd5b505050505050565b600160205280600052604060002060009150905080600001549080600101549050825600a165627a7a72305820ccb8594321fa05a65a0d121e58dec80cfc6c4c1da17377b30cb4328a3a9876b20029",
  "source": "pragma solidity ^0.4.19;\n\ncontract Remittance {\n\n    address public owner;\n    bool public alive = true;\n\n    // variables sender and deadline are needed to provide the option to retrieve unclaimed remittance\n    struct remittanceStruct {\n        uint value;\n        uint deadline;\n    }\n    \n    // We create a special container which can be accessed by a special hash\n    mapping(bytes32 => remittanceStruct) public contracts;\n    // We keep track for a nonce (contract Number) for every user, to prevent the user from creating identical contracts\n    mapping(address => uint) public nonces;\n\n    event LogRemittanceCreated(address indexed _sender, uint _value, uint _nonce, address indexed _exchange, bytes32 _secretsHash, uint16 _duration, bytes32 identifier);\n    event LogRemittanceSolved(address indexed _exchange, uint _value, uint _nonce, address indexed _sender);\n    event LogRemittanceRetrieved(address indexed _sender, uint _value, uint _nonce );\n    event LogKilled(bool _killed);\n\n    function Remittance() {\n        owner = msg.sender;\n    }\n\n    modifier isAlive() {\n        require(alive);\n        _;\n    }\n\n    modifier isOwner() {\n        require(msg.sender == owner);\n        _;\n    }\n    \n    //This function sets up a remittance container which is identified by a special hash\n    function createRemittance(\n        address _exchange, \n        bytes32 _secretsHash,\n        uint16 _duration\n    ) \n        public\n        isAlive \n        payable\n    {\n        // the maximum deadline is 65535 (max range of uint16), which approximates to 1.5 week, given an average blocktime of 15 seconds\n        require(_duration <= 65535);\n\n        // We identify each container by the hash of the passwords and the address of the exchange\n        bytes32 identifier = keccak256(nonces[msg.sender], msg.sender, _exchange, _secretsHash);\n        \n        // update the nonce, such that the next contract created will have it's unique identifier \n        nonces[msg.sender] +=1; \n        contracts[identifier].value = msg.value;    \n        contracts[identifier].deadline = block.number + _duration;\n    \n        LogRemittanceCreated(msg.sender, msg.value, (nonces[msg.sender] -1), _exchange, _secretsHash, _duration, identifier);\n    }\n    \n    // This function can be called by the exchange and will send the ether if the correct passwords are given\n    function solveRemittance(\n        uint nonce,\n        string secret1,\n        string secret2,\n        address sender\n    ) \n    public {\n        bytes32 identifier = keccak256(nonce, sender, msg.sender, keccak256(secret1, secret2));\n        \n        uint value = contracts[identifier].value;\n        contracts[identifier].value == 0;\n        \n        LogRemittanceSolved(msg.sender, value, nonce, sender);\n\n        msg.sender.transfer(value);\n    }\n    \n    // This function give the option to a remittance contract creator to claim back the value of the remittance after the deadline expiress\n    function retrieveRemittance(\n        uint nonce,\n        string secret1,\n        string secret2,\n        address _exchange\n    ) \n    public {\n        bytes32 identifier = keccak256(nonce, msg.sender, _exchange, keccak256(secret1, secret2));\n        require(block.number > contracts[identifier].deadline);\n        \n        uint value = contracts[identifier].value;\n        contracts[identifier].value == 0;\n\n        LogRemittanceRetrieved(msg.sender, value, nonce);\n\n        msg.sender.transfer(value);\n    }\n\n    //TODO make an event here as well\n    function kill() public isOwner {\n        alive = false;\n        LogKilled(!alive);\n    }\n    \n    // This function is just for convenience, do not use it in production!\n    function hash(string _secretOne, string _secretTwo) public view returns(bytes32) {\n        bytes32 hashed = keccak256(_secretOne, _secretTwo);\n        return(hashed);\n    }\n\n}\n    \n    \n\n",
  "sourcePath": "/home/rinke/DAPPS/B9/remittance/contracts/Remittance.sol",
  "compiler": {
    "name": "solc",
    "version": "0.4.19+commit.c4cbbb05.Emscripten.clang"
  },
  "schemaVersion": "2.0.0",
  "updatedAt": "2018-03-21T13:09:23.103Z"
}