{
  "contractName": "Remittance",
  "abi": [
    {
      "anonymous": false,
      "inputs": [
        {
          "indexed": true,
          "name": "_exchange",
          "type": "address"
        },
        {
          "indexed": false,
          "name": "value",
          "type": "uint256"
        }
      ],
      "name": "logSolved",
      "type": "event"
    },
    {
      "anonymous": false,
      "inputs": [
        {
          "indexed": true,
          "name": "_sender",
          "type": "address"
        },
        {
          "indexed": true,
          "name": "_exchange",
          "type": "address"
        },
        {
          "indexed": false,
          "name": "_secret1Hash",
          "type": "bytes32"
        },
        {
          "indexed": false,
          "name": "_secret2Hash",
          "type": "bytes32"
        },
        {
          "indexed": false,
          "name": "_value",
          "type": "uint256"
        },
        {
          "indexed": false,
          "name": "_duration",
          "type": "uint16"
        }
      ],
      "name": "logRemittanceCreated",
      "type": "event"
    },
    {
      "constant": false,
      "inputs": [
        {
          "name": "_exchange",
          "type": "address"
        },
        {
          "name": "_secret1Hash",
          "type": "bytes32"
        },
        {
          "name": "_secret2Hash",
          "type": "bytes32"
        },
        {
          "name": "_value",
          "type": "uint256"
        },
        {
          "name": "_duration",
          "type": "uint16"
        }
      ],
      "name": "createRemittance",
      "outputs": [],
      "payable": true,
      "stateMutability": "payable",
      "type": "function"
    },
    {
      "constant": false,
      "inputs": [
        {
          "name": "_contractId",
          "type": "bytes32"
        },
        {
          "name": "secret1",
          "type": "string"
        },
        {
          "name": "secret2",
          "type": "string"
        }
      ],
      "name": "Solve",
      "outputs": [],
      "payable": false,
      "stateMutability": "nonpayable",
      "type": "function"
    },
    {
      "constant": false,
      "inputs": [
        {
          "name": "_contractId",
          "type": "bytes32"
        }
      ],
      "name": "retrieve",
      "outputs": [],
      "payable": false,
      "stateMutability": "nonpayable",
      "type": "function"
    },
    {
      "constant": false,
      "inputs": [
        {
          "name": "_secret1",
          "type": "string"
        },
        {
          "name": "_secret2",
          "type": "string"
        }
      ],
      "name": "hash",
      "outputs": [
        {
          "name": "",
          "type": "bytes32"
        },
        {
          "name": "",
          "type": "bytes32"
        }
      ],
      "payable": false,
      "stateMutability": "nonpayable",
      "type": "function"
    }
  ],
  "bytecode": "0x6060604052341561000f57600080fd5b610a8d8061001e6000396000f300606060405260043610610062576000357c0100000000000000000000000000000000000000000000000000000000900463ffffffff1680632a36404a14610067578063316b5efe146100c5578063d1ed74ad14610190578063f525bdf9146101b7575b600080fd5b6100c3600480803573ffffffffffffffffffffffffffffffffffffffff16906020019091908035600019169060200190919080356000191690602001909190803590602001909190803561ffff16906020019091905050610264565b005b34156100d057600080fd5b610163600480803590602001908201803590602001908080601f0160208091040260200160405190810160405280939291908181526020018383808284378201915050505050509190803590602001908201803590602001908080601f016020809104026020016040519081016040528093929190818152602001838380828437820191505050505050919050506105dc565b60405180836000191660001916815260200182600019166000191681526020019250505060405180910390f35b341561019b57600080fd5b6101b56004808035600019169060200190919050506106bb565b005b34156101c257600080fd5b61026260048080356000191690602001909190803590602001908201803590602001908080601f0160208091040260200160405190810160405280939291908181526020018383808284378201915050505050509190803590602001908201803590602001908080601f016020809104026020016040519081016040528093929190818152602001838380828437820191505050505050919050506107c1565b005b600061ffff8261ffff161115151561027b57600080fd5b6000803373ffffffffffffffffffffffffffffffffffffffff1673ffffffffffffffffffffffffffffffffffffffff1681526020019081526020016000205433604051808381526020018273ffffffffffffffffffffffffffffffffffffffff1673ffffffffffffffffffffffffffffffffffffffff166c0100000000000000000000000002815260140192505050604051809103902090503360016000836000191660001916815260200190815260200160002060000160006101000a81548173ffffffffffffffffffffffffffffffffffffffff021916908373ffffffffffffffffffffffffffffffffffffffff1602179055508560016000836000191660001916815260200190815260200160002060010160006101000a81548173ffffffffffffffffffffffffffffffffffffffff021916908373ffffffffffffffffffffffffffffffffffffffff16021790555084600160008360001916600019168152602001908152602001600020600201816000191690555083600160008360001916600019168152602001908152602001600020600301816000191690555082600160008360001916600019168152602001908152602001600020600401819055508161ffff1642016001600083600019166000191681526020019081526020016000206005018190555060016000803373ffffffffffffffffffffffffffffffffffffffff1673ffffffffffffffffffffffffffffffffffffffff16815260200190815260200160002054016000803373ffffffffffffffffffffffffffffffffffffffff1673ffffffffffffffffffffffffffffffffffffffff168152602001908152602001600020541015156104f257fe5b60016000803373ffffffffffffffffffffffffffffffffffffffff1673ffffffffffffffffffffffffffffffffffffffff168152602001908152602001600020600082825401925050819055508573ffffffffffffffffffffffffffffffffffffffff163373ffffffffffffffffffffffffffffffffffffffff167f795c1e86d4f377d31b3c0c7f9fbdb4d50180236072002a12c6b87e64bcc42e3c8787878760405180856000191660001916815260200184600019166000191681526020018381526020018261ffff1661ffff16815260200194505050505060405180910390a3505050505050565b600080600080856040518082805190602001908083835b60208310151561061857805182526020820191506020810190506020830392506105f3565b6001836020036101000a03801982511681845116808217855250505050505090500191505060405180910390209150846040518082805190602001908083835b60208310151561067d5780518252602082019150602081019050602083039250610658565b6001836020036101000a0380198251168184511680821785525050505050509050019150506040518091039020905081819350935050509250929050565b60016000826000191660001916815260200190815260200160002060000160009054906101000a900473ffffffffffffffffffffffffffffffffffffffff1673ffffffffffffffffffffffffffffffffffffffff163373ffffffffffffffffffffffffffffffffffffffff1614151561073357600080fd5b60016000826000191660001916815260200190815260200160002060050154421015151561076057600080fd5b3373ffffffffffffffffffffffffffffffffffffffff166108fc600160008460001916600019168152602001908152602001600020600401549081150290604051600060405180830381858888f1935050505015156107be57600080fd5b50565b6001600084600019166000191681526020019081526020016000206005015442111515156107ee57600080fd5b60016000846000191660001916815260200190815260200160002060010160009054906101000a900473ffffffffffffffffffffffffffffffffffffffff1673ffffffffffffffffffffffffffffffffffffffff163373ffffffffffffffffffffffffffffffffffffffff1614151561086657600080fd5b6001600084600019166000191681526020019081526020016000206002015460001916826040518082805190602001908083835b6020831015156108bf578051825260208201915060208101905060208303925061089a565b6001836020036101000a0380198251168184511680821785525050505050509050019150506040518091039020600019161415156108fc57600080fd5b6001600084600019166000191681526020019081526020016000206003015460001916816040518082805190602001908083835b6020831015156109555780518252602082019150602081019050602083039250610930565b6001836020036101000a03801982511681845116808217855250505050505090500191505060405180910390206000191614151561099257600080fd5b3373ffffffffffffffffffffffffffffffffffffffff166108fc600160008660001916600019168152602001908152602001600020600401549081150290604051600060405180830381858888f1935050505015156109f057600080fd5b3373ffffffffffffffffffffffffffffffffffffffff167fc40185d7bb7f33f7e59645549504bdc1e3090dd8940424e4f049ea24091e890b600160008660001916600019168152602001908152602001600020600401546040518082815260200191505060405180910390a25050505600a165627a7a7230582021a5a7eed549cbd3ec895ed724be12181661854bb5bb20762fc9d95a61a51ce80029",
  "source": "pragma solidity ^0.4.1;\n\ncontract Remittance {\n    \n    struct remittanceStruct {\n        address sender;\n        address exchange;\n        bytes32 secret1Hash;\n        bytes32 secret2Hash;\n        uint value;\n        uint deadline;\n    }\n    \n    mapping(address => uint) nonce;\n    mapping(bytes32 => remittanceStruct) contracts;\n    \n    event logSolved(address indexed _exchange, uint value);\n    event logRemittanceCreated(address indexed _sender, address indexed _exchange, bytes32 _secret1Hash, bytes32 _secret2Hash, uint _value, uint16 _duration );\n    \n       function createRemittance(address _exchange, bytes32 _secret1Hash, bytes32 _secret2Hash, uint _value, uint16 _duration) public payable {\n            require(_duration <=  65535); // maximum deadline (also max range of uint 16)\n            \n            // We identify each contract by the hash of the address and a nonce\n            bytes32 contractId = keccak256(nonce[msg.sender], msg.sender);\n            \n            // Set contract values\n            contracts[contractId].sender = msg.sender;\n            contracts[contractId].exchange = _exchange;\n            contracts[contractId].secret1Hash = _secret1Hash;\n            contracts[contractId].secret2Hash = _secret2Hash;\n            contracts[contractId].value = _value;\n            contracts[contractId].deadline = now + _duration;\n            \n            // Check for integer overflow and update address\n            assert(nonce[msg.sender] < (nonce[msg.sender] + 1));\n            nonce[msg.sender] += 1;\n            \n            logRemittanceCreated(msg.sender, _exchange, _secret1Hash, _secret2Hash, _value, _duration);\n    }\n    \n    function Solve(bytes32 _contractId, string secret1, string secret2) public {\n        require(now <= contracts[_contractId].deadline);\n        require(msg.sender == contracts[_contractId].exchange);\n        require(keccak256(secret1) == contracts[_contractId].secret1Hash);\n        require(keccak256(secret2) == contracts[_contractId].secret2Hash);\n        msg.sender.transfer(contracts[_contractId].value);\n        logSolved(msg.sender, contracts[_contractId].value);\n    }\n    \n    function retrieve(bytes32 _contractId) public {\n        require(msg.sender == contracts[_contractId].sender);\n        require(now >= contracts[_contractId].deadline);\n        msg.sender.transfer(contracts[_contractId].value);\n    }\n    \n      function hash(string _secret1, string _secret2) public returns(bytes32, bytes32) {\n        bytes32 hash1 = keccak256(_secret1);\n        bytes32 hash2 = keccak256(_secret2);\n        return(hash1, hash2);\n    }\n    \n}\n    \n    \n    \n\n",
  "sourcePath": "/home/rinke/DAPPS/B9/remittance/contracts/Remittance.sol",
  "compiler": {
    "name": "solc",
    "version": "0.4.19+commit.c4cbbb05.Emscripten.clang"
  },
  "schemaVersion": "2.0.0",
  "updatedAt": "2018-03-18T18:34:15.003Z"
}