{
  "contractName": "Remittance",
  "abi": [
    {
      "anonymous": false,
      "inputs": [
        {
          "indexed": true,
          "name": "_exchange",
          "type": "address"
        },
        {
          "indexed": false,
          "name": "value",
          "type": "uint256"
        }
      ],
      "name": "logSolved",
      "type": "event"
    },
    {
      "anonymous": false,
      "inputs": [
        {
          "indexed": true,
          "name": "_sender",
          "type": "address"
        },
        {
          "indexed": false,
          "name": "_nonce",
          "type": "uint256"
        },
        {
          "indexed": false,
          "name": "_value",
          "type": "uint256"
        },
        {
          "indexed": true,
          "name": "_exchange",
          "type": "address"
        },
        {
          "indexed": false,
          "name": "_secret1Hash",
          "type": "bytes32"
        },
        {
          "indexed": false,
          "name": "_secret2Hash",
          "type": "bytes32"
        },
        {
          "indexed": false,
          "name": "_duration",
          "type": "uint16"
        }
      ],
      "name": "logRemittanceCreated",
      "type": "event"
    },
    {
      "constant": false,
      "inputs": [
        {
          "name": "_exchange",
          "type": "address"
        },
        {
          "name": "_secret1Hash",
          "type": "bytes32"
        },
        {
          "name": "_secret2Hash",
          "type": "bytes32"
        },
        {
          "name": "_duration",
          "type": "uint16"
        }
      ],
      "name": "createRemittance",
      "outputs": [
        {
          "name": "",
          "type": "uint256"
        },
        {
          "name": "",
          "type": "bytes32"
        }
      ],
      "payable": true,
      "stateMutability": "payable",
      "type": "function"
    },
    {
      "constant": true,
      "inputs": [
        {
          "name": "_sender",
          "type": "address"
        },
        {
          "name": "_nonce",
          "type": "uint256"
        }
      ],
      "name": "getRemittance",
      "outputs": [
        {
          "name": "_exchange",
          "type": "address"
        },
        {
          "name": "_secret1Hash",
          "type": "bytes32"
        },
        {
          "name": "_secret2Hash",
          "type": "bytes32"
        },
        {
          "name": "_deadline",
          "type": "uint256"
        }
      ],
      "payable": false,
      "stateMutability": "view",
      "type": "function"
    },
    {
      "constant": false,
      "inputs": [
        {
          "name": "_contractId",
          "type": "bytes32"
        },
        {
          "name": "secret1",
          "type": "string"
        },
        {
          "name": "secret2",
          "type": "string"
        }
      ],
      "name": "solveRemittance",
      "outputs": [],
      "payable": false,
      "stateMutability": "nonpayable",
      "type": "function"
    },
    {
      "constant": false,
      "inputs": [
        {
          "name": "_contractId",
          "type": "bytes32"
        }
      ],
      "name": "retrieve",
      "outputs": [],
      "payable": false,
      "stateMutability": "nonpayable",
      "type": "function"
    },
    {
      "constant": false,
      "inputs": [
        {
          "name": "_secret1",
          "type": "string"
        },
        {
          "name": "_secret2",
          "type": "string"
        }
      ],
      "name": "hash",
      "outputs": [
        {
          "name": "",
          "type": "bytes32"
        },
        {
          "name": "",
          "type": "bytes32"
        }
      ],
      "payable": false,
      "stateMutability": "nonpayable",
      "type": "function"
    }
  ],
  "bytecode": "0x6060604052341561000f57600080fd5b610c218061001e6000396000f30060606040526004361061006d576000357c0100000000000000000000000000000000000000000000000000000000900463ffffffff168063316b5efe146100725780637d60b5681461013d5780639caf4d00146101ea578063d02efdbe14610262578063d1ed74ad14610309575b600080fd5b341561007d57600080fd5b610110600480803590602001908201803590602001908080601f0160208091040260200160405190810160405280939291908181526020018383808284378201915050505050509190803590602001908201803590602001908080601f01602080910402602001604051908101604052809392919081815260200183838082843782019150505050505091905050610330565b60405180836000191660001916815260200182600019166000191681526020019250505060405180910390f35b341561014857600080fd5b6101e860048080356000191690602001909190803590602001908201803590602001908080601f0160208091040260200160405190810160405280939291908181526020018383808284378201915050505050509190803590602001908201803590602001908080601f0160208091040260200160405190810160405280939291908181526020018383808284378201915050505050509190505061040f565b005b61023d600480803573ffffffffffffffffffffffffffffffffffffffff16906020019091908035600019169060200190919080356000191690602001909190803561ffff169060200190919050506106af565b6040518083815260200182600019166000191681526020019250505060405180910390f35b341561026d57600080fd5b6102a2600480803573ffffffffffffffffffffffffffffffffffffffff169060200190919080359060200190919050506109de565b604051808573ffffffffffffffffffffffffffffffffffffffff1673ffffffffffffffffffffffffffffffffffffffff1681526020018460001916600019168152602001836000191660001916815260200182815260200194505050505060405180910390f35b341561031457600080fd5b61032e600480803560001916906020019091905050610aef565b005b600080600080856040518082805190602001908083835b60208310151561036c5780518252602082019150602081019050602083039250610347565b6001836020036101000a03801982511681845116808217855250505050505090500191505060405180910390209150846040518082805190602001908083835b6020831015156103d157805182526020820191506020810190506020830392506103ac565b6001836020036101000a0380198251168184511680821785525050505050509050019150506040518091039020905081819350935050509250929050565b60016000846000191660001916815260200190815260200160002060050154431115151561043c57600080fd5b60016000846000191660001916815260200190815260200160002060020160009054906101000a900473ffffffffffffffffffffffffffffffffffffffff1673ffffffffffffffffffffffffffffffffffffffff163373ffffffffffffffffffffffffffffffffffffffff161415156104b457600080fd5b6001600084600019166000191681526020019081526020016000206003015460001916826040518082805190602001908083835b60208310151561050d57805182526020820191506020810190506020830392506104e8565b6001836020036101000a03801982511681845116808217855250505050505090500191505060405180910390206000191614151561054a57600080fd5b6001600084600019166000191681526020019081526020016000206004015460001916816040518082805190602001908083835b6020831015156105a3578051825260208201915060208101905060208303925061057e565b6001836020036101000a0380198251168184511680821785525050505050509050019150506040518091039020600019161415156105e057600080fd5b3373ffffffffffffffffffffffffffffffffffffffff166108fc600160008660001916600019168152602001908152602001600020600101549081150290604051600060405180830381858888f19350505050151561063e57600080fd5b3373ffffffffffffffffffffffffffffffffffffffff167fc40185d7bb7f33f7e59645549504bdc1e3090dd8940424e4f049ea24091e890b600160008660001916600019168152602001908152602001600020600101546040518082815260200191505060405180910390a2505050565b600080600061ffff8461ffff16111515156106c957600080fd5b336000803373ffffffffffffffffffffffffffffffffffffffff1673ffffffffffffffffffffffffffffffffffffffff16815260200190815260200160002054604051808373ffffffffffffffffffffffffffffffffffffffff1673ffffffffffffffffffffffffffffffffffffffff166c0100000000000000000000000002815260140182815260200192505050604051809103902090503360016000836000191660001916815260200190815260200160002060000160006101000a81548173ffffffffffffffffffffffffffffffffffffffff021916908373ffffffffffffffffffffffffffffffffffffffff16021790555034600160008360001916600019168152602001908152602001600020600101819055508660016000836000191660001916815260200190815260200160002060020160006101000a81548173ffffffffffffffffffffffffffffffffffffffff021916908373ffffffffffffffffffffffffffffffffffffffff1602179055508560016000836000191660001916815260200190815260200160002060030181600019169055508460016000836000191660001916815260200190815260200160002060040181600019169055508361ffff1643016001600083600019166000191681526020019081526020016000206005018190555060016000803373ffffffffffffffffffffffffffffffffffffffff1673ffffffffffffffffffffffffffffffffffffffff16815260200190815260200160002054016000803373ffffffffffffffffffffffffffffffffffffffff1673ffffffffffffffffffffffffffffffffffffffff1681526020019081526020016000205410151561094057fe5b60016000803373ffffffffffffffffffffffffffffffffffffffff1673ffffffffffffffffffffffffffffffffffffffff1681526020019081526020016000206000828254019250508190555060016000803373ffffffffffffffffffffffffffffffffffffffff1673ffffffffffffffffffffffffffffffffffffffff168152602001908152602001600020540381925092505094509492505050565b60008060008060008686604051808373ffffffffffffffffffffffffffffffffffffffff1673ffffffffffffffffffffffffffffffffffffffff166c01000000000000000000000000028152601401828152602001925050506040518091039020905060016000826000191660001916815260200190815260200160002060020160009054906101000a900473ffffffffffffffffffffffffffffffffffffffff1660016000836000191660001916815260200190815260200160002060030154600160008460001916600019168152602001908152602001600020600401546001600085600019166000191681526020019081526020016000206005015494509450945094505092959194509250565b60016000826000191660001916815260200190815260200160002060000160009054906101000a900473ffffffffffffffffffffffffffffffffffffffff1673ffffffffffffffffffffffffffffffffffffffff163373ffffffffffffffffffffffffffffffffffffffff16141515610b6757600080fd5b600160008260001916600019168152602001908152602001600020600501544310151515610b9457600080fd5b3373ffffffffffffffffffffffffffffffffffffffff166108fc600160008460001916600019168152602001908152602001600020600101549081150290604051600060405180830381858888f193505050501515610bf257600080fd5b505600a165627a7a7230582071335a8f929ad80f78d8880fa2a5324fa497428bfbbd185dc883353b5c5335bc0029",
  "source": "pragma solidity ^0.4.1;\n\ncontract Remittance {\n    \n    struct remittanceStruct {\n        address sender;\n        uint value;\n        address exchange;\n        bytes32 secret1Hash;\n        bytes32 secret2Hash;\n        uint deadline;\n    }\n    \n    mapping(address => uint) nonce;\n    mapping(bytes32 => remittanceStruct) contracts;\n    \n    event logSolved(address indexed _exchange, uint value);\n    event logRemittanceCreated(address indexed _sender, uint _nonce, uint _value, address indexed _exchange, bytes32 _secret1Hash, bytes32 _secret2Hash, uint16 _duration );\n    \n    function createRemittance(\n        address _exchange, \n        bytes32 _secret1Hash, \n        bytes32 _secret2Hash, \n        uint16 _duration\n    ) \n        public \n        payable\n        returns(\n            uint,\n            bytes32) \n    {\n        require(_duration <=  65535); // maximum deadline (also max range of uint 16)\n            \n        // We identify each contract by the hash of the address and a nonce\n        bytes32 contractId = keccak256(msg.sender, nonce[msg.sender]);\n            \n        // Set contract values\n        contracts[contractId].sender = msg.sender;\n        contracts[contractId].value = msg.value;\n        contracts[contractId].exchange = _exchange;\n        contracts[contractId].secret1Hash = _secret1Hash;\n        contracts[contractId].secret2Hash = _secret2Hash;\n        contracts[contractId].deadline = block.number + _duration;\n            \n        // Check for integer overflow and update address\n        assert(nonce[msg.sender] < (nonce[msg.sender] + 1));\n        nonce[msg.sender] += 1;\n\n        return(nonce[msg.sender] -1, contractId);\n        \n        // Event    \n        logRemittanceCreated(msg.sender, (nonce[msg.sender] -1), msg.value, _exchange, _secret1Hash, _secret2Hash, _duration);\n    }\n    \n    // This function can be called to view the remittance contracts\n    function getRemittance(\n        address _sender,\n        uint _nonce\n    ) \n        public \n        view \n        returns(\n            address _exchange, \n            bytes32 _secret1Hash, \n            bytes32 _secret2Hash, \n            uint _deadline\n        ) \n    {\n        bytes32 contractId =  keccak256(_sender, _nonce);\n        \n        return (\n            contracts[contractId].exchange,\n            contracts[contractId].secret1Hash,\n            contracts[contractId].secret2Hash,\n            contracts[contractId].deadline\n        );\n        \n    }\n    \n    // This function can be called by the exchange and will send the ether if the deadline has not passed and the correct passwords are given\n    function solveRemittance(\n        bytes32 _contractId, \n        string secret1, \n        string secret2\n    ) \n    public {\n        // Requirements\n        require(block.number <= contracts[_contractId].deadline);\n        require(msg.sender == contracts[_contractId].exchange);\n        require(keccak256(secret1) == contracts[_contractId].secret1Hash);\n        require(keccak256(secret2) == contracts[_contractId].secret2Hash);\n        \n        // Send if requirements are met\n        msg.sender.transfer(contracts[_contractId].value);\n        \n        // Event\n        logSolved(msg.sender, contracts[_contractId].value);\n    }\n    \n    // This function sends back the ether to the sender if the deadline has passed\n    function retrieve(bytes32 _contractId) public {\n        require(msg.sender == contracts[_contractId].sender);\n        require(block.number >= contracts[_contractId].deadline);\n        msg.sender.transfer(contracts[_contractId].value);\n    }\n    \n    // This function is just for testing purposes\n      function hash(string _secret1, string _secret2) public returns(bytes32, bytes32) {\n        bytes32 hash1 = keccak256(_secret1);\n        bytes32 hash2 = keccak256(_secret2);\n        return(hash1, hash2);\n    }\n    \n}\n    \n    \n    \n\n",
  "sourcePath": "/home/rinke/DAPPS/B9/remittance/contracts/Remittance.sol",
  "compiler": {
    "name": "solc",
    "version": "0.4.19+commit.c4cbbb05.Emscripten.clang"
  },
  "schemaVersion": "2.0.0",
  "updatedAt": "2018-03-19T21:21:20.017Z"
}