{
  "contractName": "EternalCanvas",
  "abi": [
    {
      "constant": true,
      "inputs": [],
      "name": "pixelAmount",
      "outputs": [
        {
          "name": "",
          "type": "uint256"
        }
      ],
      "payable": false,
      "stateMutability": "view",
      "type": "function"
    },
    {
      "constant": false,
      "inputs": [],
      "name": "renounceOwnership",
      "outputs": [],
      "payable": false,
      "stateMutability": "nonpayable",
      "type": "function"
    },
    {
      "constant": true,
      "inputs": [],
      "name": "owner",
      "outputs": [
        {
          "name": "",
          "type": "address"
        }
      ],
      "payable": false,
      "stateMutability": "view",
      "type": "function"
    },
    {
      "constant": true,
      "inputs": [
        {
          "name": "",
          "type": "uint256"
        }
      ],
      "name": "pixels",
      "outputs": [
        {
          "name": "",
          "type": "bytes1"
        }
      ],
      "payable": false,
      "stateMutability": "view",
      "type": "function"
    },
    {
      "constant": false,
      "inputs": [
        {
          "name": "newOwner",
          "type": "address"
        }
      ],
      "name": "transferOwnership",
      "outputs": [],
      "payable": false,
      "stateMutability": "nonpayable",
      "type": "function"
    },
    {
      "anonymous": false,
      "inputs": [
        {
          "indexed": true,
          "name": "potentialArtist",
          "type": "address"
        },
        {
          "indexed": false,
          "name": "bid",
          "type": "uint256"
        },
        {
          "indexed": false,
          "name": "time",
          "type": "uint256"
        }
      ],
      "name": "logBidPlaced",
      "type": "event"
    },
    {
      "anonymous": false,
      "inputs": [
        {
          "indexed": true,
          "name": "artist",
          "type": "address"
        },
        {
          "indexed": false,
          "name": "color",
          "type": "bytes1"
        },
        {
          "indexed": false,
          "name": "time",
          "type": "uint256"
        },
        {
          "indexed": false,
          "name": "position",
          "type": "uint256"
        }
      ],
      "name": "logPixelDrawn",
      "type": "event"
    },
    {
      "anonymous": false,
      "inputs": [
        {
          "indexed": true,
          "name": "bidder",
          "type": "address"
        },
        {
          "indexed": false,
          "name": "amount",
          "type": "uint256"
        }
      ],
      "name": "logOverbidRedeemed",
      "type": "event"
    },
    {
      "anonymous": false,
      "inputs": [
        {
          "indexed": true,
          "name": "owner",
          "type": "address"
        },
        {
          "indexed": false,
          "name": "amount",
          "type": "uint256"
        }
      ],
      "name": "logBalanceRedeemed",
      "type": "event"
    },
    {
      "anonymous": false,
      "inputs": [
        {
          "indexed": true,
          "name": "previousOwner",
          "type": "address"
        }
      ],
      "name": "OwnershipRenounced",
      "type": "event"
    },
    {
      "anonymous": false,
      "inputs": [
        {
          "indexed": true,
          "name": "previousOwner",
          "type": "address"
        },
        {
          "indexed": true,
          "name": "newOwner",
          "type": "address"
        }
      ],
      "name": "OwnershipTransferred",
      "type": "event"
    },
    {
      "constant": true,
      "inputs": [],
      "name": "getPixels",
      "outputs": [
        {
          "name": "",
          "type": "bytes1[100]"
        }
      ],
      "payable": false,
      "stateMutability": "view",
      "type": "function"
    },
    {
      "constant": false,
      "inputs": [
        {
          "name": "time",
          "type": "uint256"
        }
      ],
      "name": "purchaseRight",
      "outputs": [],
      "payable": true,
      "stateMutability": "payable",
      "type": "function"
    },
    {
      "constant": false,
      "inputs": [],
      "name": "redeemOverbid",
      "outputs": [],
      "payable": false,
      "stateMutability": "nonpayable",
      "type": "function"
    },
    {
      "constant": false,
      "inputs": [
        {
          "name": "time",
          "type": "uint256"
        },
        {
          "name": "color",
          "type": "bytes1"
        },
        {
          "name": "position",
          "type": "uint256"
        }
      ],
      "name": "draw",
      "outputs": [],
      "payable": false,
      "stateMutability": "nonpayable",
      "type": "function"
    },
    {
      "constant": false,
      "inputs": [],
      "name": "redeemBalance",
      "outputs": [],
      "payable": false,
      "stateMutability": "nonpayable",
      "type": "function"
    }
  ],
  "bytecode": "0x6080604052606460015560008054600160a060020a031916331790556109528061002a6000396000f3006080604052600436106100a35763ffffffff7c01000000000000000000000000000000000000000000000000000000006000350416633e5ceede81146100a85780634d91f0e8146100bf5780635eeebf58146100ff578063685c855414610126578063715018a61461013b5780638da5cb5b146101505780638da7f2321461018e578063d36c22c2146101db578063f2fde38b146101e6578063feeac61914610214575b600080fd5b3480156100b457600080fd5b506100bd610262565b005b3480156100cb57600080fd5b506100bd6004357fff0000000000000000000000000000000000000000000000000000000000000060243516604435610308565b34801561010b57600080fd5b50610114610575565b60408051918252519081900360200190f35b34801561013257600080fd5b506100bd61057b565b34801561014757600080fd5b506100bd6105d7565b34801561015c57600080fd5b5061016561065d565b6040805173ffffffffffffffffffffffffffffffffffffffff9092168252519081900360200190f35b34801561019a57600080fd5b506101a6600435610679565b604080517fff000000000000000000000000000000000000000000000000000000000000009092168252519081900360200190f35b6100bd6004356106bf565b3480156101f257600080fd5b506100bd73ffffffffffffffffffffffffffffffffffffffff6004351661079f565b34801561022057600080fd5b50610229610867565b6040518082610c8080838360005b8381101561024f578181015183820152602001610237565b5050505090500191505060405180910390f35b60005473ffffffffffffffffffffffffffffffffffffffff16331461028657600080fd5b600654604080519182525133917fc24b052ef5d3f676563b2bd6d81d8e0d61f0e7b7eba680604c9d5ea6d58ba712919081900360200190a260006006819055805460405173ffffffffffffffffffffffffffffffffffffffff909116916108fc9181818181818888f19350505050158015610305573d6000803e3d6000fd5b50565b7fff000000000000000000000000000000000000000000000000000000000000008216158061037857507f01000000000000000000000000000000000000000000000000000000000000007fff000000000000000000000000000000000000000000000000000000000000008316145b806103c457507f02000000000000000000000000000000000000000000000000000000000000007fff000000000000000000000000000000000000000000000000000000000000008316145b15156103cf57600080fd5b60648111156103dd57600080fd5b603c8306156103eb57600080fd5b60008381526007602052604090206002015460ff161561040a57600080fd5b824211801561041e5750826202a300014211155b156104585760008381526007602052604090205473ffffffffffffffffffffffffffffffffffffffff16331461045357600080fd5b610469565b6202a3008301421161046957600080fd5b600083815260076020526040902060010154600654908101101561048c57600080fd5b60008381526007602052604090206001808201546006805490910190556002918201805460ff19169091179055829082606481106104c657fe5b602080820490920180547f0100000000000000000000000000000000000000000000000000000000000000909404601f9092166101000a91820260ff9092021990931617909155604080517fff00000000000000000000000000000000000000000000000000000000000000851681529182018590528181018390525133917fe46a44afa7dd8f58f3146cfa69d3cf72cbda89c9d561be47dcc41809529266b3919081900360600190a2505050565b60015481565b33600090815260086020526040812054151561059657600080fd5b503360008181526008602052604080822054905190929183156108fc02918491818181858888f193505050501580156105d3573d6000803e3d6000fd5b5050565b60005473ffffffffffffffffffffffffffffffffffffffff1633146105fb57600080fd5b6000805460405173ffffffffffffffffffffffffffffffffffffffff909116917ff8df31144d9c2f0f6b59d69b8b98abd5459d07f2742c4df920b25aae33c6482091a26000805473ffffffffffffffffffffffffffffffffffffffff19169055565b60005473ffffffffffffffffffffffffffffffffffffffff1681565b6002816064811061068657fe5b60209182820401919006915054906101000a90047f01000000000000000000000000000000000000000000000000000000000000000281565b603c8106156106cd57600080fd5b428110156106da57600080fd5b60008181526007602052604090206001015434116106f757600080fd5b6000818152600760208181526040808420600181018054825473ffffffffffffffffffffffffffffffffffffffff168752600885528387208054909101905594869052928252825473ffffffffffffffffffffffffffffffffffffffff19163390811790935534938490558051938452908301849052805191927f6d4de79634bbb0728f8001b7038fb08fd3d1f30cb6abde77bac45d5aeec73d3b929081900390910190a250565b60005473ffffffffffffffffffffffffffffffffffffffff1633146107c357600080fd5b73ffffffffffffffffffffffffffffffffffffffff811615156107e557600080fd5b6000805460405173ffffffffffffffffffffffffffffffffffffffff808516939216917f8be0079c531659141344cd1fd0a4f28419497f9722a3daafe3b4186f6b6457e091a36000805473ffffffffffffffffffffffffffffffffffffffff191673ffffffffffffffffffffffffffffffffffffffff92909216919091179055565b61086f610906565b60408051610c8081019182905290600290606490826000855b82829054906101000a90047f0100000000000000000000000000000000000000000000000000000000000000027effffffffffffffffffffffffffffffffffffffffffffffffffffffffffffff1916815260200190600101906020826000010492830192600103820291508084116108885790505050505050905090565b610c806040519081016040528060649060208202803883395091929150505600a165627a7a7230582063aef81176acf2552f0d0143d07be6d9874e8ef51e7c2dc4c7f8a0146763943e0029",
  "source": "pragma solidity ^0.4.21; \nimport \"./Ownable.sol\";\n\n/**\n * @title EternalCanvas\n * @dev The EternalCanvas contract allows people to interact with the Ethernal canvas (place bids, redeem bid if overbid and draw acquired pixels). \n * The owner can empty the balance of the contract, but for future editions this should be a DAO\n * TODO: Check whether the way of storing pixels is most efficient\n * TODO: Think about a different auction model\n * TODO: More expressiveness in colors?\n */\n\ncontract EternalCanvas is Ownable {\n   \n    // @Erik: events are a different way for the blockchain to store information. Accessing events\n    // is easier and more efficient from the web, but they don't have the nice irreversibility property. \n    // it is comon to have events that capture all state-changing events in a contract, such that you could\n    // ideally rebuild the current state by applying all events consequently to the initial state. \n    // indexed means that you can filter on the event (such as I already made a filter in the .js file: {potentialArtis: account}). \n    // event is initialisation of an event. Emit is firing of an event. \n    event logBidPlaced(address indexed potentialArtist, uint bid, uint time);\n    event logPixelDrawn(address indexed artist, bytes1 color, uint time, uint position);\n    event logOverbidRedeemed(address indexed bidder, uint amount);\n    event logBalanceRedeemed(address indexed owner, uint amount);\n\n    // @Erik: let's do the mini-mini mvp 100 pixels (10x10)\n    uint public pixelAmount = 100;\n    bytes1[100] public pixels;\n    uint ownerBalance;\n    \n    // @Erik: you probably know a struct. Practically, we use the struct on line 38, to map the time to a bid\n    struct bid {\n        address artist;\n        uint highestBid;\n        bool accountedFor;\n    }\n\n    // @Erik: you will see mappings very often in Solidity. They are extremely usefull. Especially mappping(address => uint) is common to map the balance of an address to it's address.\n    mapping(uint => bid) drawingRight;\n    mapping(address => uint) payback;\n    \n    /**\n    * @dev returns the whole pixels array\n    */\n    function getPixels() view public returns(bytes1[100]) {\n        return pixels;\n    }\n\n    /**\n    * @dev Allows the user to place a bid on the right to draw at the canvas between time and time + 2 days. Time intervals are in minutes, bids can only placed for a time in the future, \n    * msg.value must be higher than the current highest bid, and the bid will be allowed to redeem for the previously highest bidder.\n    * @param time unix timestamp (Date, hours, minutes, seconds in UTC) since 1970\n    */\n    function purchaseRight(uint time) public payable {\n        require(time % 1 minutes == 0);\n        require(time >= now);\n        require(msg.value > drawingRight[time].highestBid);\n        payback[drawingRight[time].artist] = payback[drawingRight[time].artist] + drawingRight[time].highestBid;\n        drawingRight[time].artist = msg.sender;\n        drawingRight[time].highestBid = msg.value;\n        emit logBidPlaced(msg.sender, msg.value, time);\n    }\n    \n    /**\n    * @dev Allows the user to redeem his balance which exists out of the value of overbidden bids. \n    */\n    function redeemOverbid () public {\n        require(payback[msg.sender] != 0);\n        uint amount = payback[msg.sender];\n        payback[msg.sender] == 0;\n        msg.sender.transfer(amount);\n    }\n    \n    /**\n    * @dev Allows the user to use the previously acquired right to draw on the canvas. \n    * @param time unix timestamp (Date, hours, minutes, seconds in UTC) since 1970\n    */\n    function draw(uint time, bytes1 color, uint position) public {\n        // 0 = red, 1 = green, 2 = blue\n        require(color == 0 || color == 1 || color == 2);\n        require(position <= 100);\n        require(time % 1 minutes == 0);\n        // an artist can draw in the period after the auction has closed and this time + 2 days\n        //TODO: time / now is inaccurate which can bring security issues / disappointed artists\n        require(!drawingRight[time].accountedFor);\n        // if it is less than 2 days after the end of the auction, only the purchaser has the right to draw, otherwise anybody can draw. \n        if(now > time && now <= time + 2 days) {\n            require(drawingRight[time].artist == msg.sender);\n        } else {\n            require(now > time + 2 days);\n        }\n        require(ownerBalance <= ownerBalance + drawingRight[time].highestBid);\n        ownerBalance += drawingRight[time].highestBid;\n        drawingRight[time].accountedFor = true;\n        pixels[position] = color;\n        emit logPixelDrawn(msg.sender, color, time, position);\n    }\n    \n    function redeemBalance() onlyOwner public {\n        emit logBalanceRedeemed(msg.sender, ownerBalance);\n        ownerBalance = 0;\n        owner.transfer(ownerBalance);\n    }\n}",
  "sourcePath": "/home/rinke/DAPPS/EternalCanvas/contracts/EternalCanvas.sol",
  "compiler": {
    "name": "solc",
    "version": "0.4.24+commit.e67f0147.Emscripten.clang"
  },
  "schemaVersion": "2.0.0",
  "updatedAt": "2018-06-01T08:07:40.708Z"
}